:020000040800F2
:100000003898002079020008B30900085907000851
:10001000B1090008110400084D0F0008000000009D
:10002000000000000000000000000000C101000806
:1000300013040008000000001502000891020008E7
:10004000930200089302000893020008930200083C
:10005000930200089302000893020008930200082C
:1000600093020008ED0400089302000893020008C0
:10007000930200089302000893020008930200080C
:1000800093020008930200089302000893020008FC
:1000900093020008930200089302000893020008EC
:1000A00093020008930200089302000893020008DC
:1000B00093020008930200089302000893020008CC
:1000C00093020008930200089302000893020008BC
:1000D00093020008930200089302000893020008AC
:1000E000930200089302000893020008930200089C
:1000F000930200089302000893020008930200088C
:10010000930200089302000893020008930200087B
:100110009302000893020008E10C00089302000813
:10012000930200089302000893020008930200085B
:10013000930200089302000893020008930200084B
:10014000930200089302000893020008930200083B
:10015000930200089302000893020008930200082B
:10016000930200089302000893020008930200081B
:10017000930200089302000893020008930200080B
:1001800093020008930200089302000893020008FB
:1001900093020008930200089302000893020008EB
:1001A000930200089302000893020008DFF80CD0C5
:1001B00000F09CF8004800476D11000838980020B6
:1001C0002A4B19680868B0E8F04F80F30988BFF33C
:1001D0006F8F4FF0000080F311887047000000001F
:1001E00006480068006880F3088862B661B6BFF30D
:1001F0004F8FBFF36F8F00DF00BF00BF08ED00E03F
:10020000DFF80C00016841F470010160704700BF25
:1002100088ED00E0EFF30980BFF36F8F134B1A688E
:100220001EF0100F08BF20ED108A20E9F04F10607B
:1002300008B44FF0500080F31188BFF34F8FBFF325
:100240006F8F01F093FF4FF0000080F3118808BC1E
:1002500019680868B0E8F04F1EF0100F08BFB0EC46
:10026000108A80F30988BFF36F8F70476000002009
:10027000EFF30580704700000648804706480047B6
:10028000FEE7FEE7FEE7FEE7FEE7FEE7FEE7FEE746
:10029000FEE7FEE7850C0008AD01000840EA010317
:1002A0009B0703D009E008C9121F08C0042AFAD22C
:1002B00003E011F8013B00F8013B521EF9D27047F0
:1002C00030B50B46014600202022012409E021FA26
:1002D00002F59D4205D303FA02F5491B04FA02F523
:1002E0002844151EA2F10102F1DC30BD064C074D79
:1002F00006E0E06840F0010394E8070098471034F6
:10030000AC42F6D3FFF756FFFC2C00081C2D00086A
:100310001CB51FA000F01CFE01F05AFC1F49042070
:10032000CDE90001820100231DA1204802F0A6FAB8
:10033000012805D11EA000F00BFE24A000F008FE4D
:1003400029480090022301224FF47A7127A002F07D
:1003500013FC124C241FA06048B102F0C9FA0246F7
:100360000020034600900121A06802F07DFC234894
:100370000090022300224FF4FA6121A002F0FCFB5E
:10038000E060206801F0A4FDBDE81C4001F05CBC09
:10039000617364617364617364610000280000200C
:1003A0004B65795F5461736B00000000C50800085D
:1003B000B4B4BDA84B65795F5461736BC8CECEF100
:1003C000B3C9B9A6A3A10D0A00000000B4B4BDA82A
:1003D000497244615F5461736BC8CECEF1B3C9B941
:1003E000A6A3A10D0A000000090C00084175746F56
:1003F00052656C6F616454696D657200190C000878
:100400004F6E6553686F7454696D6572000000002B
:10041000FEE77047F0B5012187B0084600F006FB03
:100420000121102000F01AFB012500248DF8064060
:100430008DF8075002266802254F8DF80560009060
:100440008DF804606946384600F004F9A80200906F
:100450008DF804606946384600F0FCF807220A214E
:10046000384600F033F907220921384600F02EF90A
:100470004FF4E130ADF80C400290ADF80E40ADF80D
:100480001040ADF814400C20124CADF8120002A937
:10049000204600F001FD4FF4A06000F0BDFA2520D9
:1004A0008DF818008DF819508DF81A508DF81B50E2
:1004B00006A800F07FFA012240F22551204600F004
:1004C000D2FC0121204600F0BDFC07B0F0BD0000C9
:1004D000000002400010014001B50348009901608E
:1004E00001680029FCD108BD5C0000202DE9F84F0F
:1004F00000252C465021EFF3118081F31188BFF3C2
:100500004F8FBFF36F8F8146082000F061F8E0B392
:10051000264E274FDFF89CA04FF0000B4FF001084C
:100520000821254800F0E2F80128F9D100F0FEF892
:10053000FA281DD2A0F1C801322901D201252AE0F2
:10054000A0F10A01282901D2002422E0A0F1320101
:10055000322901D201241CE06438642819D81749D3
:1005600081F800803078401C30703878401C38703A
:10057000009838B112494FF080500860BFF34F8F98
:10058000BFF36F8F082000F01DF889F31188BDE8D4
:10059000F88F012DC4D1DAF8000004EB4000CAF84E
:1005A000000086F800B087F80080B9E75800002006
:1005B0004C00002054000020001002405000002099
:1005C00004ED00E00149086070470000143C014060
:1005D000034A0146002012680A4200D001207047F9
:1005E000143C014030B51A4A8379016853B313684B
:1005F0008B431360111D0B680468A3430B600179E2
:1006000011440B68046823430B60114B08331968CD
:100610000468A14319601C1D21680568A943216075
:100620004179102905D011440A68006802430A6024
:1006300030BD1968026811431960216800680143E0
:10064000216030BD0079104402688A43026030BDE9
:10065000003C0140F0B5002201274FF0030C0B686D
:1006600007FA02F52B40AB422CD1066853000CFA76
:1006700003F4A64306600E79D0F800E09E4046EAF7
:100680000E0606600E79012E01D0022E12D1866868
:10069000A64386604E79D0F808E09E4046EA0E06F2
:1006A00086604668AE43466045688E799640B6B22D
:1006B00035434560C568A543C560CC799C40C36897
:1006C0001C43C460521C102AC9D3F0BD4B07DB0E7B
:1006D0009A40C90810B500EB8100016A0F249C40C4
:1006E000A1430162016A1143016210BD024600206C
:1006F00012690A4200D001207047000010B50121A4
:100700000348FFF7F3FF012800D0002010BD0000D0
:100710000000024010B54FF400510348FFF7E6FF18
:10072000012800D0002010BD0008024070B5002450
:10073000084D06E0641CE4B20220FFF7CDFEFA2C5F
:1007400005D008212846FFF7D1FF0028F2D1204626
:1007500070BD000000100240FEE7000070B586B0DA
:100760000121102000F062F90121880300F076F9E0
:100770004FF4407000F050F909208DF80800012571
:100780008DF8095000248DF80A408DF80B5002A80E
:1007900000F010F908268DF8104003968DF81340EC
:1007A00003A90A48FFF756FF0321042000F0ACF923
:1007B0008DF804400C208DF8050000968DF8065049
:1007C0006846FFF70FFF06B070BD00000010024042
:1007D0001CB50121084600F029F9012000900020F5
:1007E0008DF804008DF807008DF805006946024871
:1007F000FFF730FF1CBD0000000002401CB50121C6
:10080000042000F013F94FF40050009000208DF800
:1008100004008DF807008DF8050069460148FFF7D0
:1008200019FF1CBD00080240002201600271022174
:1008300041718171C2717047C90701D000210171F6
:100840000079704770B504464079002501281BD017
:10085000022810D00125022603281DD0042812D119
:10086000E0790A30C0B2E0710A280CD320688047D2
:1008700040B1A57119E020688047002803D0E571D8
:10088000042007E0667170BD206880470028FAD117
:10089000E5710320607170BDE0790A30C0B2E0718B
:1008A0000A28F8D32068804708B1657170BDA5712A
:1008B00066712079401CC0B22071FA28F6D9FA205E
:1008C000207170BD08B51A4C002519481830FFF783
:1008D000B9FF17482030FFF7B5FF15480021183041
:1008E000FFF7AAFF90B113A000F032FBE06840B11F
:1008F00001F0FEFF0246009500230121E06802F0AE
:10090000B3F90B4801211830FFF796FF0848002182
:100910002030FFF791FF38B10AA000F019FB04481E
:1009200001212030FFF788FF322001F097FACCE751
:1009300024000020B0B4BCFC31B1BBB0B4CFC20ABB
:1009400000000000B0B4BCFC32B1BBB0B4CFC20AEE
:10095000000000002DE9FC410121802000F066F834
:1009600001208DF8040000218DF806108DF8070095
:100970000E4F4FF480648DF8051000946946384698
:10098000FFF768FE6500694638460095FFF762FE8E
:10099000A600694638460096FFF75CFE034818300B
:1009A000048005800680BDE8FC810000001C024038
:1009B000FEE7704730B50F23C27801780125FAB100
:1009C000144A126801F1E02102F4E062C2F5E0622B
:1009D000C2F30722C2F10404D3404278A2408478D3
:1009E0001C401443220181F80024007800F01F010C
:1009F0008D404009800000F1E020C0F8005130BD7A
:100A000001F01F0085404809800000F1E020C0F897
:100A1000805130BD0CED00E00249084302490860F6
:100A2000704700000000FA050CED00E0044A0029C0
:100A3000116801D0014300E081431160704700005C
:100A400030380240044A0029116801D0014300E017
:100A5000814311607047000040380240044A002979
:100A6000116801D0014300E081431160704700002C
:100A70004438024070B5204B1968204C11F00C012D
:100A800004D01F4E042903D0082903D004601BE0C2
:100A9000066019E0184A121F1168C1F380551168E9
:100AA00001F03F0115B1B6FBF1F101E0B4FBF1F14A
:100AB00014681268C4F388146143C2F30142521CE3
:100AC0005200B1FBF2F1016019680F2202EA111124
:100AD0000C4A545C0168E14041601C68072505EA46
:100AE0009424145D21FA04F484601B6805EA5333EE
:100AF000D25CD140C16070BD083802400024F400CF
:100B000040787D011400002010B58A0721F003040D
:100B10000849120F21440F23D1F8084893409C4301
:100B2000C1F80848D1F8083890400343C1F80838A4
:100B300010BD0000003001401CB500212E4A00917C
:100B40000191106840F4803010604FF4A0431068A9
:100B500000F4003001900098401C0090019810B9FA
:100B600000989842F3D11068800342D5012001908B
:100B700021484030016841F0805101601F490868F8
:100B800040F4404008601C48083003680360036874
:100B900043F400430360036843F4A0530360041F5D
:100BA000174B2360136843F08073136013689B0135
:100BB000FCD50A6842F480320A604A68D203FCD548
:100BC0000A6842F400320A604A689203FCD50D4A72
:100BD00040F205711160016821F0030101600168B4
:100BE00041F0020101600168C1F381010229FAD1DB
:100BF0001CBD01911CBD0000003802400070004087
:100C0000195A4007003C024002480169491C016131
:100C100001F06EBE2400002070B50B4C6069401CD2
:100C2000606101F065FE05460848016881F40061D5
:100C3000016007A0616900F08BF92946BDE87040AA
:100C40000BA000F085B9000024000020141C024015
:100C50005377746D72325F43616C6C6261636BBA1F
:100C6000AFCAFDD6B4D0D020256420B4CE0A00008F
:100C7000B5CEB4F0B6A8CAB1C6F7CAFDD6B53D2503
:100C8000640A0000124810B5016841F47001016067
:100C90001048016841F0010101600E4A002108324C
:100CA000116002680C4B1A400260031D0B4A1A6067
:100CB000026822F48022026006480C300160FFF7CF
:100CC0003BFF03494FF000608039086010BD000011
:100CD00088ED00E000380240FFFFF6FE10300024EF
:100CE00010B5084C0121204600F01EF8002807D05E
:100CF00000F09EF82046BDE81040012100F007B842
:100D000010BD000000100040C94301827047C94374
:100D1000018270470029018802D041F0010101E001
:100D200021F001010180704702460020138A928958
:100D30000B4202EA010202D0002A00D001207047D3
:100D4000002A828901D00A4300E08A4382817047E9
:100D500030B50288164C174DA0420DD0A8420BD0DA
:100D6000B0F1804F08D0144B984205D0134B9842F5
:100D700002D0134B984203D122F070034A881A43E1
:100D8000104B984206D0104B984203D022F4407387
:100D90000A891A4302804A68C2620A880285A04210
:100DA00001D0A84201D1897A01860121818230BD1A
:100DB0000000014000040140000400400008004021
:100DC000000C004000100040001400403EB54FF4FD
:100DD0004070FFF721FE36208DF8000000208DF8CE
:100DE00001008DF8020001208DF803006846FFF72E
:100DF000E1FD01211020FFF725FE1320019042F2B2
:100E000027300A4CADF8000069462046FFF7A0FFE6
:100E100001212046FFF778FF012211462046FFF707
:100E20008FFF01212046FFF775FF3EBD00100040F7
:100E300003480168002902D00168491E016070471B
:100E40005C0000200029818902D041F4005101E0BA
:100E500021F40051818170470246002012880A4225
:100E600000D00120704710B5C1F3421301F01F04F8
:100E70000121A140012B07D0022B07D01430002AFA
:100E8000026805D00A4304E00C30F8E71030F6E7BA
:100E90008A43026010BD00007FB50446008A0D46FB
:100EA000C98820F4405001432182A08941F20C619D
:100EB0008843A9882A8911436A8902431143A18181
:100EC000A08A20F44071A8890843A0826846FFF7F1
:100ED000D1FD1A48844202D01948844201D10398B6
:100EE00000E00298A189090400EBC00101EB0010A9
:100EF000296801D5490000E08900B0FBF1F06422C7
:100F0000B0FBF2F109010B096FF018056B4300EB20
:100F10008300A3891D044FF0320306D503EBC00004
:100F2000B0FBF2F000F0070005E003EB0010B0FBAF
:100F3000F2F000F00F00084320817FBD0010014057
:100F400000140140C1F3080181807047FEE70000F2
:100F50000FB4054B10B503A9044A029800F018F825
:100F600010BC5DF814FB000049110008D4000020FB
:100F700002E008C8121F08C1002AFAD17047704762
:100F8000002001E001C1121F002AFBD170470000C0
:100F90002DE9FF4F8BB09A460F460546002606E026
:100FA00025280BD052460D9990476D1C761C287849
:100FB0000028F5D10FB03046BDE8F08F0024A046E0
:100FC0000122604900E0044315F8013F203B02FA8A
:100FD00003F00842F7D128782E2817D115F8010F11
:100FE00044F004042A280ED06FF02F022878A0F1D4
:100FF000300109290AD808EB880102EB410100EB16
:1010000001086D1CF2E757F8048B6D1C28786928DD
:101010003ED006DC0028CDD063280BD0642804D154
:1010200036E0732810D075284BD052460D99904762
:10103000761C85E017F8040B8DF8000000208DF871
:101040000100E946012003E057F8049B4FF0FF3010
:1010500061074FF0000401D40AE0641C44450DDA36
:101060008442FADB19F804100029F6D106E0641C6A
:101070008442FCDB19F804100029F8D1264404E06E
:1010800019F8010B52460D999047641EF8D257E0AB
:1010900001CF4FF00A0B002802DA40422D2102E076
:1010A000210504D52B218DF82410012103E0E1074F
:1010B00005D02021F7E70DF1200908910CE000216F
:1010C000F9E701CF4FF00A0BF9E75946FFF7F8F8B7
:1010D00001F1300209F8012D0028F6D1ADEB09002D
:1010E00000F1200B600701D44FF00108D84502DD64
:1010F000A8EB0B0000E000208046002406E009A8D1
:101100005246005D0D999047641C761C08988442F5
:10111000F5DB04E0302052460D999047761CB8F17B
:101120000001A8F10108F5DC05E019F8010B5246B1
:101130000D999047761CBBF10001ABF1010BF4DC7B
:101140006D1C34E70928010070B5074D0446C1B293
:101150002846FFF7F7FE80212846FFF77DFE00288E
:10116000F9D0204670BD0000001001401CB54FF4BE
:101170004070FFF751FCFFF7EDFBFFF727FEFFF78D
:1011800049F9FFF725FBFFF739FB12491248FFF732
:101190004BFB114811490830FFF746FBFFF7DEFA19
:1011A0000FA0FFF7D5FE18A0FFF7D2FE0A490020D6
:1011B0001839CDE9000103464FF4007221A12548FA
:1011C00001F05CFB012802D04FF0FF301CBD00F0A5
:1011D00077FFFEE7FD0600083C0000201507000829
:1011E0000D0A20D5E2CAC7D2BBB8F6BAECCDE2D21E
:1011F000A3BFD8B7A2C9E4D3EBBDD3CAD5CAB5D172
:10120000E9200D0A00000000D5E2CAC7D2BBB8F63B
:101210005BD2B0BBF05D2D53544D3332C8ABCFB56C
:10122000C1D0BFAAB7A2B0E52D4672656552544F32
:1012300053C8EDBCFEB6A8CAB1C6F7CAB5D1E9A37A
:10124000A10A00004170705461736B437265617450
:1012500065000000110300082DE9F041184E0F460B
:101260000446F5683068001D00F06EFC38B930683F
:1012700090F82C1001208840316981433161601C55
:1012800007D137B13168BDE8F0410E48091D00F0C3
:1012900093BC30682C44AC424460316805D2B06BDA
:1012A000BDE8F041091D00F06FBC706B091D00F036
:1012B0006BFCB06A844200D2B462BDE8F0810000E9
:1012C00060000020F80300202DE9F041054600F001
:1012D0007FFC2D4EB068401CB06030682B4F10B1C1
:1012E000706930B32BE03560B068012827D1002445
:1012F00004EB840007EB800000F038FC641C202C19
:10130000F6D3234800F032FC2148143000F02EFCC4
:101310001F48283000F02AFC1D483C3000F026FC15
:101320001B48503000F022FC194870631430B06341
:1013300005E03068E96AC06A884200D83560706AA2
:101340000121401C7062E86A3269814011433161B9
:1013500000EB800007EB8000291D00F02DFC00F061
:1013600073FC706900280CD03068E96AC06A884252
:1013700007D208494FF080500860BFF34F8FBFF38A
:101380006F8FBDE8F0810000600000202801002080
:10139000A803002004ED00E010B500F019FC0E4C8D
:1013A0002068A0B90D4800F0E1FB0C48143000F0B3
:1013B000DDFB0A48E06014302061002210210A2081
:1013C00000F0A0FF206010B105A100F013FDBDE802
:1013D000104000F039BC00009C0000200C040020EC
:1013E000546D72510000000070B5124E124D1CE099
:1013F00000F0B4FE306820B1002401F047FBA4B92E
:1014000001E00124F9E700F0E3FBF068C468201D67
:1014100000F09AFBA868401EA8606868401E6860DB
:1014200000F012FC204600F049F868680028DFD17F
:1014300070BD0000E40300206000002030B4026CA6
:101440000B46002A0BD0C1681144C1604468A14218
:1014500001D30168C16030BC1846FEF71FBF30BC25
:1014600070472DE9F041856B164604460027026C53
:10147000FAB17EB1E068FEF711FFE168206C091A4D
:10148000E1602268914202D26168081AE060022E8F
:101490000DD00EE0A068FEF701FF216CA0680844A3
:1014A000A0606168884204D32068A06001E005B1B3
:1014B0006D1E6D1CA5633846BDE8F08110B504466D
:1014C000006B00F0F3FB2046BDE8104000F0EEBBDF
:1014D00010484FF41041420706D0C01D0D4920F0BE
:1014E0000700411AC1F510410B4A00230144C2E92B
:1014F00000030839103A21F0070111604B600B60BE
:101500000B1AC0E9001393604FF000405360D060A5
:101510007047000034040020C0000020074E4FF048
:101520008054074DFFF760FF30680128FAD92C601E
:10153000BFF34F8FBFF36F8FF4E700002801002047
:1015400004ED00E02DE9F047DDE909840E4682460E
:101550006FF00301206B01EB82010844089D20F02D
:1015600007079946780705D040F22B3218A11FA033
:10157000FFF7EEFC00202218315C82F83410315C59
:1015800011B1401C1028F6D3002684F84360202DAA
:1015900000D31F25201DE56200F0F3FA04F11800C6
:1015A00000F0EFFA2461C5F120006462A061666476
:1015B00084F848604A465146384600F0AFFA206049
:1015C000B8F1000F01D0C8F80040BDE8F087000076
:1015D0002E2E5C2E2E5C4672656552544F535C7302
:1015E00072635C7461736B732E6300004572726F7B
:1015F000723A25732C25640D0A00000030B511499C
:1016000000E011460A688242FBD34B685C188442B2
:1016100003D1406818444860084643681C18944247
:1016200009D1084C103C2468A24209D052681A44DF
:1016300042600A6812680260814200D0086030BDD2
:101640000460F9E7C000002070B5002441600B4D34
:101650000061914206D8D11A8269914206D2011DD9
:10166000286907E09A4203D2994201D3012403E09A
:10167000011DE86800F088FA204670BD9C0000203B
:1016800010B5044600F0A4FAA06B20B1002400F0CD
:10169000DBFA204610BD0124F9E70000F8B5054645
:1016A00014480E46C068C068C468201D00F04CFA9B
:1016B000E069012817D1A0692B464119324620461E
:1016C000FFF7C2FF78B100200346014600902A468A
:1016D000204601F0C9FA30B907494FF4027201F10E
:1016E0001C00FFF735FC616A01B02046BDE8F04000
:1016F000084700009C000020C42B000870B586B08D
:101700002F4E53E00198002806DADDE90301029A22
:1017100090470198002849DB039C606910B1201DA7
:1017200000F012FA05A800F0A9F8054601980A2869
:101730003CD2DFE800F00505053B273805053B27CF
:101740000298A169034601442A462046FFF77CFF20
:1017500000282BD0616A20468847E069012825D1FE
:10176000002000900298A1690023421819462046E3
:1017700001F07AFAD0B940F2213212A118A0FFF795
:10178000E7FB13E00298A06128B94FF44E720DA157
:1017900013A0FFF7DDFBA0692B4641191A4620462E
:1017A000FFF752FF02E0204600F080FA00231A46BD
:1017B00001A9306800F0DEFD0028A3D106B070BD9D
:1017C0009C0000202E2E5C2E2E5C467265655254C5
:1017D0004F535C7372635C74696D6572732E630042
:1017E0004572726F723A25732C25640D0A00000051
:1017F000F8B50D46064600F0B1FC684600F03EF82C
:101800000446009810B101F041F9F8BD1148ADB19E
:1018100001690968D9B10025311B2A46006800F02A
:10182000FBFA01F033F90028EFD10B494FF080505B
:101830000860BFF34F8FBFF36F8FF8BDA642EBD8A0
:1018400001F024F921463046FFF728FFF8BD0125B5
:10185000E2E700009C00002004ED00E00648416B38
:10186000096829B1416BC968C968496881627047D4
:101870004FF0FF31FAE700006000002070B5054628
:1018800001F036F8064E0446B068844203D200F0F8
:1018900009F8012000E0002028602046B46070BDF7
:1018A0009C000020F8B5184E26E0C068C4680568A2
:1018B000201D00F049F9616A20468847E069012847
:1018C0001AD1A0692844A84206D924616060211D6C
:1018D000F06800F059F90FE000200346014600903F
:1018E0002A46204601F0C0F930B9084940F2923248
:1018F00001F11C00FFF72CFBF06801680029D4D12E
:101900003169C6E90310F8BD9C000020C42B000813
:1019100008484068401C05D040F20F1206A111A0F3
:10192000FFF716FB502080F31188BFF34F8FBFF3F2
:101930006F8FFEE7C80000202E2E5C2E2E5C4672B4
:10194000656552544F535C706F72745C52564453C9
:101950005C41524D5F434D34465C706F72742E6330
:10196000000000004572726F723A25732C25640DD9
:101970000A000000084CE068016839B1002139B163
:101980000020FFF735FFFFF7B9FEF4E70121F6E786
:10199000C0680068F5E700009C0000202DE9F041D8
:1019A000044600F015F994F9455004F1240609E0C5
:1019B000606A48B1304601F019F808B100F0F2FA57
:1019C0006D1E6DB2002DF3DC4FF0FF3684F84560DC
:1019D00000F03AF900F0FCF894F9445004F11007D3
:1019E00009E0206948B1384601F000F808B100F07C
:1019F000D9FA6D1E6DB2002DF3DC84F84460BDE8A9
:101A0000F04100F021B900002DE9F0410546002623
:101A100000F0A4FB324F386808B9FFF759FDF868A9
:101A200005424FD1002D4DD0083568070BD005F089
:101A30000700C0F108000544680704D0BF2229A1AF
:101A400032A0FFF785FA002D3CD07868854239D85E
:101A5000234910310846046801E0214604466068C5
:101A6000A84202D220680028F7D13868B8468442DC
:101A700028D00E682068086060680836401B10286F
:101A80000ED96719780704D0EC2216A11FA0FFF722
:101A90005FFA6068401B786038466560FFF7AEFD0E
:101AA0006168D8F804004246401AC8F80400D8F823
:101AB0000830984200D29060D8F80C000143002012
:101AC000C4E9000100F0E2FF700705D04FF4967200
:101AD00004A10EA0FFF73CFA3046BDE8F0810000FB
:101AE000B00000202E2E5C2E2E5C4672656552548E
:101AF0004F535C706F72745C4D656D4D616E675CC9
:101B0000686561705F342E63000000004572726F7B
:101B1000723A25732C25640D0A00000010B5031FCE
:101B20004FF080741C601B1F21F001011960191F08
:101B3000044B0B6014390A60091F6FF0020244382D
:101B40000A6010BD11190008D0E9013201699A60DC
:101B5000D0E901235A604A68824201D182684A6012
:101B6000002202610868401E0860704700F1080109
:101B70004FF0FF32C0E90112C16001610021016034
:101B8000704700210161704730B50C68621C02D0BB
:101B900000F1080202E0026904E01A4653681D6879
:101BA000A542FAD953684B6099608A605160086118
:101BB0000168491C016030BD42684A6093688B60CF
:101BC00093685960916008610168491C0160704721
:101BD000502080F31188BFF34F8FBFF36F8F0949F7
:101BE0004868401C486001280AD10748006810F086
:101BF000FF0F05D040F2B91204A10FA0FFF7A8B95A
:101C000070470000C800002004ED00E02E2E5C2E7E
:101C10002E5C4672656552544F535C706F72745CF3
:101C2000525644535C41524D5F434D34465C706F95
:101C300072742E63000000004572726F723A257351
:101C40002C25640D0A00000010B5084C606828B906
:101C50004FF4E07206A111A0FFF77AF96068401E08
:101C6000606001D180F3118810BD0000C800002021
:101C70002E2E5C2E2E5C4672656552544F535C705E
:101C80006F72745C525644535C41524D5F434D3405
:101C9000465C706F72742E63000000004572726FB4
:101CA000723A25732C25640D0A00000070B50028D7
:101CB0002AD0164DA0F108046068E968084205D1F1
:101CC0004FF4A07212A11CA0FFF742F9206828B1BE
:101CD00040F241120EA118A0FFF73AF96068E968D6
:101CE000084211D02268002A0ED18843606000F0BB
:101CF00035FA60686968084468602046FFF77EFC32
:101D0000BDE8704000F0C2BE70BD0000B000002011
:101D10002E2E5C2E2E5C4672656552544F535C70BD
:101D20006F72745C4D656D4D616E675C6865617066
:101D30005F342E63000000004572726F723A2573A3
:101D40002C25640D0A00000006484FF47A710068E3
:101D5000B0FBF1F14FF0E020491E41610721016124
:101D6000704700000000002010B5FEF781FA104C0B
:101D700010280CD300F1E02090F8F003217888427D
:101D800005D24FF440720BA115A0FFF7E1F81848F7
:101D90000068A16800F4E060884207D9BDE81040FF
:101DA0004FF4447203A10EA0FFF7D2B810BD00009B
:101DB000C80000202E2E5C2E2E5C467265655254A3
:101DC0004F535C706F72745C525644535C41524D79
:101DD0005F434D34465C706F72742E6300000000E8
:101DE0004572726F723A25732C25640D0A0000004B
:101DF0000CED00E010B5074B002253F832401CB147
:101E0000521C0A2AF9D310BD43F8321003EBC20169
:101E1000486010BDD800002070B515460E46044637
:101E2000FFF7D6FE94F944100020491C01D184F834
:101E3000440094F94510491C01D184F84500FFF78E
:101E400003FFA06B28B92A46314604F1240000F0B4
:101E5000DDF82046BDE87040FFF7A0BD10B50400D6
:101E600012D00E49096B29B140F2CF420CA113A048
:101E7000FFF76EF800F072F900212046FFF7ECF949
:101E800000F004FE002807D110494FF08050086090
:101E9000BFF34F8FBFF36F8F10BD000060000020B5
:101EA0002E2E5C2E2E5C4672656552544F535C7329
:101EB00072635C7461736B732E6300004572726FA2
:101EC000723A25732C25640D0A00000004ED00E031
:101ED00070B50446FFF77CFE234D04B92C68201D25
:101EE000FFF732FE58B9E06A204A00EB800152F851
:101EF000211021B901218140286988432861A06A05
:101F000018B104F11800FFF71FFE686A401C6862F0
:101F10002868844207D1211D1548FFF74DFE6868E7
:101F2000401C686007E0A868401EA8602046FFF7D4
:101F3000C5FAFFF793FCFFF787FE6869002812D007
:101F4000286884420FD1286B28B140F2654209A16C
:101F50000FA0FEF7FDFF12494FF080500860BFF35D
:101F60004F8FBFF36F8F70BD6000002028010020ED
:101F7000E40300202E2E5C2E2E5C467265655254C2
:101F80004F535C7372635C7461736B732E630000F8
:101F90004572726F723A25732C25640D0A00000099
:101FA00004ED00E001490120C86170476000002095
:101FB00070B50D46040005D140F6063207A10EA00B
:101FC000FEF7C6FF1048016820461831FFF7DCFD18
:101FD0002846BDE870400121FFF73EB92E2E5C2E49
:101FE0002E5C4672656552544F535C7372635C7429
:101FF00061736B732E6300004572726F723A2573C2
:102000002C25640D0A0000006000002070B5144605
:102010000E46050005D140F6313209A10FA0FEF7AA
:1020200097FF1248016828461831FFF7C5FD0CB12B
:102030004FF0FF3621463046BDE87040FFF70CB93F
:102040002E2E5C2E2E5C4672656552544F535C7387
:1020500072635C7461736B732E6300004572726F00
:10206000723A25732C25640D0A00000060000020E0
:1020700010B5040005D140F6C13205A10BA0FEF752
:1020800067FF0E48016A2160C068606010BD0000F3
:102090002E2E5C2E2E5C4672656552544F535C7337
:1020A00072635C7461736B732E6300004572726FB0
:1020B000723A25732C25640D0A0000006000002090
:1020C0001CB517480024CDE900402346802215A105
:1020D000164800F0D3FB012803D100F089FD012848
:1020E0000AD0401C1BD102B040F28472BDE81040FF
:1020F0000FA116A0FEF72CBF502080F31188BFF36C
:102100004F8FBFF36F8F06484FF0FF312C3881623D
:1021100001214161C460BDE81C4000F069B81CBDEC
:102120008C00002049444C45000000001D150008AB
:102130002E2E5C2E2E5C4672656552544F535C7396
:1021400072635C7461736B732E6300004572726F0F
:10215000723A25732C25640D0A0000000248016BB9
:10216000491C0163704700006000002070B5134DEA
:10217000286B10B10120E86170BD0020E86128697A
:102180000F4EB0FA80F0C0F11F0000EB800456F84B
:10219000240028B940F6F6220AA111A0FEF7D8FEC5
:1021A00006EB840000F108024168496841609142F1
:1021B00001D149684160C868286070BD6000002096
:1021C000280100202E2E5C2E2E5C4672656552542E
:1021D0004F535C7372635C7461736B732E630000A6
:1021E0004572726F723A25732C25640D0A00000047
:1021F0001CB5304C20683049884205D140F2591254
:102200002EA139A0FEF7A4FE20682B49491E884262
:1022100005D14FF4AD7229A133A0FEF799FE364CDB
:1022200020780190FF20207020788DF800009DF824
:1022300000009DF8001000F0F000884205D040F248
:1022400073121EA128A0FEF783FE9DF800002B4A02
:1022500000F0500010700720906007E09068401E6A
:1022600090609DF8000040008DF800009DF800008F
:102270000006F3D4107A000200F4E0609060019848
:1022800020700C482030016841F470010160016841
:1022900041F070410160FFF757FD00205060FDF7ED
:1022A000AFFF1748016841F040410160FDF798FF1A
:1022B00000201CBD00ED00E071C20F412E2E5C2EEF
:1022C0002E5C4672656552544F535C706F72745C3D
:1022D000525644535C41524D5F434D34465C706FDF
:1022E00072742E63000000004572726F723A25739B
:1022F0002C25640D0A00000000E400E0C800002066
:1023000034EF00E070B50E46050005D14FF4C472FD
:102310000DA114A0FEF71CFE96B105FB06F0483097
:10232000FFF772FB040009D004F1480120464EB1CA
:102330000160C0E90F56012100F0D4F8204670BDBD
:102340000020ECE70060F4E72E2E5C2E2E5C467237
:10235000656552544F535C7372635C717565756546
:102360002E6300004572726F723A25732C25640D3E
:102370000A0000002DE9FF4F83B09B468A46040007
:102380004FF0000605D140F2DC424AA150A0FEF712
:10239000DFFDBAF1000F07D1206C28B140F2DD4219
:1023A00044A14BA0FEF7D4FD00F094FA38B905988B
:1023B00028B14FF49C623FA145A0FEF7C9FD4FF044
:1023C00000094FF08057DFF81881FFF701FCA56B7B
:1023D0001DB351462046E668FFF730F8BBF1000F09
:1023E00013D0E660606A50B104F1240000F0FEFAF8
:1023F00028B1C8F80070BFF34F8FBFF36F8FFFF79E
:1024000023FC012007B0BDE8F08F6D1EA563206995
:102410000028F4D004F11000E8E7059808B11EB1D7
:1024200006E0FFF711FC27E06846FFF721FE0126D2
:10243000FFF70AFCFFF792FEFFF7CAFB94F944008E
:10244000401C01D184F8449094F94500401C01D10E
:1024500084F84590FFF7F8FB05A9684600F0C6F937
:10246000002820460AD0FFF799FA00F00FFB20461B
:10247000FFF706F90028A8D00020C3E7FFF700F90E
:1024800090B104F124000599FFF792FD2046FFF773
:1024900085FA00F0FBFA002897D1C8F80070BFF366
:1024A0004F8FBFF36F8F90E72046FFF777FA00F06A
:1024B000EDFA8AE72E2E5C2E2E5C4672656552542C
:1024C0004F535C7372635C71756575652E630000B4
:1024D0004572726F723A25732C25640D0A00000054
:1024E00004ED00E070B50D46040005D140F21B126A
:1024F0001CA123A0FEF72CFDFFF76AFBD4E90F20F7
:10250000216802FB001161600021A1632168A160C4
:102510000A46D4E90F01401E00FB0121E16021467B
:102520004FF0FF3001F8440F487004F110004DB136
:10253000FFF71CFB04F12400FFF718FBFFF784FBF7
:10254000012070BD21690029F8D000F04FFA002861
:10255000F4D00F494FF080500860BFF34F8FBFF3A6
:102560006F8FEBE72E2E5C2E2E5C46726565525403
:102570004F535C7372635C71756575652E63000003
:102580004572726F723A25732C25640D0A000000A3
:1025900004ED00E02DE9FF4F83B01F468B46040099
:1025A0004FF0000605D140F2D9224DA153A0FEF70D
:1025B000CFFCBBF1000F07D1206C28B140F2DA222A
:1025C00047A14EA0FEF7C4FC022F08D1E06B012802
:1025D00005D040F2DB2242A148A0FEF7B9FC00F092
:1025E00079F938B9059828B140F2DE223CA143A020
:1025F000FEF7AEFC4FF0000A4FF08058DFF80C9168
:10260000FFF7E6FAA06BE16B884205D3022F03D0F7
:102610000598C8B1DEB11EE03A4659462046FEF79D
:1026200020FF616A19B104F1240000F0DFF928B13C
:10263000C9F80080BFF34F8FBFF36F8FFFF704FB24
:10264000012007B0BDE8F08FFFF7FEFA21E06846F1
:10265000FFF70EFD0126FFF7F7FAFFF77FFDFFF703
:10266000B7FA94F94400401C01D184F844A094F9CD
:102670004500401C01D184F845A0FFF7E5FA05A903
:10268000684600F0B3F830B12046FFF787F900F054
:10269000FDF90020D5E7FFF79BFAA06BE16B8842BC
:1026A00001D1012500E00025FFF7CEFA95B104F134
:1026B00010000599FFF77CFC2046FFF76FF900F04A
:1026C000E5F900289CD1C9F80080BFF34F8FBFF314
:1026D0006F8F95E72046FFF761F900F0D7F98FE794
:1026E0002E2E5C2E2E5C4672656552544F535C73E1
:1026F00072635C71756575652E6300004572726F5B
:10270000723A25732C25640D0A00000004ED00E0E8
:102710002DE9F0471F4690468946040005D140F256
:102720009F3227A12DA0FEF713FCB9F1000F07D1AE
:10273000206C28B14FF4687221A128A0FEF708FC94
:10274000022F08D1E06B012805D040F2A1321CA174
:1027500022A0FEF7FDFBFFF707FB5020EFF31186E9
:1027600080F31188BFF34F8FBFF36F8FA06BE16BC6
:10277000884206D3022F04D0002086F31188BDE8DA
:10278000F08794F945503A4649462046FEF769FEDF
:10279000681C04D06D1C84F845500120EDE7606A88
:1027A0000028FAD004F1240000F020F90028F4D029
:1027B000B8F1000FF1D00121C8F80010EDE70000DA
:1027C0002E2E5C2E2E5C4672656552544F535C7300
:1027D00072635C71756575652E6300004572726F7A
:1027E000723A25732C25640D0A00000070B50D4661
:1027F000040005D140F6CB3214A11BA0FEF7A8FBC4
:102800002DB940F6CC3211A117A0FEF7A1FBFFF7BE
:10281000DFF9194AD06829684B1C0FD02368126A67
:10282000934202D0626882420AD96268801A884262
:1028300006D2081A28602046FFF71AFC002400E0A0
:102840000124FFF701FA204670BD00002E2E5C2EF9
:102850002E5C4672656552544F535C7372635C74B0
:1028600061736B732E6300004572726F723A257349
:102870002C25640D0A000000600000202DE9FF5F98
:102880008346DDE90E87994616468A469000FFF793
:10289000BBF805001AD04C20FFF7B6F8040012D0A0
:1028A00025630021CDE90241CDE900874B46324640
:1028B00051465846FEF746FE2046FEF705FD01202C
:1028C00004B0BDE8F09F2846FFF7F0F94FF0FF3065
:1028D000F6E700000548416919B1006B18B1002006
:1028E0007047012070470220704700006000002000
:1028F0000148C06870470000600000202DE9F041E9
:102900002D4F0026386B40B1B869401CB861F8699A
:1029100000B101263046BDE8F081FD686D1CFD6008
:1029200011D1786B006828B140F6D91223A12AA0F2
:10293000FEF70EFB786BB96B7963B863386A401C9D
:102940003862FEF78BFFB86ADFF89C80854209D3B6
:10295000786B006880B1786BC068C4686068854235
:102960000DD2B8623868C06A00EB800158F82100C7
:102970000128CCD90126CAE74FF0FF30F1E7201D2E
:10298000FFF7E2F8A06A18B104F11800FFF7DCF8CD
:10299000E06A01213A6981401143396100EB80010D
:1029A00008EB8100211DFFF707F9E06A3968C96A61
:1029B0008842CDD30126CBE7600000202E2E5C2E6E
:1029C0002E5C4672656552544F535C7372635C743F
:1029D00061736B732E6300004572726F723A2573D8
:1029E0002C25640D0A000000280100202DE9F0418B
:1029F000C068C4682CB940F6613216A11CA0FEF76D
:102A0000A7FA04F118000746FFF79EF81C4D286B43
:102A1000012660B139461B48FFF7CEF8E06A296805
:102A2000C96A884213D90120EE61BDE8F081201DFA
:102A3000FFF78AF8E06A2A6906FA00F11143296172
:102A4000114900EB800001EB8000211DE4E700202C
:102A5000EBE700002E2E5C2E2E5C4672656552540C
:102A60004F535C7372635C7461736B732E6300000D
:102A70004572726F723A25732C25640D0A000000AE
:102A800060000020D0030020280100202DE9F0473D
:102A90002B4D00242746286B28B94FF4FD6229A14D
:102AA0002FA0FEF755FAFFF793F8286B401E286316
:102AB000286BE8BBA8682E490126C8B3A1F52A797E
:102AC0008846D8F80010E9B1D8F80C00C46804F1C1
:102AD0001800FFF739F8201DFFF736F8E06A2A6979
:102AE00006FA00F11143296100EB800109EB810036
:102AF000211DFFF761F8E06A2968C96A8842E0D3BE
:102B0000EE61DEE70CB1FEF7A9FEAC693CB1FFF760
:102B1000F5FE00B1EE61641EF9D10020A861E869FC
:102B200030B11449012738070860BFF34F8F00E028
:102B300001E0BFF36F8FFFF787F83846BDE8F087F5
:102B4000600000202E2E5C2E2E5C4672656552546D
:102B50004F535C7372635C7461736B732E6300001C
:102B60004572726F723A25732C25640D0A000000BD
:102B7000D003002004ED00E02DE9F0470746994618
:102B800016460D462820DDF820A0FEF73DFF040084
:102B900014D0B8464F46D1462DB94FF4C67209A19C
:102BA0000FA0FEF7D5F9FEF7F7FB04F11801C4F802
:102BB000008081E8E002201DFEF7E3FF2046BDE82B
:102BC000F08700002E2E5C2E2E5C467265655254F6
:102BD0004F535C7372635C74696D6572732E63002E
:102BE0004572726F723A25732C25640D0A0000003D
:102BF0001CB50024FEF7D0FB0C48006868B10B49F7
:102C00001F20091DCDE9000100234FF4807208A1A7
:102C10000948FFF733FE040005D140F2331207A143
:102C20000DA0FEF795F920461CBD00009C00002079
:102C3000546D722053766300751900082E2E5C2E99
:102C40002E5C4672656552544F535C7372635C74BC
:102C5000696D6572732E63004572726F723A2573E7
:102C60002C25640D0A0000002DE9FF47DDF830A097
:102C7000994690460D4606004FF0000705D14FF4E7
:102C8000D37212A118A0FEF763F91B4C206880B123
:102C9000CDE900580296062D11DAFFF71BFE022837
:102CA0004FF0000309D0002269462068FFF772FC4C
:102CB000074604B03846BDE8F0875246F4E70023E3
:102CC0004A466946FFF724FDF2E700002E2E5C2EEF
:102CD0002E5C4672656552544F535C7372635C742C
:102CE000696D6572732E63004572726F723A257357
:102CF0002C25640D0A0000009C0000201C2D0008FB
:102D000000000020D8000000700F0008F42D00081B
:102D1000D800002060970000800F00080095BA0AD4
:102D2000000000000000000001020304060708097B
:102D30000000000001020304010203040607080961
:102D40000000000000000000000000000000000083
:102D50000000000000000000000000000000000073
:102D60000000000000000000000000000000000063
:102D70000000000000000000000000000000000053
:102D80000000000000000000000000000000000043
:102D90000000000000000000000000000000000033
:102DA0000000000000000000000000000000000023
:102DB0000000000000000000000000000000000013
:102DC0000000000000000000000000000000000003
:102DD00000000000000000000000000000000000F3
:102DE0000000000000000000AAAAAAAA000000003B
:042DF00000000000DF
:04000005080001AD41
:00000001FF
