:020000040800F2
:10000000989700207902000817090008D90600080F
:1000100015090008C1030008650E00080000000073
:10002000000000000000000000000000C101000806
:10003000C303000800000000150200086D0B000853
:10004000930200089302000893020008930200083C
:10005000930200089302000893020008930200082C
:10006000930200089D040008930200089302000810
:10007000930200089302000893020008930200080C
:1000800093020008930200089302000893020008FC
:1000900093020008930200089302000893020008EC
:1000A00093020008930200089302000893020008DC
:1000B00093020008930200089302000893020008CC
:1000C00093020008930200089302000893020008BC
:1000D00093020008930200089302000893020008AC
:1000E000930200089302000893020008930200089C
:1000F000930200089302000893020008930200088C
:10010000930200089302000893020008930200087B
:100110009302000893020008DD0B00089302000818
:10012000930200089302000893020008930200085B
:10013000930200089302000893020008930200084B
:10014000930200089302000893020008930200083B
:10015000930200089302000893020008930200082B
:10016000930200089302000893020008930200081B
:10017000930200089302000893020008930200080B
:1001800093020008930200089302000893020008FB
:1001900093020008930200089302000893020008EB
:1001A000930200089302000893020008DFF80CD0C5
:1001B00000F08AF800480047851000089897002052
:1001C0002A4B19680868B0E8F04F80F30988BFF33C
:1001D0006F8F4FF0000080F311887047000000001F
:1001E00006480068006880F3088862B661B6BFF30D
:1001F0004F8FBFF36F8F00DF00BF00BF08ED00E03F
:10020000DFF80C00016841F470010160704700BF25
:1002100088ED00E0EFF30980BFF36F8F134B1A688E
:100220001EF0100F08BF20ED108A20E9F04F10607B
:1002300008B44FF0500080F31188BFF34F8FBFF325
:100240006F8F01F0E7FC4FF0000080F3118808BCCD
:1002500019680868B0E8F04F1EF0100F08BFB0EC46
:10026000108A80F30988BFF36F8F70474C0000201D
:10027000EFF30580704700000648804706480047B6
:10028000FEE7FEE7FEE7FEE7FEE7FEE7FEE7FEE746
:10029000FEE7FEE7810B0008AD01000830B50B4614
:1002A000014600202022012409E021FA02F59D42A6
:1002B00005D303FA02F5491B04FA02F52844151E7A
:1002C000A2F10102F1DC30BD064C074D06E0E0680A
:1002D00040F0010394E8070098471034AC42F6D38D
:1002E000FFF768FF28200008482000087CB501F0CF
:1002F0000FFA022518482C02CDE9005000232246AF
:1003000016A1194801F068FD134800230838CDE90B
:100310000050224615A1184801F05EFD012802D1C7
:1003200016A000F0A1FD0C490320091FCDE9000132
:100330000023224618A11B4801F04EFD012802D1DE
:1003400019A000F091FD04481038406801F0E6FA69
:10035000BDE87C4001F018BA3400002049724461C5
:100360005F5461736B00000081070008546573746B
:100370005F5461736B0000002D0D0008B4B4BDA87C
:10038000546573745F5461736BC8CECEF1B3C9B951
:10039000A6210D0A000000004B45595F5461736BA4
:1003A00000000000B9070008B4B4BDA84B45595F70
:1003B0005461736BC8CECEF1B3C9B9A6210D0A0042
:1003C000FEE77047F0B5012187B0084600F0E0FA7B
:1003D0000121102000F0F4FA012500248DF80640D8
:1003E0008DF8075002266802254F8DF805600090B1
:1003F0008DF804606946384600F004F9A8020090C0
:100400008DF804606946384600F0FCF807220A219E
:10041000384600F033F907220921384600F02EF95A
:100420004FF4E130ADF80C400290ADF80E40ADF85D
:100430001040ADF814400C20124CADF8120002A987
:10044000204600F0B5FC4FF4A06000F097FA25209C
:100450008DF818008DF819508DF81A508DF81B5032
:1004600006A800F059FA012240F22551204600F07A
:1004700086FC0121204600F071FC07B0F0BD0000B1
:10048000000002400010014001B5034800990160DE
:1004900001680029FCD108BD3C0000202DE9F84F7F
:1004A00000252C465021EFF3118081F31188BFF312
:1004B0004F8FBFF36F8F8146082000F061F8E0B3E3
:1004C000264E274FDFF89CA04FF0000B4FF001089D
:1004D0000821254800F0E2F80128F9D100F0E6F8FB
:1004E000FA281DD2A0F1C801322901D201252AE043
:1004F000A0F10A01282901D2002422E0A0F1320152
:10050000322901D201241CE06438642819D8174923
:1005100081F800803078401C30703878401C38708A
:10052000009838B112494FF080500860BFF34F8FE8
:10053000BFF36F8F082000F01DF889F31188BDE824
:10054000F88F012DC4D1DAF8000004EB4000CAF89E
:10055000000086F800B087F80080B9E74800002066
:10056000380000204400002000100240400000201D
:1005700004ED00E00149086070470000143C0140B0
:10058000034A0146002012680A4200D00120704749
:10059000143C014030B51A4A8379016853B313689B
:1005A0008B431360111D0B680468A3430B60017932
:1005B00011440B68046823430B60114B083319681E
:1005C0000468A14319601C1D21680568A9432160C6
:1005D0004179102905D011440A68006802430A6075
:1005E00030BD196802681143196021680068014331
:1005F000216030BD0079104402688A43026030BD3A
:10060000003C0140F0B5002201274FF0030C0B68BD
:1006100007FA02F52B40AB422CD1066853000CFAC6
:1006200003F4A64306600E79D0F800E09E4046EA47
:100630000E0606600E79012E01D0022E12D18668B8
:10064000A64386604E79D0F808E09E4046EA0E0642
:1006500086604668AE43466045688E799640B6B27D
:1006600035434560C568A543C560CC799C40C368E7
:100670001C43C460521C102AC9D3F0BD4B07DB0ECB
:100680009A40C90810B500EB8100016A0F249C4014
:10069000A1430162016A1143016210BD02460020BC
:1006A00012690A4200D001207047000070B5002492
:1006B000084D06E0641CE4B20220FFF7E5FEFA2CC8
:1006C00005D008212846FFF7E9FF0028F2D120468F
:1006D00070BD000000100240FEE7000070B586B05B
:1006E0000121102000F054F90121880300F068F97D
:1006F0004FF4407000F042F909208DF80800012500
:100700008DF8095000248DF80A408DF80B5002A88E
:1007100000F002F908268DF8104003968DF813407A
:1007200003A90A48FFF76EFF0321042000F09EF999
:100730008DF804400C208DF8050000968DF80650C9
:100740006846FFF727FF06B070BD000000100240AA
:1007500030B50A4C0025616825700B0C0A0EDB438E
:10076000C1F30720DBB2C9B2934204D11AB9C9431D
:10077000C9B2814200D0002030BD000040000020FE
:10078000064D074C28780128FCD1FFF7E1FF2070C7
:10079000014604A000F068FBF4E7000040000020E0
:1007A000240000200D0A206B65795F76616C3D2581
:1007B00064200D0A00000000134D144F144C4FF438
:1007C00000560121284600F065F8012808D111A043
:1007D00000F04AFBA06801F0A9F912A000F044FB68
:1007E0003146384600F056F8012808D112A000F032
:1007F0003BFBA06801F0FCF813A000F035FB1420CF
:1008000001F052F8DDE7000000000240000802405D
:1008100024000020B9D2C6F054657374C8CECEF15E
:10082000A3A10A00B9D2C6F054657374C8CECEF144
:10083000B3C9B9A6A3A10A00BBD6B8B454657374F2
:10084000C8CECEF1A3A10A00BBD6B8B45465737468
:10085000C8CECEF1B3C9B9A6A3A10A001CB5012127
:10086000052000F095F80120009000208DF804008C
:10087000074C8DF8070069462046FFF7C3FE4FF48A
:100880000051009169462046FFF7BCFE1CBD0000E8
:100890000008024070B50C460546FFF7FFFE012830
:1008A00001D0002070BD21462846FFF7F7FE012841
:1008B000F9D0012070BD00002DE9FC41012180200C
:1008C00000F066F801208DF8040000218DF8061074
:1008D0008DF807000E4F4FF480648DF805100094DA
:1008E00069463846FFF78EFE650069463846009532
:1008F000FFF788FEA600694638460096FFF782FE9D
:1009000003481830048005800680BDE8FC810000A3
:10091000001C0240FEE7704730B50F23C278017813
:100920000125FAB1144A126801F1E02102F4E062F3
:10093000C2F5E062C2F30722C2F10404D340427858
:10094000A24084781C401443220181F800240078DE
:1009500000F01F018D404009800000F1E020C0F848
:10096000005130BD01F01F0085404809800000F1B2
:10097000E020C0F8805130BD0CED00E00249084392
:1009800002490860704700000000FA050CED00E025
:10099000044A0029116801D0014300E0814311603D
:1009A0007047000030380240044A0029116801D025
:1009B000014300E08143116070470000403802406D
:1009C000044A0029116801D0014300E0814311600D
:1009D000704700004438024070B5204B1968204C25
:1009E00011F00C0104D01F4E042903D0082903D0B4
:1009F00004601BE0066019E0184A121F1168C1F379
:100A00008055116801F03F0115B1B6FBF1F101E02D
:100A1000B4FBF1F114681268C4F388146143C2F3A3
:100A20000142521C5200B1FBF2F1016019680F2221
:100A300002EA11110C4A545C0168E14041601C68F3
:100A4000072505EA9424145D21FA04F484601B68E8
:100A500005EA5333D25CD140C16070BD0838024012
:100A60000024F40040787D011400002010B58A07AE
:100A700021F003040849120F21440F23D1F808483C
:100A800093409C43C1F80848D1F80838904003438C
:100A9000C1F8083810BD0000003001401CB500212D
:100AA0002E4A00910191106840F4803010604FF49C
:100AB000A043106800F4003001900098401C0090A2
:100AC000019810B900989842F3D11068800342D57C
:100AD0000120019021484030016841F080510160BF
:100AE0001F49086840F4404008601C48083003680B
:100AF0000360036843F400430360036843F4A053B6
:100B00000360041F174B2360136843F08073136066
:100B100013689B01FCD50A6842F480320A604A6877
:100B2000D203FCD50A6842F400320A604A68920394
:100B3000FCD50D4A40F205711160016821F00301F6
:100B40000160016841F0020101600168C1F38101A7
:100B50000229FAD11CBD01911CBD000000380240E1
:100B600000700040195A4007003C024010B501F0E7
:100B70005FF9012803D0BDE8104001F017B910BD9E
:100B8000124810B5016841F4700101601048016815
:100B900041F0010101600E4A002108321160026833
:100BA0000C4B1A400260031D0B4A1A60026822F4C3
:100BB0008022026006480C300160FFF76FFF034996
:100BC0004FF000608039086010BD000088ED00E043
:100BD00000380240FFFFF6FE1030002410B5084C2C
:100BE0000121204600F01EF8002807D000F0ACF8E4
:100BF0002046BDE81040012100F007B810BD0000FC
:100C000000100040C94301827047C9430182704708
:100C10000029018802D041F0010101E021F0010129
:100C20000180704702460020138A92890B4202EA33
:100C3000010202D0002A00D001207047002A8289D8
:100C400001D00A4300E08A438281704730B50288B0
:100C5000164C174DA0420DD0A8420BD0B0F1804FDA
:100C600008D0144B984205D0134B984202D0134B36
:100C7000984203D122F070034A881A43104B9842DD
:100C800006D0104B984203D022F440730A891A43CD
:100C900002804A68C2620A880285A04201D0A84246
:100CA00001D1897A01860121818230BD0000014095
:100CB000000401400004004000080040000C004017
:100CC00000100040001400403EB54FF44070FFF7A4
:100CD00055FE36208DF8000000208DF801008DF8BB
:100CE000020001208DF803006846FFF715FE012180
:100CF0001020FFF759FE0920019059200A4CADF849
:100D0000000069462046FFF7A1FF01212046FFF7BA
:100D100079FF012211462046FFF790FF012120466E
:100D2000FFF776FF3EBD000000100040054C4FF479
:100D30007A75206880F400612160284600F0B4FDD7
:100D4000F7E70000141C024003480168002902D0A4
:100D50000168491E016070473C000020002981891C
:100D600002D041F4005101E021F40051818170472B
:100D70000246002012880A4200D00120704710B5B8
:100D8000C1F3421301F01F040121A140012B07D040
:100D9000022B07D01430002A026805D00A4304E071
:100DA0000C30F8E71030F6E78A43026010BD00000F
:100DB0007FB50446008A0D46C98820F4405001439F
:100DC0002182A08941F20C618843A9882A891143B4
:100DD0006A8902431143A181A08A20F44071A88945
:100DE0000843A0826846FFF7F7FD1A48844202D004
:100DF0001948844201D1039800E00298A1890904AE
:100E000000EBC00101EB0010296801D5490000E0AA
:100E10008900B0FBF1F06422B0FBF2F109010B098B
:100E20006FF018056B4300EB8300A3891D044FF09E
:100E3000320306D503EBC000B0FBF2F000F0070070
:100E400005E003EB0010B0FBF2F000F00F000843E8
:100E500020817FBD0010014000140140C1F3080152
:100E600081807047FEE700000FB4054B10B503A961
:100E7000044A029800F018F810BC5DF814FB00005A
:100E800061100008AC00002002E008C8121F08C171
:100E9000002AFAD170477047002001E001C1121FFB
:100EA000002AFBD1704700002DE9FF4F8BB09A4616
:100EB0000F460546002606E025280BD052460D9920
:100EC00090476D1C761C28780028F5D10FB030466D
:100ED000BDE8F08F0024A0460122604900E00443F1
:100EE00015F8013F203B02FA03F00842F7D12878B9
:100EF0002E2817D115F8010F44F004042A280ED02B
:100F00006FF02F022878A0F1300109290AD808EBE8
:100F1000880102EB410100EB01086D1CF2E757F874
:100F2000048B6D1C287869283ED006DC0028CDD0C3
:100F300063280BD0642804D136E0732810D07528BC
:100F40004BD052460D999047761C85E017F8040B5C
:100F50008DF8000000208DF80100E946012003E033
:100F600057F8049B4FF0FF3061074FF0000401D4A5
:100F70000AE0641C44450DDA8442FADB19F80410D7
:100F80000029F6D106E0641C8442FCDB19F8041049
:100F90000029F8D1264404E019F8010B52460D99B6
:100FA0009047641EF8D257E001CF4FF00A0B00289B
:100FB00002DA40422D2102E0210504D52B218DF8D3
:100FC0002410012103E0E10705D02021F7E70DF10E
:100FD000200908910CE00021F9E701CF4FF00A0B3E
:100FE000F9E75946FFF75AF901F1300209F8012DE6
:100FF0000028F6D1ADEB090000F1200B600701D409
:101000004FF00108D84502DDA8EB0B0000E00020FE
:101010008046002406E009A85246005D0D999047DD
:10102000641C761C08988442F5DB04E030205246AC
:101030000D999047761CB8F10001A8F10108F5DC84
:1010400005E019F8010B52460D999047761CBBF14B
:101050000001ABF1010BF4DC6D1C34E70928010041
:1010600070B5074D0446C1B22846FFF7F7FE802150
:101070002846FFF77DFE0028F9D0204670BD00000D
:10108000001001401CB54FF44070FFF777FCFFF7EC
:1010900013FCFFF797F9FFF7E1FBFFF715FEFFF7EA
:1010A0001DFB0CA0FFF7E0FE18A0FFF7DDFE2049B6
:1010B0000120CDE90001420200231EA1214800F0D9
:1010C0008BFE012802D04FF0FF301CBD00F0E4FC85
:1010D000FEE70000D5E2CAC7D2BBB8F65BD2B0BB10
:1010E000F05D2D53544D3332C8ABCFB5C1D0BFAA3C
:1010F000B7A2B0E52D4672656552544F53B9CCBCCA
:10110000FEBFE2C0FDB3CCA3A10A0A00B0B4CFC2B7
:101110004B455931B9D2C6F0C8CECEF1A3ACB0B46C
:10112000CFC24B455932BBD6B8B4C8CECEF10A00B7
:10113000280000204170705461736B4372656174C4
:1011400065000000ED0200082DE9F041184E0F4641
:101150000446F5683068001D00F096FA38B930682A
:1011600090F82C1001208840316981433161601C66
:1011700007D137B13168BDE8F0410E48091D00F0D4
:10118000BBBA30682C44AC424460316805D2B06BC5
:10119000BDE8F041091D00F097BA706B091D00F021
:1011A00093FAB06A844200D2B462BDE8F0810000D4
:1011B0004C000020800300202DE9F041054600F09E
:1011C000A7FA2D4EB068401CB06030682B4F10B1AC
:1011D000706930B32BE03560B068012827D1002456
:1011E00004EB840007EB800000F060FA641C202C04
:1011F000F6D3234800F05AFA2148143000F056FA8A
:101200001F48283000F052FA1D483C3000F04EFADA
:101210001B48503000F04AFA194870631430B0632C
:1012200005E03068E96AC06A884200D83560706AB3
:101230000121401C7062E86A3269814011433161CA
:1012400000EB800007EB8000291D00F055FA00F04C
:101250009BFA706900280CD03068E96AC06A88423D
:1012600007D208494FF080500860BFF34F8FBFF39B
:101270006F8FBDE8F08100004C000020B00000201E
:101280003003002004ED00E070B5124E124D1CE05A
:1012900000F0B8FC306820B1002400F04FFEA4B983
:1012A00001E00124F9E700F033FAF068C468201D7A
:1012B00000F0EAF9A868401EA8606868401E6860EF
:1012C00000F062FA204600F009F868680028DFD1D3
:1012D00070BD00006C0300204C00002010B50446D7
:1012E000006B00F083FA2046BDE8104000F07EBAA3
:1012F00010484FF41041420706D0C01D0D4920F0A0
:101300000700411AC1F510410B4A00230144C2E90C
:1013100000030839103A21F0070111604B600B609F
:101320000B1AC0E9001393604FF000405360D06087
:10133000704700009403002098000020074E4FF0F3
:101340008054074DFFF7A0FF30680128FAD92C60C0
:10135000BFF34F8FBFF36F8FF4E70000B0000020A2
:1013600004ED00E02DE9F047DDE909840E468246F0
:101370006FF00301206B01EB82010844089D20F00F
:1013800007079946780705D040F22B3218A11FA015
:10139000FFF76AFD00202218315C82F83410315CBE
:1013A00011B1401C1028F6D3002684F84360202D8C
:1013B00000D31F25201DE56200F083F904F1180019
:1013C00000F07FF92461C5F120006462A0616664C9
:1013D00084F848604A465146384600F03FF920609C
:1013E000B8F1000F01D0C8F80040BDE8F087000058
:1013F0002E2E5C2E2E5C4672656552544F535C73E4
:1014000072635C7461736B732E6300004572726F5C
:10141000723A25732C25640D0A00000030B511497D
:1014200000E011460A688242FBD34B685C18844294
:1014300003D1406818444860084643681C18944229
:1014400009D1084C103C2468A24209D052681A44C1
:1014500042600A6812680260814200D0086030BDB4
:101460000460F9E7980000200648416B096829B13B
:10147000416BC968C9684968816270474FF0FF31A4
:10148000FAE700004C00002008484068401C05D0E6
:1014900040F20F1206A111A0FFF7E6FC502080F3E6
:1014A0001188BFF34F8FBFF36F8FFEE7A0000020BE
:1014B0002E2E5C2E2E5C4672656552544F535C7026
:1014C0006F72745C525644535C41524D5F434D34CD
:1014D000465C706F72742E63000000004572726F7C
:1014E000723A25732C25640D0A00000070B50025A2
:1014F000040005D140F2816207A10EA0FFF7B4FC01
:1015000010496069884205D1A06A2839884201D013
:1015100000B90125284670BD2E2E5C2E2E5C467229
:10152000656552544F535C7372635C7461736B7383
:101530002E6300004572726F723A25732C25640D7C
:101540000A000000800300202DE9F0410546002636
:1015500000F058FB324F386808B9FFF7C9FEF86849
:1015600005424FD1002D4DD0083568070BD005F04E
:101570000700C0F108000544680704D0BF2229A174
:1015800032A0FFF771FC002D3CD07868854239D835
:10159000234910310846046801E02146044660688A
:1015A000A84202D220680028F7D13868B8468442A1
:1015B00028D00E682068086060680836401B102834
:1015C0000ED96719780704D0EC2216A11FA0FFF7E7
:1015D0004BFC6068401B786038466560FFF71EFF73
:1015E0006168D8F804004246401AC8F80400D8F8E8
:1015F0000830984200D29060D8F80C0001430020D7
:10160000C4E9000100F09AFC700705D04FF496720F
:1016100004A10EA0FFF728FC3046BDE8F0810000D1
:10162000880000202E2E5C2E2E5C4672656552547A
:101630004F535C706F72745C4D656D4D616E675C8D
:10164000686561705F342E63000000004572726F40
:10165000723A25732C25640D0A00000010B5031F93
:101660004FF080741C601B1F21F001011960191FCD
:10167000044B0B6014390A60091F6FF002024438F2
:101680000A6010BD89140008D0E9013201699A602E
:10169000D0E901235A604A68824201D182684A60D7
:1016A000002202610868401E0860704700F10801CE
:1016B0004FF0FF32C0E90112C160016100210160F9
:1016C000704700210161704730B50C68621C02D080
:1016D00000F1080202E0026904E01A4653681D683E
:1016E000A542FAD953684B6099608A6051600861DD
:1016F0000168491C016030BD42684A6093688B6094
:1017000093685960916008610168491C01607047E5
:10171000502080F31188BFF34F8FBFF36F8F0949BB
:101720004868401C486001280AD10748006810F04A
:10173000FF0F05D040F2B91204A10FA0FFF794BB30
:1017400070470000A000002004ED00E02E2E5C2E6B
:101750002E5C4672656552544F535C706F72745CB8
:10176000525644535C41524D5F434D34465C706F5A
:1017700072742E63000000004572726F723A257316
:101780002C25640D0A00000010B5084C606828B9CB
:101790004FF4E07206A111A0FFF766FB6068401EDF
:1017A000606001D180F3118810BD0000A00000200E
:1017B0002E2E5C2E2E5C4672656552544F535C7023
:1017C0006F72745C525644535C41524D5F434D34CA
:1017D000465C706F72742E63000000004572726F79
:1017E000723A25732C25640D0A00000070B500289C
:1017F0002AD0164DA0F108046068E968084205D1B6
:101800004FF4A07212A11CA0FFF72EFB206828B194
:1018100040F241120EA118A0FFF726FB6068E968AC
:10182000084211D02268002A0ED18843606000F07F
:10183000E9F960686968084468602046FFF7EEFDD2
:10184000BDE8704000F07ABB70BD00008800002049
:101850002E2E5C2E2E5C4672656552544F535C7082
:101860006F72745C4D656D4D616E675C686561702B
:101870005F342E63000000004572726F723A257368
:101880002C25640D0A00000006484FF47A710068A8
:10189000B0FBF1F14FF0E020491E416107210161E9
:1018A000704700000000002010B5040012D00E495F
:1018B000096B29B140F2CF420CA113A0FFF7D4FA73
:1018C00000F0A0F900212046FFF73EFC00F036FBB7
:1018D000002807D110494FF080500860BFF34F8FA8
:1018E000BFF36F8F10BD00004C0000202E2E5C2E29
:1018F0002E5C4672656552544F535C7372635C7420
:1019000061736B732E6300004572726F723A2573B8
:101910002C25640D0A00000004ED00E070B50446BB
:10192000FFF7F6FE234D04B92C68201DFFF7ACFE2F
:1019300058B9E06A204A00EB800152F8211021B921
:1019400001218140286988432861A06A18B104F107
:101950001800FFF799FE686A401C68622868844294
:1019600007D1211D1548FFF7C7FE6868401C686055
:1019700007E0A868401EA8602046FFF7AFFCFFF70D
:1019800073FDFFF701FF6869002812D028688442C0
:101990000FD1286B28B140F2654209A10FA0FFF7D3
:1019A00063FA12494FF080500860BFF34F8FBFF3C6
:1019B0006F8F70BD4C000020B00000206C03002031
:1019C0002E2E5C2E2E5C4672656552544F535C730E
:1019D00072635C7461736B732E6300004572726F87
:1019E000723A25732C25640D0A00000004ED00E016
:1019F00070B504002BD01A4D286884422FD0FFF711
:101A000087FE2046FFF772FDE8B1201DFFF73CFE80
:101A1000E06A01212A69814011432961114900EBE3
:101A2000800001EB8000211DFFF766FEE06A296857
:101A3000C96A884207D30C494FF080500860BFF351
:101A40004F8FBFF36F8FBDE87040FFF79DBEBDE8BD
:101A5000704040F2AB6205A10BA0FFF705BA70BD64
:101A60004C000020B000002004ED00E02E2E5C2E83
:101A70002E5C4672656552544F535C7372635C749E
:101A800061736B732E6300004572726F723A257337
:101A90002C25640D0A0000001CB515480024CDE972
:101AA00000402346802213A1144800F095F9012834
:101AB0000AD0401C1BD102B040F28472BDE8104035
:101AC0000FA116A0FFF7D0B9502080F31188BFF303
:101AD0004F8FBFF36F8F06484FF0FF312C38816274
:101AE00001214161C460BDE81C4000F0D5B81CBDB7
:101AF0007800002049444C45000000003D130008D8
:101B00002E2E5C2E2E5C4672656552544F535C73CC
:101B100072635C7461736B732E6300004572726F45
:101B2000723A25732C25640D0A00000070B5044636
:101B3000FFF7EEFD244D04B92C68201DFFF7A4FD2E
:101B400058B9E06A214A00EB800152F8211021B90E
:101B500001218140286988432861A06A18B104F1F5
:101B60001800FFF791FD211D1948FFF7C5FDFFF78C
:101B70000BFE686928B1FFF7CBFDFFF775FCFFF797
:101B800003FE2868844211D1686980B1286B28B1AE
:101B900040F257620FA116A0FFF766F918494FF0FF
:101BA00080500860BFF34F8FBFF36F8F70BD084840
:101BB000A9680068884202D10020286070BDBDE895
:101BC000704000F027B800004C000020B00000205A
:101BD000800300202E2E5C2E2E5C467265655254CA
:101BE0004F535C7372635C7461736B732E6300009C
:101BF0004572726F723A25732C25640D0A0000003D
:101C000004ED00E00248016B491C016370470000CD
:101C10004C00002070B5134D286B10B10120E86115
:101C200070BD0020E86128690F4EB0FA80F0C0F165
:101C30001F0000EB800456F8240028B940F6F62275
:101C40000AA111A0FFF710F906EB840000F10802C9
:101C5000416849684160914201D149684160C86862
:101C6000286070BD4C000020B00000202E2E5C2E9D
:101C70002E5C4672656552544F535C7372635C749C
:101C800061736B732E6300004572726F723A257335
:101C90002C25640D0A0000001CB5304C206830492A
:101CA000884205D140F259122EA139A0FFF7DCF885
:101CB00020682B49491E884205D14FF4AD7229A1F5
:101CC00033A0FFF7D1F8364C20780190FF20207028
:101CD00020788DF800009DF800009DF8001000F0BD
:101CE000F000884205D040F273121EA128A0FFF731
:101CF000BBF89DF800002B4A00F050001070072040
:101D0000906007E09068401E90609DF800004000E1
:101D10008DF800009DF800000006F3D4107A000250
:101D200000F4E0609060019820700C482030016859
:101D300041F470010160016841F070410160FFF7FA
:101D4000A3FD00205060FEF75BFA1748016841F0E0
:101D500040410160FEF744FA00201CBD00ED00E0A8
:101D600071C20F412E2E5C2E2E5C46726565525458
:101D70004F535C706F72745C525644535C41524DC9
:101D80005F434D34465C706F72742E630000000038
:101D90004572726F723A25732C25640D0A0000009B
:101DA00000E400E0A000002034EF00E010B5502077
:101DB00080F31188BFF34F8FBFF36F8F00F046F8A9
:101DC00018B104494FF080500860002080F311885A
:101DD00010BD000004ED00E02DE9FF5F8346DDE962
:101DE0000E87994616468A469000FFF7ADFB050020
:101DF0001AD04C20FFF7A8FB040012D02563002165
:101E0000CDE90241CDE900874B463246514658465E
:101E1000FFF7A8FA2046FFF7CFF9012004B0BDE88C
:101E2000F09F2846FFF7E2FC4FF0FF30F6E7000096
:101E30000548416919B1006B18B1002070470120B5
:101E400070470220704700004C0000202DE9F0414F
:101E50002D4F0026386B40B1B869401CB861F86955
:101E600000B101263046BDE8F081FD686D1CFD60C3
:101E700011D1786B006828B140F6D91223A12AA0AD
:101E8000FEF7F2FF786BB96B7963B863386A401C70
:101E90003862FFF7E9FAB86ADFF89C80854209D317
:101EA000786B006880B1786BC068C46860688542F0
:101EB0000DD2B8623868C06A00EB800158F8210082
:101EC0000128CCD90126CAE74FF0FF30F1E7201DE9
:101ED000FFF7DAFBA06A18B104F11800FFF7D4FB92
:101EE000E06A01213A6981401143396100EB8001C8
:101EF00008EB8100211DFFF7FFFBE06A3968C96A22
:101F00008842CDD30126CBE74C0000202E2E5C2E3C
:101F10002E5C4672656552544F535C7372635C74F9
:101F200061736B732E6300004572726F723A257392
:101F30002C25640D0A000000B00000202DE9F047B8
:101F40002B4D00242746286B28B94FF4FD6229A1A8
:101F50002FA0FEF789FFFFF7DBFB286B401E2863ED
:101F6000286BE8BBA8682E490126C8B3A1F52A79D9
:101F70008846D8F80010E9B1D8F80C00C46804F11C
:101F80001800FFF781FB201DFFF77EFBE06A2A693E
:101F900006FA00F11143296100EB800109EB810091
:101FA000211DFFF7A9FBE06A2968C96A8842E0D3CE
:101FB000EE61DEE70CB1FFF757FAAC693CB1FFF711
:101FC00045FF00B1EE61641EF9D10020A861E86907
:101FD00030B11449012738070860BFF34F8F00E084
:101FE00001E0BFF36F8FFFF7CFFB3846BDE8F08706
:101FF0004C0000202E2E5C2E2E5C467265655254DD
:102000004F535C7372635C7461736B732E63000077
:102010004572726F723A25732C25640D0A00000018
:102020005803002004ED00E04820000800000020D4
:10203000B0000000880E0008F8200008B000002062
:10204000E8960000980E00080095BA0A000000000B
:102050000000000001020304060708090000000058
:10206000010203040102030406070809000000003E
:102070000000000000000000000000000000000060
:102080000000000000000000000000000000000050
:102090000000000000000000000000000000000040
:1020A0000000000000000000000000000000000030
:1020B0000000000000000000000000000000000020
:1020C0000000000000000000000000000000000010
:1020D0000000000000000000000000000000000000
:1020E000000000000000000000000000AAAAAAAA48
:0820F0000000000000000000E8
:04000005080001AD41
:00000001FF
