:020000040800F2
:1000000038040020C10100087906000871050008C5
:100010007506000835020008B50B00080000000056
:100020000000000000000000000000005D08000863
:10003000390200080000000031070008C10900086B
:10004000DB010008DB010008DB010008DB01000820
:10005000DB010008DB010008DB010008DB01000810
:10006000DB010008ED020008DB010008DB010008ED
:10007000DB010008DB010008DB010008DB010008F0
:10008000DB010008DB010008DB010008DB010008E0
:10009000DB010008DB010008DB010008DB010008D0
:1000A000DB010008DB010008DB010008DB010008C0
:1000B000DB010008DB010008DB010008DB010008B0
:1000C000DB010008DB010008DB010008DB010008A0
:1000D000DB010008DB010008DB010008DB01000890
:1000E000DB010008DB010008DB010008DB01000880
:1000F000DB010008DB010008DB010008DB01000870
:10010000DB010008DB010008DB010008DB0100085F
:10011000DB010008DB010008DB010008DB0100084F
:10012000DB010008DB010008DB010008DB0100083F
:10013000DB010008DB010008DB010008DB0100082F
:10014000DB010008DB010008DB010008DB0100081F
:10015000DB010008DB010008DB010008DB0100080F
:10016000DB010008DB010008DB010008DB010008FF
:10017000DB010008DB010008DB010008DB010008EF
:10018000DB010008DB010008DB010008DB010008DF
:10019000DB010008DB010008DB010008DB010008CF
:1001A000DB010008DB010008DB010008DFF80CD0F0
:1001B00000F02EF800480047710D000838040020B8
:1001C0000648804706480047FEE7FEE7FEE7FEE7F1
:1001D000FEE7FEE7FEE7FEE7FEE7FEE7310A00087E
:1001E000AD01000830B50B46014600202022012455
:1001F00009E021FA02F59D4205D303FA02F5491BF5
:1002000004FA02F52844151EA2F10102F1DC30BD0A
:10021000064C074D06E0E06840F0010394E8070053
:1002200098471034AC42F6D3FFF7C4FF5C120008C5
:100230007C12000800BFFEE77047000000B587B0E1
:100240000121084600F076FA0121102000F082FA20
:1002500007220A211D4800F049F9072209211B48FD
:1002600000F044F900208DF81A0001208DF81B00E1
:1002700002208DF818000002059002208DF8190068
:1002800005A9124800F0EAF802208DF81800400293
:10029000059005A90D4800F0E1F84FF4E130019018
:1002A0000020ADF80800ADF80A00ADF80C00ADF87C
:1002B00010000C20ADF80E0001A9054800F00CFC60
:1002C0000121034800F0EEFB07B000BD0000024032
:1002D0000010014001B504490098086000BF0248C1
:1002E00000680028FBD108BD2800002070B500245C
:1002F00000250026082000F05BF8002846D040E0EA
:100300000821234800F015F901283AD100F01AF924
:100310000446FA2C00DB35E0C82C03DBFA2C01DAAA
:1003200001251DE00A2C03DB322C01DA002617E040
:10033000322C03DB642C01DA012611E0642C0FDB84
:10034000C82C0DDC01201349087013480078401CAC
:100350001149087011480078401C1049087011E0DC
:10036000012D0ED10E48006840000D490860084676
:1003700000683044086000200749087001200749E0
:100380000870BDE700BF082000F00CF870BD000049
:100390000010024031000020300000202400002026
:1003A0002C0000200149086070470000143C014007
:1003B00001460020034A12680A400AB1012000E009
:1003C00000207047143C0140002123498279002A13
:1003D0003AD00A46126803689A430B461A600A1D0F
:1003E000126803689A430B1D1A60027911440A6867
:1003F00003681A430A60184A0832126803689A436D
:10040000154B08331A601A1D126803689A43124B81
:100410000C331A604279102A0ED11A1F1268036831
:100420001A430D4B08331A601A1D126803681A43E9
:10043000094B0C331A600DE00749427911440A68F0
:1004400003681A430A6005E0027911440A680368E8
:100450009A430A6070470000003C0140F0B50A462C
:1004600000210023002400BF3DE0012505FA01F32F
:10047000156805EA03049C4234D105684F00032641
:10048000BE40B543056015794E00B540066835435A
:1004900005601579012D02D01579022D16D18568D8
:1004A0004F000326BE40B543856055794E00B540E8
:1004B000866835438560456801268E40B5434560B2
:1004C000456896798E40B6B235434560C5684F00A1
:1004D0000326BE40B543C560D5794E00B540C66819
:1004E0003543C560491C1029BFD3F0BDF0B50023CA
:1004F00000244D07ED0E02FA05F3CE1000F12005A1
:1005000055F826504E07F70E0F26BE40B543CF10C4
:1005100000F1200646F82750CE1000F1200555F8CE
:10052000265045EA0304CE1000F1200545F8264088
:10053000F0BD0246002013690B400BB1012000E022
:100540000020704710B5002408E0601CC4B20220EF
:10055000FFF7C0FEFA2C01D1204610BD0821034848
:10056000FFF7E7FF0028F0D12046F6E70010024031
:1005700000BFFEE71FB50121102000F0DBF80121CC
:10058000880300F0E7F800F078F8082002900020D7
:100590008DF80C008DF80F0002A90B48FFF75EFFE5
:1005A0000321042000F05CF90820009000208DF861
:1005B00004000C208DF8050001208DF80600684627
:1005C000FFF702FF1FBD00000010024030B50E48CB
:1005D0000068010E0C480068C0F307440A48008810
:1005E000C0F30722084803780020084D2870E04334
:1005F000C0B2884206D129B9D843C0B2904201D1D5
:10060000104630BD0020FCE72C0000203100002007
:100610001CB50121802000F08DF84FF4806000901F
:1006200001208DF8040000208DF8060001208DF8CF
:10063000070000208DF8050069460D48FFF70EFF02
:100640004FF40060009069460948FFF707FF4FF438
:100650008050009069460648FFF700FF4FF4806025
:1006600003491831088040000880400008801CBD04
:10067000001C024000BFFEE7704708B54FF4C060A1
:1006800000F04CF809208DF8000001208DF80100E1
:1006900005208DF8020001208DF80300684600F067
:1006A00001F808BD70B5002100230F22C4781CB3E7
:1006B000174C246804F4E064C4F5E064C4F3072133
:1006C000C1F10404E3B20A4144789C40E1B2847869
:1006D000144021430C07210E0E4C05786155047817
:1006E00004F01F050124AC4005786D11AD0005F143
:1006F000E025C5F8004109E0047804F01F05012455
:10070000AC40054D0678761145F8264070BD0000D6
:100710000CED00E000E400E080E100E0024901436C
:10072000024A1160704700000000FA050CED00E07D
:100730007047000029B1064A12680243044B1A6050
:1007400004E0034A12688243014B1A6070470000BC
:100750003038024029B1064A12680243044B1A603D
:1007600004E0034A12688243014B1A60704700009C
:1007700044380240F0B50021002200240225002662
:100780000223324F3F6807F00C0121B1042905D044
:10079000082937D105E02E4F076036E02D4F07605E
:1007A00033E02A4F3F1F3F68C7F38056274F3F1F54
:1007B0003F6807F03F036EB1264FB7FBF3F7DFF852
:1007C0008CC0ACF1040CDCF800C0CCF3881C07FB37
:1007D0000CF40CE01E4FB7FBF3F7DFF870C0ACF180
:1007E000040CDCF800C0CCF3881C07FB0CF4174F9A
:1007F0003F1F3F68C7F301477F1C7D00B4FBF5F73F
:10080000076002E0124F076000BF00BF0F4F3F6854
:1008100007F0F0010909104F7A5C0768D74047607C
:100820000A4F3F6807F4E051890A0B4F7A5C47682A
:10083000D7408760054F3F6807F46041490B064F7A
:100840007A5C4768D740C760F0BD000008380240B6
:100850000024F40040787D0114000020704700005F
:1008600030B500228B071C0F0F2303FA04F20B4B49
:100870008C1053F824309343084C8D1044F82530E5
:1008800023468C1053F824308C07240F00FA04F40C
:100890002343024C8D1044F8253030BD0838014008
:1008A0000CB50020019000904148006840F4803071
:1008B0003F49086000BF3E48006800F400300090E7
:1008C0000198401C0190009818B90198B0F5A04F0C
:1008D000F1D13748006800F4003010B101200090D9
:1008E00001E0002000900098012860D1304840309D
:1008F000006840F080502E49403108602D48006863
:1009000040F440402B4908602948083000682849D5
:10091000083108600846006840F400400860084656
:10092000006840F4A05008602348091F0860081FB1
:10093000006840F08070091F086000BF1C48006814
:1009400000F000700028F9D01A48006840F48030A8
:100950001849086000BF1748406800F4803000283C
:10096000F9D01448006840F400301249086000BF14
:100970001048406800F400300028F9D040F20570BB
:100980000E4908600A480830006820F00300084952
:10099000083108600846006840F00200086000BFA7
:1009A00003480830006800F00C000828F8D10CBD9E
:1009B0000038024000700040195A4007003C0240D5
:1009C00010B500F063F810BD30B515480068154A41
:1009D000B0FBF2F1481EB0F1807F01D301201BE093
:1009E000481E4FF0E022506150170F22002807DA0E
:1009F00013071D0E0C4B00F00F04241F1D5503E0C0
:100A000013071C0E094B1C5400BF00204FF0E022BE
:100A1000906107201061002008B100BFFEE730BDE3
:100A200000000020A086010018ED00E000E400E0D6
:100A300010B51248006840F001001049086000201D
:100A40000E49083108600D4800680D4908400B49FF
:100A500008600C48091D0860081F006820F4802009
:100A6000091F0860002005490C310860FFF718FFD6
:100A70004FF000600449086010BD000000380240DB
:100A8000FFFFF6FE1030002408ED00E00448006887
:100A900020B103480068401E01490860704700000B
:100AA0002800002021B1828942F40052828104E0B2
:100AB00082894DF6FF731A408281704702460020FA
:100AC000B1F5007F00D100BF13880B400BB10120AE
:100AD00000E00020704700002DE9FF4705460E4664
:100AE0000024A14600BFA046B08900B100BF2C8AF7
:100AF00024F44054F08804432C82AC8941F20C6009
:100B00008443B08831890843718908430443AC8128
:100B1000AC8A24F44074B0890443AC826846FFF781
:100B200029FE2048854202D01F48854202D1DDF8C7
:100B30000C9001E0DDF80890A88900F4004040B175
:100B400009EBC90000EB091031684900B0FBF1F76F
:100B500007E009EBC90000EB091031688900B0FB20
:100B6000F1F76420B7FBF0F004012009642101FBD8
:100B70001078A88900F4004040B1322000EBC80092
:100B8000B0FBF1F000F00700044308E0322000EB76
:100B900008106421B0FBF1F000F00F0004432C8139
:100BA000BDE8FF870010014000140140C1F30802B6
:100BB0008280704700BFFEE70FB4054B10B503A954
:100BC000044A029800F018F810BC5DF814FB00000D
:100BD0004D0D00083400002002E008C8121F08C1B3
:100BE000002AFAD170477047002001E001C1121FAE
:100BF000002AFBD1704700002DE9FF4F89B09B46CA
:100C00000446002506E025280BD05A460B9990474C
:100C1000641C6D1C20780028F5D10DB02846BDE875
:100C2000F08F0027B8460122474900E0074314F837
:100C3000013F203B02FA03F00842F7D120782E282A
:100C400019D114F8010F47F004072A280ED06FF0CD
:100C50002F022078A0F1300109290CD808EB880177
:100C600002EB410100EB0108641CF2E70A98641CE6
:100C700050F8048B0A9020780028CED0642808D041
:100C8000692806D075281ED05A460B9990476D1CCE
:100C900058E00A994FF00A0901C90A91002802DABE
:100CA00040422D2102E0390504D52B218DF820107A
:100CB000012103E0F90704D02021F7E78A4608AEB6
:100CC0000DE00021FAE70A994FF00A0901C90A91DB
:100CD000F7E74946FFF786FA303106F8011D00288C
:100CE000F7D1ADEB060000F12009780701D44FF0F1
:100CF0000108C84502DDA8EB090000E0002080469D
:100D0000002706E008A85A46C05D0B9990476D1C65
:100D10007F1C5745F6DB04E030205A460B9990477C
:100D20006D1CB8F10001A8F10108F5DC05E016F82A
:100D3000010B5A460B9990476D1CB9F10001A9F1BE
:100D40000109F4DC641C65E70928010070B504465C
:100D50000D46E1B20548FFF729FF00BF8021034897
:100D6000FFF7ACFE0028F9D0204670BD001001400E
:100D7000FFF74EFC4FF48060E3490880FFF724FE44
:100D80004FF0FF300021002807DA0A07150EDF4A6E
:100D900000F00F031B1FD55403E00A07130EDC4AB3
:100DA000135400BFFFF74AFADAA0FFF705FFFFF779
:100DB000E1FB00BFE14800780128FBD1FFF706FC0A
:100DC00004462146DEA0FFF7F7FEE2480178E2A0E4
:100DD000FFF7F2FEE7480178E7A0FFF7EDFE5A2C97
:100DE00071D017DC302C6FD00BDC102C6DD003DCF5
:100DF0004CB3022C6AD16BE0182C68D0222CF9D1AC
:100E000051E0382C74D0422C73D04A2C72D0522C22
:100E1000F0D166E1A82C6ED00CDC902C6CD004DCF8
:100E2000682C6AD07A2CE5D1FBE0982C76D0A22CE5
:100E3000E0D118E0B02C72D0C22C5FD0E02C70D082
:100E4000E22CD7D11FE0B048801F006880F480609A
:100E5000AD49891F08602146B9A0FFF7ADFECDA0BE
:100E6000FFF7AAFE4EE1A848801F006880F480606A
:100E7000A549891F08602146B1A0FFF79DFEC8A0C3
:100E8000FFF79AFE3EE1A048801F006880F4806072
:100E90009D49891F08602146A9A0FFF78DFEC3A0C8
:100EA000FFF78AFE2EE19848801F006880F480607A
:100EB0009549891F08602146A1A0FFF77DFEBEA0CD
:100EC000FFF77AFE1EE1DCE08BE0BAE019E198E082
:100ED0008D48801F006880F480608B49891F0860FE
:100EE000214697A0FFF768FEB6A0FFF765FE09E16F
:100EF000B7E0D6E0E5E024E033E042E08248801F3E
:100F0000006880F480608049891F086021468CA0B9
:100F1000FFF752FEADA0FFF74FFEF3E041E050E0D7
:100F2000FFE77948801F006880F480607649891F58
:100F30000860214682A0FFF73FFEA8A0FFF73CFE15
:100F4000E0E07148801F006880F480606E49891F6E
:100F5000086021467AA0FFF72FFEA3A0FFF72CFE22
:100F6000D0E06948801F006880F480606649891F6E
:100F70000860214672A0FFF71FFE9DA0FFF71CFE30
:100F8000C0E06148801F006880F480605E49891F6E
:100F9000086021466AA0FFF70FFE98A0FFF70CFE3D
:100FA000B0E05948801F006880F480605649891F6E
:100FB0000860214662A0FFF7FFFD92A0FFF7FCFD4D
:100FC000A0E05148801F006880F480604E49891F6E
:100FD000086021465AA0FFF7EFFD8CA0FFF7ECFD5B
:100FE00090E04948801F006880F480604649891F6E
:100FF0000860214652A0FFF7DFFD86A0FFF7DCFD69
:1010000080E04148801F006880F480603E49891F6D
:10101000086021464AA0FFF7CFFD80A0FFF7CCFD76
:1010200070E03948801F006880F480603649891F6D
:101030000860214642A0FFF7BFFD7AA0FFF7BCFD84
:1010400060E03148801F006880F480602E49891F6D
:10105000086021463AA0FFF7AFFD74A0FFF7ACFD92
:1010600050E02948801F006880F480602649891F6D
:101070000860214632A0FFF79FFD6EA0FFF79CFDA0
:1010800040E02148801F006880F480601E49891F6D
:10109000086021462AA0FFF78FFD68A0FFF78CFDAE
:1010A00030E01948801F006880F480601649891F6D
:1010B0000860214622A0FFF77FFD62A0FFF77CFDBC
:1010C00020E01148801F006880F480600E49891F6D
:1010D000086021461AA0FFF76FFD5CA0FFF76CFDCA
:1010E00010E00948801F006880F480600649891F6D
:1010F0000860214612A0FFF75FFD56A0FFF75CFDD8
:1011000000E000BF56E600001A1C024018ED00E0A7
:1011100000E400E00D0A20D5E2CAC7D2BBB8F6BA97
:10112000ECCDE2D2A3BFD8B7A2C9E4D3EBBDD3CAFA
:10113000D5CAB5D1E9200D0A000000003100002019
:101140000D0A206B65795F76616C3D2564200D0A80
:1011500000000000300000200D0A20B0B4BCFCB438
:10116000CECAFD6672616D655F636E743D25642055
:101170000D0A0000240000200D0A20D6D0B6CFB4FE
:10118000CECAFD6973725F636E743D2564200D0ADB
:10119000000000000D0A204572726F72200D0A00D7
:1011A0000D0A20504F574552200D0A000D0A204DC0
:1011B000454E55200D0A00000D0A20544553542079
:1011C0000D0A00000D0A202B200D0A000D0A2052E6
:1011D000455455524E200D0A000000000D0A207C97
:1011E0003C3C200D0A0000000D0A203E200D0A00A4
:1011F0000D0A203E3E7C200D0A0000000D0A203022
:10120000200D0A000D0A202D200D0A000D0A204392
:10121000200D0A000D0A2031200D0A000D0A20328F
:10122000200D0A000D0A2033200D0A000D0A20347B
:10123000200D0A000D0A2035200D0A000D0A203667
:10124000200D0A000D0A2037200D0A000D0A203853
:10125000200D0A000D0A2039200D0A007C1200081A
:101260000000002038000000D80B0008B41200086D
:101270003800002000040000E80B00080095BA0ABE
:101280000000000000000000010203040607080936
:10129000000000000102030401020304060708091C
:1012A000000000000000000000000000000000003E
:0412B000000000003A
:04000005080001AD41
:00000001FF
