:020000040800F2
:10000000984A002099010008291800082B180008B8
:100010002D1800082F1800083118000800000000F3
:1000200000000000000000000000000001010008C6
:1000300033180008000000004501000835180008CA
:10004000B3010008B3010008B3010008B3010008C0
:10005000B3010008B3010008B3010008B3010008B0
:10006000B3010008B3010008B3010008B3010008A0
:10007000B3010008B3010008B3010008B301000890
:10008000B3010008B3010008B3010008B301000880
:10009000B3010008B3010008B3010008B301000870
:1000A000B3010008B3010008B3010008B301000860
:1000B000B3010008B301000849180008B3010008A3
:1000C000B3010008B3010008B3010008B301000840
:1000D000B3010008B3010008B3010008B301000830
:1000E000B3010008B3010008B3010008DFF80CD029
:1000F00003F014FE0048004799170008984A0020B2
:10010000224B19680868B0E8F00F80F30988BFF344
:100110006F8F4FF0000080F311884EF00D0E704786
:100120000000000006480068006880F3088862B696
:1001300061B6BFF34F8FBFF36F8F00DF00BF00BF0B
:1001400008ED00E0EFF30980BFF36F8F0F4B1A68E3
:1001500020E9F00F106008B54FF0500080F31188CF
:10016000BFF34F8FBFF36F8F02F0CFFE4FF0000051
:1001700080F31188BDE8084019680868B0E8F00FFE
:1001800080F30988BFF36F8F704700BF0003002022
:10019000EFF3058070470000064880470648004797
:1001A000FEE7FEE7FEE7FEE7FEE7FEE7FEE7FEE727
:1001B000FEE7FEE75D020008ED0000080CB5002236
:1001C0004C4800920192016841F4803101604FF483
:1001D000A063016801F4003101910099491C00916C
:1001E000019911B900999942F3D10168890333D576
:1001F0000121019140490A6842F010020A600A6830
:1002000022F003020A600A6842F002020A604168B2
:10021000416041684160416841F4806141604168EA
:1002200021F47C114160416841F4E81141600168AA
:1002300041F08071016001688901FCD5416821F0BD
:1002400003014160416841F0020141604168C1F32E
:1002500081010229FAD10CBD01920CBD254810B5CF
:10026000016841F0010101604168244A1140416088
:100270000168234A11400160016821F48021016076
:10028000416821F4FE0141604FF41F018160FFF7D6
:1002900095FF1C494FF00060086010BD154A10B56D
:1002A0005068194B10F00C01184803D0042901D0F4
:1002B000082901D0036012E05168536801F47011FD
:1002C0004FF0020413F4803F04EB914102D05368D5
:1002D0009B0301D50E4B00E00B4B59430160516865
:1002E0000A4AC1F30311121D515C0268CA40026040
:1002F00010BD000000100240002002400000FFF886
:10030000FFFFF6FE08ED00E000127A00000000207A
:1003100000093D002849084328490860704730B566
:100320000F23C27801780125F2B1244A126801F145
:10033000E02102F4E062C2F5E062120AC2F10404B4
:10034000D3404278A24084781C401443220181F8B3
:100350000024007800F01F018D404009800000F16A
:10036000E020C0F8005130BD01F01F008540480971
:10037000800000F1E020C0F8805130BD104A1140EB
:1003800001430E48001F016070470C4A121D0029EE
:10039000116801D0014300E08143116070474FF0C4
:1003A000E0210428086903D020F0040008617047A8
:1003B00040F00400FAE700000000FA050CED00E050
:1003C00080FFFF1F8F4910B5884206D1012104200C
:1003D00000F049FA002104203BE08B49884206D115
:1003E0000121082000F03FFA0021082031E0874970
:1003F000884206D10121102000F035FA002110209A
:1004000027E08349884206D10121202000F02BFA01
:10041000002120201DE07F49884206D10121402093
:1004200000F021FA0021402013E07B49884206D1E8
:100430000121802000F017FA0021802009E077498F
:1004400088420AD184150121204600F00CFA0021CF
:100450002046BDE8104000F006BA10BD10B50121DD
:10046000084600F000FA0021BDE81040012000F02D
:10047000FAB9F0B5CC78002204F00F03E40601D5F8
:100480008C7823430C784FF00F0C14F0FF0F4FF0D3
:10049000010E1BD005680E880EFA02F42640A64213
:1004A00010D196000CFA06F725EA070703FA06F5BD
:1004B000CE783D43282E02D0482E02D002E044617F
:1004C00000E00461521C082AE5D305600A88FF2A6F
:1004D0001CD94468002202F108060EFA06F50E88BF
:1004E0002E40AE420ED196000CFA06F7BC4303FA3A
:1004F00006F7CE783C43282E00D14561CE78482EB1
:1005000000D10561521C082AE5D34460F0BD4FF6C6
:10051000FF710180022181700421C1707047024681
:10052000002092680A4200D001207047806880B2A3
:10053000704702460020D2680A4200D0012070476E
:10054000C06880B2704701617047416170470AB16D
:100550000161704741617047C160704741F480326A
:100560008261816182618169806970472C4B10B51D
:100570001A684FF68074224042EA0010084318605F
:1005800010BD2849C8617047F0B5254C002801DA34
:10059000E36900E06368450D2E0185B2C0F30157A1
:1005A000B540C0F30342032F05D0C6020AD5032687
:1005B0009640B34307E023F07062636823F07063F2
:1005C000636002E0AB4343F0706201B12A4300284C
:1005D00001DAE261F0BD6260F0BD10B58A0721F07A
:1005E00003040F49120F21440F238C6893409C434E
:1005F0008C608B68904003438B6010BD0949C1F843
:10060000DC00704700080140000C01400010014070
:100610000014014000180140001C0140002001406E
:100620000000014000002042A548016841F001019E
:1006300001604168A34A114041600168A24A11402B
:100640000160016821F480210160416821F4FE010C
:1006500041604FF41F018160704799490A6822F494
:1006600080320A600A6822F480220A60B0F5803F76
:1006700007D0B0F5802F03D1086840F4A0200860AF
:100680007047086840F48030F9E7034600205909B4
:100690008B4A01290AD002290AD0516A03F01F02AD
:1006A000012393400B4200D0012070471168F5E709
:1006B000116AF3E718B500204FF4A06400903120D0
:1006C000FFF7E3FF0099491C0091A14201D00028E7
:1006D000F5D03120FFF7D9FF002800D0012018BD48
:1006E000774A116821F0F80141EAC00010607047B4
:1006F000764908607047724B5A68084322F47C12AE
:100700001043586070477149086670476C4A5168D9
:1007100021F003010143516070476948406800F0CF
:100720000C007047664A516821F0F00101435160A6
:100730007047634A516821F4E0610143516070479A
:100740005F4A516821F4605141EAC000506070472F
:100750005B4A0029517A01D0014300E08143517284
:1007600070475A49C1F8D8007047554A516821F47A
:1007700040410143516070475149002281F82020D7
:1007800081F82020012802D0042802D1052081F818
:10079000200070474E490860704749490A6A024381
:1007A0000A6270474A4944390860704730B5444A84
:1007B0005168484B11F00C0103D0042901D00829DD
:1007C00001D0036012E05168536801F470114FF0DA
:1007D000020413F4803F04EB914102D053689B0361
:1007E00001D53D4B00E03B4B5943016051680F235D
:1007F00003EA1111394B5C5C0168E14041605468C7
:10080000072505EA14241C5D21FA04F48460546869
:1008100005EAD4241B5DD940C1605268032303EA72
:1008200092322E4B1B1F9A5CB1FBF2F1016130BD7D
:10083000234A0029516901D0014300E081435161FD
:1008400070471F4A0029916901D0014300E08143AC
:10085000916170471A4A0029D16901D0014300E033
:100860008143D1617047164A0029D16801D0014304
:1008700000E08143D1607047114A0029116901D01D
:10088000014300E08143116170471149403908601C
:1008900070470E49C86470470949C87170470848D5
:1008A000416A41F0807141627047054A014600206B
:1008B00092680A4200D0012070470149887270474F
:1008C000001002400000FFF8FFFFF6FE0000424269
:1008D0008004424200127A0000093D001800002006
:1008E000F94910B5884202D10121C41486E0B0F163
:1008F000804F09D0F54988420DD101210220FFF730
:10090000BBFF0021022064E001210846FFF7B4FF8D
:10091000002101205DE0EE49884206D1012104203A
:10092000FFF7AAFF0021042053E0EA49884206D1DC
:1009300001210820FFF7A0FF0021082049E0E64937
:10094000884206D101211020FFF796FF00211020D8
:100950003FE0E249884206D101212020FFF78CFFC9
:100960000021202035E0DE49884202D101214414D3
:1009700044E0DC49884202D10121CC043EE0DA495E
:10098000884202D101210C0538E0D849884202D1C1
:1009900001214C0532E0D649884206D10121402090
:1009A000FFF76AFF0021402013E0D249884206D1B8
:1009B00001218020FFF760FF0021802009E0CE495F
:1009C00088420AD1841501212046FFF755FF0021F6
:1009D0002046BDE81040FFF74FBFC849884202D10A
:1009E00001210C040AE0C649884202D101214C04CD
:1009F00004E0C44988420AD101218C042046FFF753
:100A000032FF2046BDE810400021FFF72CBF10BD8B
:100A100030B50288AC4CB24DA0420DD0A8420BD0EC
:100A2000B0F1804F08D0A94B984205D0A84B98420E
:100A300002D0A84B984203D122F070034A881A438F
:100A4000A54B984206D0A54B984203D022F44073A0
:100A5000CA881A4302808A8882850A880285A04251
:100A60000AD0A84208D0A54A904205D0A44A904294
:100A700002D0A44A904201D1097A018601218182E3
:100A800030BD30B5028C22F001020284028C8388D2
:100A9000048B22F0020224F073050C882C430D898C
:100AA00015434A882A43884DA8420BD08C4DA84252
:100AB00008D0924DA84205D0914DA84202D0914D48
:100AC000A8420DD122F008054A8923F440732A4335
:100AD00022F004058A882A438D891D43CB892B4344
:100AE00083800483C9888186028430BD70B5028CFE
:100AF00022F010020284028C8388048B0D8824F477
:100B0000E6464FF6FF7404EA052535430E8922F0C8
:100B1000200204EA061616434A8804EA0212324307
:100B2000694EB04202D06E4EB04215D122F080061E
:100B30004A8923F4406304EA0212324322F0400659
:100B40008A8804EA021232438E8904EA86061E432A
:100B5000CB8904EA8303334383800583C9880187F3
:100B6000028470BD70B5028C22F480720284028C03
:100B70008388848B0D8824F0730425430E894FF6F7
:100B8000FF7422F4007204EA062616434A8804EA37
:100B9000022232434C4EB04202D0514EB04215D1E7
:100BA00022F400664A8923F4405304EA02223243C5
:100BB00022F480668A8804EA022232438E8904EA9B
:100BC00006161E43CB8904EA0313334383808583CF
:100BD000C9888187028470BD70B5028C22F480526E
:100BE0000284058C8288838B0C8823F4E6464FF6BA
:100BF000FF7303EA0424344325F400560D8903EA05
:100C0000053535434E8803EA06362E432E4DA8425D
:100C100002D0334DA84205D122F480458A8903EAE7
:100C200082122A4382808483C988A0F840100684F7
:100C300070BD828B22F440628283828B4FF6FF73F9
:100C400003EA01210A4382837047828B22F00C025F
:100C50008283828B0A4382837047028B22F4406234
:100C60000283028B4FF6FF7303EA01210A430283DA
:100C70007047F0B5048C24F010040484078B048CB6
:100C80004FF6FF7527F4734705EA03333B4305EA44
:100C900002221A430C4B05EA011698420ED0104B63
:100CA00098420BD0B0F1804F08D0084B984205D045
:100CB000074B984202D0074B984225D124F02001DF
:100CC000314341F0100124E0002C014000040040B9
:100CD00000080040000C00400010004000140040DC
:100CE00000340140004C01400050014000540140DC
:100CF00000180040001C004000200040004001405F
:100D0000004401400048014024F0A0030B4343F09D
:100D1000100102830184F0BD028B22F00C020283D9
:100D2000028B0A430283704770B5048C24F00104DF
:100D30000484058B048C4FF6FF7606EA03131343F5
:100D400025F0F305F84A2B4390420ED0F74A904223
:100D50000BD0B0F1804F08D0F54A904205D0F54A4B
:100D6000904202D0F44A904202D124F0020201E003
:100D700024F00A020A4342F001010383018470BD9A
:100D80002DE9F84F0D4604460888E74FDFF89CC36D
:100D9000DFF89C83DFF89C934988AA882B894FF061
:100DA000804A48B304282FD04FF6FF760828934690
:100DB00032D0208C9E4620F480502084A38B208C3F
:100DC00006EA0132009223F4734306EA0B221A4327
:100DD00006EA0E331343BC420AD0644508D054459A
:100DE00006D0444504D04C4502D0D34A944242D167
:100DF00020F40050009940E02046FFF795FFE98875
:100E00002046BDE8F84F87E72046FFF732FFE98824
:100E10002046BDE8F84F20E7208C20F48070208425
:100E2000B4F81CE0208C06EA031306EA01222EF037
:100E3000F30E43EA0B0343EA0E030092BC420AD0CE
:100E4000644508D0544506D0444504D04C4502D0F2
:100E5000B94A944203D120F40070009901E020F4D3
:100E60002060084340F48070A3832084E9882046F2
:100E7000BDE8F84FE9E620F40240084340F4805012
:100E8000A3832084E9882046BDE8F84FD1E62DE908
:100E9000F0410C46002649880746012501B9022683
:100EA000A288012A00D102252088238900283846FB
:100EB00010D0FFF7DEFEE1883846FFF7CEFE23892B
:100EC0002A4631463846FFF72FFFE1883846BDE80D
:100ED000F04121E7FFF728FFE1883846FFF71CFFC4
:100EE00023892A4631463846FFF7C3FEE188384653
:100EF000BDE8F041B1E610B50A884B88CC881A43AA
:100F00008B8823431A430B891A434B8989891A43D7
:100F10000A43A0F8442010BD4FF6FF7181800021E4
:100F20000180C180418001727047002101804180B1
:100F30008180C180018141818181C181704700210F
:100F40000180418001228280C1800181704700219F
:100F5000018041808180C180018141818181704710
:100F60000029018802D041F0010101E021F00101D6
:100F700001807047002930F8441F02D041F400413D
:100F800001E0C1F30E0101807047002A828901D07F
:100F90000A4300E08A43828170478182704711438F
:100FA000A0F848107047002A828901D00A4300E067
:100FB0008A4382817047018921F0070101817047CE
:100FC000028922F070020A430281704700B503468D
:100FD000FFF7F6FF188940F00700188100BD70B5D3
:100FE00016460D46602904464FF0010231460AD0EC
:100FF000FFF79AFE29462046FFF7E2FF208940F0DE
:101000000700208170BDFFF734FEF3E730B5048997
:101010004FF6FF7505EA03231343E4B20B43234362
:10102000038130BD10B50446FFF7F0FF208940F082
:101030007700208110BD10B50446FFF7E7FF208937
:1010400040F48040208110BD018582827047028873
:1010500022F070020A430280704770B50589048B44
:10106000068C25F007050D434FF6FC410C4040F27D
:1010700001110C434FF6FF7101EA031126F022061D
:101080001143314305810483018470BD028B22F03A
:1010900070020A4302837047028B4FF6FF7322F4FB
:1010A000E04203EA0121114301837047828B22F061
:1010B00070020A4382837047828B4FF6FF7322F4DB
:1010C000E04203EA0121114381837047002901882E
:1010D00002D041F0800101E021F0800101807047E1
:1010E0000029818802D041F0040101E021F00401CF
:1010F000818070470029818802D041F0080101E019
:1011000021F00801818070470029818802D041F0D8
:10111000010101E021F0010181807047028B22F082
:1011200008020A4302837047002C0140003401404A
:101130000004004000080040000C0040028B4FF605
:10114000FF7322F4006203EA012111430183EAE7FD
:10115000828B22F008020A438283E4E7828B4FF6F7
:10116000FF7322F4006203EA012111438183DAE76D
:10117000028B22F004020A430283D4E7028B4FF66B
:10118000FF7322F4806203EA012111430183CAE75D
:10119000828B22F004020A438283C4E7828B4FF6DB
:1011A000FF7322F4806203EA012111438183BAE7CD
:1011B000028B22F080020A430283B4E7028B4FF6CF
:1011C000FF73C2F30E0203EA012111430183AAE770
:1011D000828B22F080020A438283A4E7828B4FF63F
:1011E000FF73C2F30E0203EA0121114381839AE7E0
:1011F000028C22F002020A43028494E7028C22F05D
:1012000008020A4302848EE7028C4FF6FF7322F035
:10121000200203EA01111143018484E7028C4FF696
:10122000FF7322F0800203EA0111114301847AE77F
:10123000028C4FF6FF7322F4007203EA012111437E
:10124000018470E7028C4FF6FF7322F4006203EA18
:1012500001211143018466E7028C4FF6FF7322F4EB
:10126000005203EA0131114301845CE710B5012308
:10127000048C8B409C430484038C8A401343038476
:1012800010BD10B50423048C8B409C430484038C54
:101290008A401343038410BD30B50124058C00F14E
:1012A00018038C40A543058489B108290FD0091F74
:1012B000C1F34E001844016821F4E0410160016867
:1012C0004FF6FF7303EA02221143016030BD03EBC6
:1012D0005100016821F0700101600168F4E7002904
:1012E000018802D041F0020101E021F002010180F9
:1012F00019E70029018802D041F0040101E021F042
:10130000040101800FE70029818802D041F08001AB
:1013100001E021F08001818005E7028822F00802C7
:10132000028002880A430280FDE6828822F0700271
:10133000828082880A438280F5E6028922F00702D1
:10134000028102890A430281EDE6028922F08002CD
:10135000028102890A430281E5E68184E3E6818510
:10136000E1E68186DFE60187DDE68187DBE6A0F83E
:101370004010D8E6028822F44072028002880A43B4
:101380000280D0E6808ECEE6008FCCE6808FCAE663
:10139000B0F84000C7E6808CC5E6008DC3E6024683
:1013A0000020128A0A4200D00120BCE6C943018213
:1013B000B9E602460020138A92890B4202EA010232
:1013C00002D0002A00D00120ADE6C9430182AAE67E
:1013D000C44910B588420AD101218C032046FFF789
:1013E00042FA2046BDE810400021FFF73CBABE4952
:1013F000884202D101214C0410E0BC49884202D14C
:1014000001218C040AE0BA49884202D10121CC04AE
:1014100004E0B84988420AD101210C052046FFF7B3
:101420002BFA2046BDE810400021FFF725BA10BD79
:1014300030B50446008A85B00D464CF6FF71084071
:10144000E98801432182A0894EF6F3110840A9885A
:101450002A8911436A8902431143A181A08A4FF668
:10146000FF410840A9890143A1826846FFF79EF920
:101470009C48844201D1039800E00298A1890904A4
:1014800000EBC00101EB0010296801D5490000E024
:101490008900B0FBF1F06422B0FBF2F109010B0905
:1014A0006FF018056B4300EB8300A3891D044FF018
:1014B000320306D503EBC000B0FBF2F000F00700EA
:1014C00005E003EB0010B0FBF2F000F00F00084362
:1014D000208105B030BD4FF416510160002181809C
:1014E000C18001810C2242818181704710B5028A3E
:1014F0004FF2FF031A400B884C8823438C88C9881D
:101500000C4323431343038210BD0021018041801B
:101510008180C18070470029818902D041F4005147
:1015200001E021F400518181704710B5C1F34213ED
:1015300001F01F040121A140012B07D0022B07D08D
:101540001430002A026805D00A4304E00C30F8E7A2
:101550001030F6E78A43026010BD002A828A01D06B
:101560000A4300E08A4382827047028A22F00F0217
:101570000282028A0A4302827047828922F4006250
:10158000828182890A43828170470029818902D041
:1015900041F0020101E021F0020181817047028ADD
:1015A00022F020020282028A0A4302827047002946
:1015B000018A02D041F4804101E021F4804101829E
:1015C0007047C1F30801818070478088C0F308002C
:1015D0007047818941F0010181817047028BD2B24D
:1015E0000283028B42EA012101837047028B02F4DD
:1015F0007F420283028B0A43028370470029818A5B
:1016000002D041F0200101E021F0200181827047E9
:101610000029818A02D041F0100101E021F010017F
:10162000818270470029818A02D041F0080101E0DF
:1016300021F00801818270470029818902D041F49C
:10164000004101E0C1F30E01818170470029818AC8
:1016500002D041F4006101E021F400618182704711
:10166000828A22F004028282828A0A43828270473E
:101670000029818A02D041F0020101E021F002013B
:10168000818270470246002012880A4200D0012061
:101690007047C9430180704770B501F01F050126EE
:1016A0000024C1F3421306FA05F2012B0FD0022BDE
:1016B0000FD0838A4FEA11210088134206FA01F6FF
:1016C00000EA060001D000B10124204670BD8389E4
:1016D000F0E7038AEEE70A0A01219140C94301803D
:1016E00070470000003801400044004000480040BE
:1016F000004C0040005000404FF4FA6400F07AFBC8
:1017000000F044FC204600F0E7F9F7E7364E374C8E
:1017100086B001213046256800F098F9012815D1DE
:10172000A06801F01CFC00F065FB2A4630A1684669
:1017300002F042FB684600F051FC0121304600F007
:1017400085F90128F1D1A06801F06FFC142001F0A7
:1017500014FBDEE77CB502F02FFA244803240C309A
:10176000CDE900404FF4007500232A4621A124480A
:1017700001F03DF91D4800230830CDE900402A461C
:1017800020A1234801F033F91848406801F05AF9C4
:10179000BDE87C4002F02ABA1CB54FF44070FEF759
:1017A000B9FD00F065F800F041F900F063F900F0D0
:1017B0004AFA00F098FA04210022084600F0ECFCF6
:1017C0000A49002308610120091DCDE900014202F8
:1017D00010A1144801F00BF9012802D04FF0FF309E
:1017E0001CBD01F0AAFCFEE7000801402800002013
:1017F000256400004B45595F5461736B0000000085
:101800000D1700084F4C45445F5461736B00000096
:10181000F91600084170705461736B43726561740E
:1018200065000000551700087047FEE7FEE7FEE779
:10183000FEE7704710B501F0DCFD012803D0BDE8DC
:10184000104002F0E4B910BD10B5084C012120464B
:10185000FFF7AFFD002807D000F046F92046BDE8AD
:1018600010400121FFF7B1BD10BD0000000800408D
:1018700038B501211020FEF7E4FF4FF40054ADF815
:10188000004010208DF803000320064D8DF8020063
:1018900069462846FEF7EDFD21462846FEF753FE31
:1018A00038BD00000010014010B586B001210420B1
:1018B000FEF7C7FF01218803FEF7C3FF4FF4007056
:1018C000ADF8100018208DF813000320554C8DF84A
:1018D000120004A92046FEF7CCFD2115ADF810102A
:1018E00004218DF8131004A92046FEF7C2FD4FF421
:1018F000E13000900020ADF80400ADF80600ADF82E
:101900000800ADF80C000C20474CADF80A00694601
:101910002046FFF78DFD4FF4A060FEF7FBFC25206D
:101920008DF8140001218DF815108DF816108DF822
:10193000171005A8FEF7F3FC012240F225512046BE
:10194000FFF7F3FD01212046FFF7E5FD06B010BDCE
:1019500010B50446FFF735FE80212046FFF792FEC2
:101960000028F9D010BD2DE9F04115460E46074676
:10197000002405E0315D3846FFF7EAFF641CE4B25D
:10198000AC42F7D340213846FFF77CFE0028F9D05F
:10199000BDE8F08170B50D46064600243046295D4D
:1019A000FFF7D6FF641C285D0028F7D140213046A0
:1019B000FFF768FE0028F9D070BD70B50446080A2C
:1019C000CDB201462046FFF7FCFD80212046FFF7FF
:1019D00059FE0028F9D029462046FFF7F2FD802164
:1019E0002046FFF74FFE0028F9D070BD70B50E4DB0
:1019F0000446C1B22846FFF7E4FD80212846FFF7E0
:101A000041FE0028F9D0204670BD10B5064C2021BB
:101A10002046FFF737FE0028F9D02046BDE81040E9
:101A2000FFF7D3BD000801400038014008B501218F
:101A30000420FEF706FF0120ADF8000004208DF819
:101A4000030069460A48FEF714FD08BD70B50C4650
:101A50000546FEF764FD012801D0002070BD214637
:101A60002846FEF75CFD0128F9D0012070BD00007A
:101A7000000801403EB54FF44070FEF74BFC1E20BD
:101A80008DF8000007208DF8010000208DF802007D
:101A900001208DF803006846FEF741FC0121042077
:101AA000FEF7D8FE40F2E730ADF804004720124CB4
:101AB000ADF8000069462046FEF7AAFF0121204646
:101AC000FFF774FC012211462046FFF75EFA012160
:101AD0002046FFF745FA3EBD01B508480099016070
:101AE00001680029FCD108BD04480168002902D022
:101AF0000168491E01607047000800403C0000205A
:101B000070B55F48082606600425056000F0B1F84E
:101B10005B4C241D266000F0ACF82560BDE87040E9
:101B200000F0A7B870B556480824001D0460544D55
:101B30000420286000F09DF82C6070BD2DE9F0476E
:101B4000DFF83C9100244E4E054609F104090427B4
:101B50004FF008082806404601D5306001E0C9F87A
:101B6000000000F086F8376000F083F8C9F80070D4
:101B7000072C01D1C6F800806806050E00F079F840
:101B8000641CE4B2082CE5D3BDE8F0872DE9F047EA
:101B900000243B4FDFF8E8802546A8F1080804261A
:101BA00007F104096006040E3E6000F062F8D8F800
:101BB0000000000701D5641CE4B2C9F8006000F021
:101BC00058F86D1CEDB2082DECD32046DCE770B55B
:101BD0002B4C0820206000F04CF80425256000F014
:101BE00048F8274808380068000701D5012400E0BC
:101BF00000242348001D056000F03BF8204670BD1E
:101C00002DE9F0411E4E0825361D356000F031F8F3
:101C1000371F04243C6000F02CF8346000F029F8F1
:101C20003D60BDE8F08170B5154D0820286000F0DA
:101C300020F804242C6000F01CF8281D0460BDE886
:101C4000704000F016B808B501210420FEF7F9FD38
:101C50000C20ADF8000003208DF8020014208DF850
:101C60000300074869461038FEF703FCFFF75AFFE8
:101C700008BD0020401CC0B20A28FBD370470000FA
:101C80001008014010B50446FFF73AFF2046FFF761
:101C900055FFFFF79CFF0446FFF744FF204610BDA9
:101CA00070B50C460546FFF72BFF7820FFF746FF7F
:101CB000FFF78DFF68B92846FFF740FFFFF787FF62
:101CC00038B92046FFF73AFFFFF781FF08B9FFF761
:101CD00029FFBDE87040FFF725BF01460020DFE780
:101CE00001464020DCE710B54FF47A70FFF7F4FEB0
:101CF000AE20FFF7F2FF2020FFF7EFFF1020FFF7E5
:101D0000ECFFB020FFF7E9FFC820FFF7E6FF002057
:101D1000FFF7E3FF1020FFF7E0FF4020FFF7DDFFB4
:101D20008120FFF7DAFFFF20FFF7D7FFA120FFF7A1
:101D3000D4FFA620FFF7D1FFA820FFF7CEFF3F205A
:101D4000FFF7CBFFA420FFF7C8FFD320FFF7C5FFA5
:101D50000020FFF7C2FFD520FFF7BFFFF020FFF7FD
:101D6000BCFFD920FFF7B9FF2220FFF7B6FFDA202A
:101D7000FFF7B3FF1220FFF7B0FFDB20FFF7ADFF47
:101D80002020FFF7AAFF8D20FFF7A7FF1420FFF701
:101D9000A4FFBDE81040AF209FE710B50446B03166
:101DA000C8B2FFF79AFF102040EA1410FFF795FF22
:101DB00004F00F00BDE8104040F001008DE770B561
:101DC0000646002505F1B000C0B2FFF786FF0020EF
:101DD000FFF783FF1020FFF780FF00243046FFF756
:101DE0007FFF641CE4B2802CF8D36D1CEDB2082D8B
:101DF000E8D370BD0020E2E710B58D20FFF76DFF3E
:101E00001420FFF76AFFBDE81040AF2065E710B56A
:101E10008D20FFF762FF1020FFF75FFFBDE8104045
:101E2000AE205AE72DE9F047002692460F460446B9
:101E3000012B22D0DFF84891022B24D151E0203829
:101E400000F0FF087E2C02D900247F1CFFB2394627
:101E50002046FFF7A2FF08EB4800002509EB4008E9
:101E600018F80500FFF73CFF6D1CEDB2062DF7D307
:101E7000A41D761CE4B2F6B201E0DFF808911AF86E
:101E800006000028DBD1BDE8F087203800F0FF080D
:101E9000782C02D900247F1CFFB239462046FFF778
:101EA0007CFF002505EB081119F80100FFF718FF6A
:101EB0006D1CEDB2082DF5D3781CC1B22046FFF79A
:101EC0006CFF002505EB081101EB0900007AFFF714
:101ED00007FF6D1CEDB2082DF4D30834761CE4B274
:101EE000F6B21AF806000028CFD1CCE72DE9F04170
:101EF0000F46804600255401FFF74FFF224E305D0C
:101F0000FFF7EEFE6D1CEDB2641C102DF7D37F1CA5
:101F1000F9B24046FFF741FF0025305DFFF7E0FED4
:101F20006D1CEDB2641C102DF7D3BDE8F0812DE9D6
:101F3000F0471F4690460E4682460025DDF8209069
:101F400010E031465046FFF728FF544606E019F8E6
:101F500005006D1CFFF7C4FE641CE4B24445F6D3D3
:101F6000761CF6B2BE42ECD38DE710B57820FFF7B1
:101F700089FE012801D0012010BD002010BD000005
:101F8000EA410008C23F00084000002070B500246C
:101F9000162505EB0410C0B222460021FFF7A6FF6C
:101FA000641CE4B2042CF4D304246FF03F0505EB69
:101FB0000410C0B222460221FFF798FF641CE4B26D
:101FC0000C2CF4D30C2206213020FFF78FFFBDE844
:101FD00070400B2206214020FFF788BF70B5002417
:101FE0000646162505EB0410C0B222460021FFF775
:101FF0007DFF641CE4B2042CF4D30D2202210020E6
:10200000FFF774FF0E2202211020FFF76FFF0E2250
:1020100002212020FFF76AFF0F2202213020FFF764
:1020200065FF022318A219464820FFF7FBFE022392
:10203000324619465020FFF7F5FE022313A2194637
:102040006820FFF7EFFE122206210020FFF74EFF67
:10205000132206211020FFF749FF14220621302009
:10206000FFF744FF152206214020FFF73FFF102213
:1020700006215F20FFF73AFFBDE8704011220621DC
:102080006F20FFF733BF00003A000000530000004C
:1020900000F108014FF0FF32C0E90112C160016197
:1020A00000210160704700210161704742684A6069
:1020B00093688B6093685960916008610168491C5E
:1020C0000160704730B50C68621C02D000F1080254
:1020D00002E0026904E01A4653681D68A542FAD975
:1020E00053684B6099608A60516008610168491CBF
:1020F000016030BDD0E9013201699A60D0E9012365
:102100005A604A68824201D182684A6000220261B4
:102110000868401E0860704770B50D46040005D180
:1021200040F21B12F7A1FEA001F036FE01F044FDC3
:10213000D4E90F20216802FB001161600021A16336
:102140002168A1600A46D4E90F01401E00FB01216D
:10215000E16021464FF0FF3001F8440F487004F170
:1021600010004DB1FFF794FF04F12400FFF790FF3A
:1021700001F03CFD012070BD21690029F8D001F07B
:1021800082F80028F4D0EA494FF080500860BFF38D
:102190004F8FBFF36F8FEBE770B50E46050005D18B
:1021A0004FF4C472D7A1DEA001F0F6FD96B105FB95
:1021B00006F0483001F0AAFB040009D004F1480100
:1021C00020464EB10160C0E90F560121FFF7A4FF80
:1021D000204670BD0020ECE70060F4E72DE9F041F7
:1021E000044601F0E9FC94F9455004F1240609E0A5
:1021F000606A48B1304601F046F808B101F0F5F8E0
:102200006D1E6DB2002DF3DC4FF0FF3684F8456093
:1022100001F0ECFC01F0D0FC94F9445004F11007FB
:1022200009E0206948B1384601F02DF808B101F005
:10223000DCF86D1E6DB2002DF3DC84F84460BDE85F
:10224000F04101F0D3BC2DE9F041856B1646044600
:102250000027026CFAB17EB1E06801F037FDE16859
:10226000206C091AE1602268914202D26168081A62
:10227000E060022E0DD00EE0A06801F027FD216C79
:10228000A0680844A0606168884204D32068A06008
:1022900001E005B16D1E6D1CA5633846BDE8F081F7
:1022A0002DE9FF4F83B01F468B4604004FF0000618
:1022B00005D140F2D92293A199A001F06DFDBBF1A7
:1022C000000F07D1206C28B140F2DA228DA194A032
:1022D00001F062FD022F08D1E06B012805D040F229
:1022E000DB2288A18EA001F057FD01F082F838B9F9
:1022F000059828B140F2DE2282A189A001F04CFDB0
:102300004FF0000A4FF08058DFF8249201F054FC9F
:10231000A06BE16B884205D3022F03D00598C8B1AA
:10232000DEB11EE03A4659462046FFF78CFF616A4F
:1023300019B104F1240000F0A6FF28B1C9F800800B
:10234000BFF34F8FBFF36F8F01F050FC012007B038
:10235000BDE8F08F01F04AFC21E0684601F001F889
:10236000012601F043FC00F0A5FC01F025FC94F9E6
:102370004400401C01D184F844A094F94500401C5D
:1023800001D184F845A001F031FC05A9684600F0B0
:10239000F9FF30B12046FFF721FF00F0FDFB0020E0
:1023A000D5E701F009FCA06BE16B884201D1012562
:1023B00000E0002501F01AFC95B104F11000059928
:1023C00000F023FF2046FFF709FF00F0E5FB00289F
:1023D0009CD1C9F80080BFF34F8FBFF36F8F95E793
:1023E0002046FFF7FBFE00F0D7FB8FE72DE9F04713
:1023F0001F4690468946040005D140F29F3241A114
:1024000047A001F0C9FCB9F1000F07D1206C28B139
:102410004FF468723BA142A001F0BEFC022F08D12C
:10242000E06B012805D040F2A13236A13CA001F0BA
:10243000B3FC01F000FC5020EFF3118680F311880B
:10244000BFF34F8FBFF36F8FA06BE16B884206D352
:10245000022F04D0002086F31188BDE8F08794F99C
:1024600045503A4649462046FFF7EDFE681C04D029
:102470006D1C84F845500120EDE7606A0028FAD011
:1024800004F1240000F0FFFE0028F4D0B8F1000FA2
:10249000F1D00121C8F80010EDE770B50E46040038
:1024A00005D140F23C4217A11DA001F075FC206C43
:1024B00028B14FF4886213A119A001F06DFC2068C7
:1024C00038B9606828B140F245420EA114A001F06D
:1024D00063FC01F0B0FB5020EFF3118580F311880D
:1024E000BFF34F8FBFF36F8FA16BE06B884231D981
:1024F00094F94500491CA163411C1DD0401C84F87F
:10250000450017E02E2E5C2E2E5C467265655254F7
:102510004F535C7372635C71756575652E63000063
:102520004572726F723A25732C25640D0A00000003
:1025300004ED00E001200EE0606A0028E1D004F123
:10254000240000F0A0FE0028DBD0002ED9D001200E
:102550003060D6E7002085F3118870BD30B4026C7E
:102560000B46002A0BD0C1681144C1604468A142E7
:1025700001D30168C16030BC184601F0A7BB30BC74
:1025800070472DE9FF4F83B09B468A4604004FF009
:10259000000607D140F2DC42AFF29801AFF28000B2
:1025A00001F0FAFBBAF1000F09D1206C38B140F20A
:1025B000DD42AFF2B001AFF2980001F0EDFB00F0A8
:1025C00018FF48B9059838B14FF49C62AFF2CC01BE
:1025D000AFF2B40001F0E0FB4FF000094FF080577C
:1025E000DFF8448301F0E8FAA56B0DB351462046AD
:1025F000E668FFF7B3FFBBF1000F11D0E660606A39
:1026000050B104F1240000F03EFE28B1C8F800707B
:10261000BFF34F8FBFF36F8F01F0E8FA012096E60A
:102620006D1EA56320690028F6D004F11000EAE7CA
:10263000059808B11EB106E001F0D8FA27E0684617
:1026400000F08FFE012601F0D1FA00F033FB01F01B
:10265000B3FA94F94400401C01D184F8449094F9F1
:102660004500401C01D184F8459001F0BFFA05A94E
:10267000684600F087FE002820460AD0FFF7AEFD2E
:1026800000F08AFA204600F041F90028AAD0002084
:102690005DE600F03BF990B104F12400059900F0EB
:1026A000B4FD2046FFF79AFD00F076FA002899D194
:1026B000C8F80070BFF34F8FBFF36F8F92E72046CB
:1026C000FFF78CFD00F068FA8CE72DE9F0479046A3
:1026D0008946040007D14FF4B462AFF2D811AFF2CB
:1026E000C01001F059FBB9F1000F09D1206C38B1CD
:1026F00040F2A152AFF2F411AFF2DC1001F04CFB4A
:1027000001F099FA5020EFF3118780F31188BFF39D
:102710004F8FBFF36F8FA66BF6B194F944504946C3
:102720002046FFF71BFF761EA663681C04D06D1CB5
:1027300084F84450012010E020690028FAD004F108
:10274000100000F0A0FD0028F4D0B8F1000FF1D087
:102750000121C8F80010EDE7002087F311887CE61E
:102760002DE9F0410E46040007D140F2FC52AFF2D1
:102770006C21AFF2542001F00FFB4EB9206C48B130
:1027800040F2FD52AFF28421AFF26C2001F004FB65
:10279000206C38B940F2FE52AFF29821AFF280209F
:1027A00001F0FAFA01F047FA5020EFF3118580F3B7
:1027B0001188BFF34F8FBFF36F8FA06B30B13146DD
:1027C0002046E768FFF7CAFE0120E76085F311881D
:1027D00064E510B5040007D140F22F62AFF2DC21AE
:1027E000AFF2C42001F0D8FA01F0E6F9A46B01F0D1
:1027F000FDF9204610BD10B5040007D140F241623A
:10280000AFF20031AFF2E82001F0C6FA01F0D4F9DE
:10281000D4E90E10441A01F0E9F9204610BD10B5B4
:10282000040007D140F25162AFF22831AFF210300C
:1028300001F0B2FAA06B10BD3C4A002102EBC103CB
:102840005B68834206D1002042F8310002EBC101EF
:1028500048607047491C0A29F0D3704710B504003E
:1028600007D140F25D62AFF26431AFF24C3001F05B
:1028700093FA2046FFF7E0FF2046BDE8104001F044
:10288000B0B810B5040007D140F29372AFF28C31AA
:10289000AFF2743001F080FAA06B08B1002010BDD7
:1028A000012010BD10B5040007D140F2BA72AFF29A
:1028B000AC31AFF2943001F06FFAA06BE16B88425B
:1028C00001D1012010BD002010BD10B5174B002212
:1028D00053F832401CB1521C0A2AF9D310BD43F8F8
:1028E000321003EBC201486010BD10B500240F4A3E
:1028F000214602EBC1035B68834202D152F83140AA
:1029000002E0491C0A29F4D3204610BD10B5044644
:1029100001F052F9A06B20B1002401F067F92046C4
:1029200010BD0124F9E7000004ED00E0640300207D
:102930002DE9F041054601F03FF9FE4EB068401C1C
:10294000B0603068FC4F10B1706930B32BE0356077
:10295000B068012827D1002404EB840007EB800035
:10296000FFF796FB641C202CF6D3F448FFF790FB8E
:10297000F2481430FFF78CFBF0482830FFF788FB53
:10298000EE483C30FFF784FBEC485030FFF780FB0B
:10299000EA4870631430B06305E03068E96AC06AE1
:1029A000884200D83560706A0121401C7062E86A74
:1029B000326981401143316100EB800007EB8000F8
:1029C000291DFFF773FB01F011F9706900280CD085
:1029D0003068E96AC06A884207D2D9494FF080500E
:1029E0000860BFF34F8FBFF36F8FBDE8F0812DE913
:1029F000FF5F8346DDE90E87994616468A469000BA
:102A000000F084FF05001AD04C2000F07FFF040086
:102A100012D025630021CDE90241CDE900874B4664
:102A200032465146584600F0ADFE2046FFF780FF83
:102A3000012004B0BDE8F09F284600F0D2FF4FF01F
:102A4000FF30F6E770B5044601F0B6F8B94D04B9A9
:102A50002C68201DFFF74EFB58B9E06AB64A00EB20
:102A6000800152F8211021B9012181402869884351
:102A70002861A06A18B104F11800FFF73BFB686AEF
:102A8000401C68622868844208D1AC48211D3C3053
:102A9000FFF70CFB6868401C686007E0A868401EF0
:102AA000A860204600F0BFFE00F0B0FE01F09EF8E6
:102AB0006869002812D0286884420FD1286B28B199
:102AC00040F265429FA1A6A001F066F99C494FF033
:102AD00080500860BFF34F8FBFF36F8F70BD2DE93B
:102AE000F041944F0026386B38B1B869401CB8618A
:102AF000F86900B10126304677E7FD686D1CFD607E
:102B000011D1786B006828B140F6D9128DA194A03C
:102B100001F042F9786BB96B7963B863386A401C8D
:102B2000386200F073FEB86ADFF80C82854209D380
:102B3000786B006880B1786BC068C4686068854253
:102B40000DD2B8623868C06A00EB800158F82100E5
:102B50000128CDD90126CBE74FF0FF30F1E7201D4A
:102B6000FFF7C8FAA06A18B104F11800FFF7C2FA1B
:102B7000E06A01213A6981401143396100EB80012B
:102B800008EB8100211DFFF791FAE06A3968C96AF4
:102B90008842CDD30126CBE72DE9F047654D0024CF
:102BA0002746286B28B94FF4FD6266A16CA001F09E
:102BB000F3F801F001F8286B401E2863286BE0BB96
:102BC000A8685E4928310126B8B3DFF86C918846C1
:102BD000D8F80010E9B1D8F80C00C46804F1180066
:102BE000FFF788FA201DFFF785FAE06A2A6906FADE
:102BF00000F11143296100EB800109EB8100211DE7
:102C0000FFF754FAE06A2968C96A8842E0D3EE61A6
:102C1000DEE70CB100F0FAFDAC693CB1FFF75FFFF5
:102C200000B1EE61641EF9D10020A861E86920B10D
:102C3000434901273807086000E003E0BFF34F8FE6
:102C4000BFF36F8F00F0D2FF3846BDE8F0872DE963
:102C5000F041384E0F460446F5683068001DFFF716
:102C600049FA38B9306890F82C1001208840316951
:102C700081433161601C08D13FB13168BDE8F0414A
:102C80002E485030091DFFF711BA30682C44AC4271
:102C90004460316805D2B06BBDE8F041091DFFF713
:102CA00011BA706B091DFFF70DFAB06A844200D2A9
:102CB000B4629AE61F48016B491C016370472DE915
:102CC000F0410E4605004FF0000405D140F2794274
:102CD0001CA123A001F060F82EB940F27A4219A19C
:102CE0001FA001F059F8134F386B28B140F27B4216
:102CF00014A11BA001F050F8FFF7DCFFFA68286868
:102D00008119904202D9884202D804E0884201D851
:102D1000914200D9012429601CB1881A0021FFF7D3
:102D200096FFFFF739FF002826D105494FF0805064
:102D300008601DE000030020B403002034060020DA
:102D400004ED00E02E2E5C2E2E5C4672656552541A
:102D50004F535C7372635C7461736B732E6300001A
:102D60004572726F723A25732C25640D0A000000BB
:102D7000BFF34F8FBFF36F8F37E610B5040014D049
:102D8000FE49096B39B140F2CF42AFF24801AFF2D0
:102D9000300001F001F8FFF78DFF00212046FFF71A
:102DA00056FFFFF7F9FE002807D1F5494FF0805094
:102DB0000860BFF34F8FBFF36F8F10BD70B5050074
:102DC00007D140F2FB42AFF28401AFF26C0000F099
:102DD000E3FFEA4E3068854201D1002070BD00F06B
:102DE000EBFE6C6900F002FF706B844202D0B06BA6
:102DF000844201D1022070BDE248844204D1A86A15
:102E00000028F7D1032070BDDE481438844202D078
:102E10000CB1012070BD042070BD10B5044600F057
:102E2000CBFE0CB9D5480468E46A00F0DFFE20460A
:102E300010BD10B5044600F0FEFE5020EFF31181E6
:102E400080F31188BFF34F8FBFF36F8F0CB9CB485E
:102E50000468E06A81F3118810BD2DE9F041002675
:102E60000D460446202908D34FF4B062AFF22C116E
:102E7000AFF2141000F090FF1F2500F09DFEBF4F31
:102E800004B93C68E06AA8423BD03968854206D95B
:102E90008C4207D03968C96AA94202D902E08C4243
:102EA00000D101268046E562A069002802DBC5F159
:102EB0002000A061B44D08EB8800616905EB80003B
:102EC000814215D1201DFFF715F9012120B93A697A
:102ED00001FA08F082433A61E06A3A69814011439D
:102EE000396100EB800005EB8000211DFFF7DEF863
:102EF0003EB1A3494FF080500860BFF34F8FBFF33E
:102F00006F8FBDE8F04100F071BE70B59B4D286B2E
:102F100010B10120E86170BD0020E86128699A4E77
:102F2000B0FA80F0C0F11F0000EB800456F82400D6
:102F300038B940F6F622AFF2F411AFF2DC1000F02F
:102F40002BFF06EB840000F10802416849684160EC
:102F5000914201D149684160C868286070BD70B570
:102F6000044600F029FE854D04B92C68201DFFF7AA
:102F7000C1F858B9E06A844A00EB800152F8211088
:102F800021B901218140286988432861A06A18B1CC
:102F900004F11800FFF7AEF8211D7A48FFF786F814
:102FA00000F024FE686928B100F006FE00F02EFC57
:102FB00000F01CFE2868844213D1686990B1286B28
:102FC00038B140F25762AFF28421AFF26C2000F0CA
:102FD000E3FE6B494FF080500860BFF34F8FBFF3A3
:102FE0006F8F70BD6748A9680068884202D10020D1
:102FF000286070BDBDE8704087E770B5002504000B
:1030000007D140F28162AFF2C421AFF2AC2000F0F0
:10301000C3FE5C496069884205D1A06A28398842AC
:1030200001D000B90125284670BD70B504002BD031
:10303000524D2868844231D000F0BEFD2046FFF793
:10304000DCFFE8B1201DFFF755F8E06A01212A698D
:103050008140114329614C4900EB800001EB800065
:10306000211DFFF723F8E06A2968C96A884207D35F
:1030700043494FF080500860BFF34F8FBFF36F8F0D
:10308000BDE8704000F0B2BD40F2AB62AFF24C312F
:10309000AFF23430BDE8704000F07EBE70BD2DE967
:1030A000F0410026040007D140F2E262AFF26C3139
:1030B000AFF2543000F070FE00F0BDFD5020EFF391
:1030C000118580F31188BFF34F8FBFF36F8F2046B8
:1030D000FFF793FFF0B1294F386B20B1294804F175
:1030E0001801283814E0E06A3968C96A884200D3B8
:1030F0000126201DFEF7FEFFE06A01213A698140AA
:1031000011433961204900EB800001EB8000211D53
:10311000FEF7CCFF85F31188304666E41A4E4FF077
:103120008054174D00F089FB30680128FAD92C60D3
:10313000BFF34F8FBFF36F8FF4E71CB50F48002428
:103140002C30CDE900402346802210A11148FFF722
:103150004EFC01280CD0401C2BD140F28472AFF2FF
:103160001C41AFF2044002B0BDE8104000F014BEB4
:10317000502080F31188BFF34F8F0DE00003002033
:1031800004ED00E084060020B403002049444C45CF
:10319000000000001D310008BFF36F8FFF484FF0A3
:1031A000FF31816201214161C460BDE81C4000F033
:1031B000C1BC1CBD502080F31188BFF34F8FBFF3FB
:1031C0006F8FF6490020486100F0EABCF348C06800
:1031D000704710B500F02FFDF048C06810BDEF48F3
:1031E0008068704710B510B104461CB10AE0EB4886
:1031F0000468FAE740F68C02AFF2B841AFF2A040A3
:1032000000F0CAFD04F1340010BD70B50D46040095
:1032100007D140F60632AFF2D441AFF2BC4000F025
:10322000BBFDDE48016820461831FEF74BFF2846FB
:10323000BDE8704001210AE52DE9F04117460E4630
:10324000050007D140F61732AFF20851AFF2F04057
:1032500000F0A2FDD14C206B38B940F61B32AFF222
:103260001C51AFF2045000F097FD216846F0004079
:103270008861216828461831FEF718FF3846BDE8F6
:10328000F0410121E3E42DE9F041C068C4683CB994
:1032900040F66132AFF25451AFF23C5000F07CFD89
:1032A00004F118000746FEF725FFBC4D286B0126E8
:1032B00058B13946BA48FEF7F9FEE06A2968C96A8A
:1032C000884212D90120EE6116E4201DFEF712FF9C
:1032D000E06A2A6906FA00F111432961B14900EB5D
:1032E000800001EB8000211DE5E7002004E470B5BB
:1032F000AA4D06460C46286B38B940F69932AFF213
:10330000BC51AFF2A45000F047FD44F000403060E3
:10331000F4683CB940F6A132AFF2D851AFF2C050D8
:1033200000F03AFD3046FEF7E5FE201DFEF7E2FE16
:10333000E06A01262A6906FA00F1114329619949D8
:1033400000EB800001EB8000211DFEF7AFFEE06A7C
:103350002968C96A884202D90120EE6170BD002047
:1033600070BD10B5040007D140F6C132AFF22C6138
:10337000AFF2146000F010FD8848016A2160C06857
:10338000606010BD70B50D46040007D140F6CB3229
:10339000AFF25061AFF2386000F0FEFC3DB940F68C
:1033A000CC32AFF26061AFF2486000F0F5FC00F0A3
:1033B00003FC7A4AD06829684B1C0FD02368126A34
:1033C000934202D0626882420AD96268801A8842B7
:1033D00006D2081A28602046FFF7C3FF002400E049
:1033E000012400F003FC204670BD6C490120C86137
:1033F00070476A48416919B1006B18B100207047E5
:103400000120704702207047644908680A68806993
:10341000D26A0968C2F120028A61704770B50C4611
:10342000064600F0C9FB5D4D2868406C80B92968EC
:10343000012081F848005CB101212046FFF707FC1C
:1034400059494FF080500860BFF34F8FBFF36F8F23
:1034500000F0CCFB00F0B0FB2868446C002034B1D5
:1034600016B12968486402E02A68611E516429681F
:1034700081F8480000F0BAFB204670BD2DE9F0410C
:103480001E4615468846074600F096FB434C2068CA
:1034900090F84800022814D02068416CB943416478
:1034A0002168012081F848005EB101213046FFF714
:1034B000CEFB3D494FF080500860BFF34F8FBFF304
:1034C0006F8F00F093FB00F077FB15B12068406C24
:1034D0002860206890F8480001280DD02068416CD1
:1034E00021EA0801416401252168002081F8480093
:1034F00000F07CFB28463FE40025F5E72DE9F0418C
:103500001F4690460D4604004FF0010607D141F2D8
:10351000FD02AFF2D071AFF2B87000F03DFC00F0E8
:103520004BFB0FB1606C386094F84800022184F8BE
:103530004810B8F1050F0ED2DFE808F00D03060CB5
:103540000A00616C294301E0616C491C616402E07E
:10355000022803D06564012802D033E0002631E060
:10356000201DFEF7C7FD0D4DE06A01212A6981404B
:10357000114329610B4900EB800001EB8000211D04
:10358000FEF794FDA06A38B141F23512AFF64C0156
:10359000AFF6340000F000FCE06A07E00003002012
:1035A0005C060020B403002004ED00E02968C96A2D
:1035B000884207D9B4494FF080500860BFF34F8F5D
:1035C000BFF36F8F00F012FB3046A6E52DE9F04700
:1035D0001F46DDF8209092460D4604004FF001088A
:1035E00007D141F26812AFF6A401AFF68C0000F0EB
:1035F000D3FB00F020FB5020EFF3118680F31188FD
:10360000BFF34F8FBFF36F8F0FB1606C386094F8CA
:103610004800022184F84810BAF1050F0ED2DFE805
:103620000AF00D03060C0A00616C294301E0616C8D
:10363000491C616402E0022803D06564012803D0BC
:1036400031E04FF000082EE0A06A38B141F2AF122D
:10365000AFF61011AFF6F80000F09EFB8B4D286B13
:10366000012778B104F118018948FEF71FFDE06ACF
:103670002968C96A884216D9B9F1000F12D0C9F871
:10368000007010E0201DFEF735FDE06A2A6907FA98
:1036900000F11143296100EB80017E4800EB8100BD
:1036A000211DE2E7EF6186F311884046BDE8F0870F
:1036B0002DE9F0418846040007D141F2E312AFF64C
:1036C0007C11AFF6641000F067FB00F0B4FA5020F4
:1036D000EFF3118780F31188BFF34F8FBFF36F8F24
:1036E00094F84800022184F84810616C491C616418
:1036F00001282ED1A06A38B141F20922AFF6BC11DF
:10370000AFF6A41000F048FB604D286B012678B19D
:1037100004F118015E48FEF7C9FCE06A2968C96A2D
:10372000884216D9B8F1000F12D0C8F8006010E036
:10373000201DFEF7DFFCE06A2A6906FA00F111435A
:103740002961544900EB800001EB8000211DE2E774
:10375000EE6187F31188E0E410B558B1044600F03B
:103760002BFA94F84800022807D0002400F03EFA13
:10377000204610BD45480468F1E7002084F8480061
:103780000124F3E72DE9F0470E46DDE9098482467E
:103790006FF00301206B01EB82010844089D20F0CB
:1037A00007079946780705D040F22B323AA141A08D
:1037B00000F0F2FA00202218315C82F83410315CFB
:1037C00011B1401C1028F6D3002684F84360202D48
:1037D00000D31F25201DE562FEF765FC04F11800EB
:1037E000FEF761FC2461C5F120006462A06166649B
:1037F00084F848604A465146384600F07EF9206019
:10380000B8F1000F01D0C8F800404FE71F48416BE6
:10381000096829B1416BC968C96849688162704704
:103820004FF0FF31FAE710B50446006B00F0D9F80D
:103830002046BDE8104000F0D4B870B5144E134DCA
:1038400014361CE0FFF736FA306820B10024FFF789
:10385000A3F9A4B901E00124F9E700F0ADF9F0689B
:10386000C468201DFEF746FCA868401EA860686872
:10387000401E686000F0BAF92046FFF7D4FF686880
:103880000028DFD170BD000004ED00E0000300203F
:103890005C060020B40300202E2E5C2E2E5C4672A7
:1038A000656552544F535C7372635C7461736B73E0
:1038B0002E6300004572726F723A25732C25640DD9
:1038C0000A00000030B5744900E011460A688242DF
:1038D000FBD34B685C18844203D1406818444860AD
:1038E000084643681C18944209D16B4C103C24686C
:1038F000A24209D052681A4442600A681268026003
:10390000814200D0086030BD0460F9E72DE9F04144
:1039100005460026FFF7CEF95F4F103F386808B91B
:1039200000F098F8F86805424ED1002D4CD00835CB
:1039300068070BD005F00700C0F1080005446807D0
:1039400004D0BF2255A15FA000F026FA002D3BD085
:103950007868854238D850490846046801E0214615
:1039600004466068A84202D220680028F7D138686F
:10397000B846844228D00E6820680860606808361F
:10398000401B10280ED96719780704D0EC2243A1F8
:103990004CA000F001FA6068401B78603846656012
:1039A000FFF790FF6168D8F804004246401AC8F853
:1039B0000400D8F80830984200D29060D8F80C0083
:1039C00001430020C4E90001FFF7E6F8700705D0C5
:1039D0004FF4967231A13BA000F0DEF93046BDE80D
:1039E000F08170B500282BD02B4DA0F10804103DBC
:1039F0006068E968084205D14FF4A07227A131A0A0
:103A000000F0CAF9206828B140F2411223A12DA08C
:103A100000F0C2F96068E968084211D02268002A03
:103A20000ED188436060FFF745F960686968084413
:103A300068602046FFF746FFBDE87040FFF7ACB86E
:103A400070BD1548103840687047134810388068BA
:103A5000704770471F484FF48041420706D0C01D91
:103A60001C4920F00700411AC1F580410A4A002391
:103A70000144C2E900030839103A21F0070111603E
:103A80004B600B600B1AC0E9001393604FF00040CD
:103A90005360D060704700004C0300202E2E5C2E37
:103AA0002E5C4672656552544F535C706F72745C45
:103AB0004D656D4D616E675C686561705F342E6346
:103AC000000000004572726F723A25732C25640D58
:103AD0000A0000009806002069484068401C04D095
:103AE000F42268A171A000F057F9502080F31188EA
:103AF000BFF34F8FBFF36F8FFEE710B5031F4FF07B
:103B000080741C601B1F21F001011960191F6B4B91
:103B10000B60143940380A6010BD69484FF47A715F
:103B20000068B0FBF1F14FF0E020491E4161072130
:103B3000016170471CB5634908780190FF20087047
:103B400008788DF800009DF800004D4A00F0500004
:103B500010700720906007E09068401E90609DF80C
:103B6000000040008DF800009DF800000006F3D42E
:103B7000107A000200F4E0609060019808705248EA
:103B8000016841F470010160016841F07041016019
:103B9000FFF7C3FF00205060FCF7C4FA00201CBDF3
:103BA00037484068B0F57A7F05D04FF4B57235A13B
:103BB0003EA000F0F1B87047502080F31188BFF3A9
:103BC0004F8FBFF36F8F2E494868401C4860012813
:103BD0000BD13D481C38006810F0FF0F05D04FF4A2
:103BE000BD7228A131A000F0D7B8704710B5244CA1
:103BF000606828B940F2811222A12CA000F0CCF814
:103C00006068401E606001D180F3118810BD10B55E
:103C1000502080F31188BFF34F8FBFF36F8FFEF7F3
:103C20005EFF20B128494FF080501C390860002009
:103C300080F3118810BD10B5FCF7AAFA104C1028BB
:103C40000CD300F1E02090F8F0032178884205D2EF
:103C50004FF42A720BA115A000F09EF81A481438F0
:103C60000068A16800F4E060884207D9BDE8104010
:103C70004FF42E7203A10DA000F08EB810BD00000D
:103C8000540300202E2E5C2E2E5C46726565525425
:103C90004F535C706F72745C525644535C41524D8A
:103CA0005F434D335C706F72742E63004572726FA8
:103CB000723A25732C25640D0A000000D93A0008D9
:103CC0000000002000E400E020ED00E040EA0103F5
:103CD0009B0703D009E008C9121F08C0042AFAD2C2
:103CE00003E011F8013B00F8013B521EF9D2704786
:103CF00030B50B46014600202022012409E021FABC
:103D000002F59D4205D303FA02F5491B04FA02F5B8
:103D10002844151EA2F10102F1DC30BD064C074D0E
:103D200006E0E06840F0010394E80700984710348B
:103D3000AC42F6D3FCF7DEF9DC470008FC4700088C
:103D400070B58C1810F8015B15F0070301D110F85D
:103D5000013B2A1106D110F8012B03E010F8016B8A
:103D600001F8016B5B1EF9D12B0705D40023521E0D
:103D70000DD401F8013BFAE710F8013BCB1A921C75
:103D800003E013F8015B01F8015B521EF9D5A14273
:103D9000D8D3002070BD00000FB4054B10B503A9A7
:103DA000044A029800F02CF810BC5DF814FB0000E7
:103DB000ED190008600300200FB4084B10B504A9EA
:103DC00002AA039800F01CF8044602A9002000F0A3
:103DD000F3F8204610BC5DF814FB0000B93F000862
:103DE00002E008C8121F08C1002AFAD170477047C4
:103DF000002001E001C1121F002AFBD17047000022
:103E00002DE9FF4F8BB09A460F460546002606E087
:103E100025280BD052460D9990476D1C761C2878AA
:103E20000028F5D10FB03046BDE8F08F0024A04641
:103E30000122604900E0044315F8013F203B02FAEB
:103E400003F00842F7D128782E2817D115F8010F72
:103E500044F004042A280ED06FF02F022878A0F135
:103E6000300109290AD808EB880102EB410100EB77
:103E700001086D1CF2E757F8048B6D1C287869283F
:103E80003ED006DC0028CDD063280BD0642804D1B6
:103E900036E0732810D075284BD052460D999047C4
:103EA000761C85E017F8040B8DF8000000208DF8D3
:103EB0000100E946012003E057F8049B4FF0FF3072
:103EC00061074FF0000401D40AE0641C44450DDA98
:103ED0008442FADB19F804100029F6D106E0641CCC
:103EE0008442FCDB19F804100029F8D1264404E0D0
:103EF00019F8010B52460D999047641EF8D257E00D
:103F000001CF4FF00A0B002802DA40422D2102E0D7
:103F1000210504D52B218DF82410012103E0E107B0
:103F200005D02021F7E70DF1200908910CE00021D0
:103F3000F9E701CF4FF00A0BF9E75946FFF7D8FE32
:103F400001F1300209F8012D0028F6D1ADEB09008E
:103F500000F1200B600701D44FF00108D84502DDC5
:103F6000A8EB0B0000E000208046002406E009A832
:103F70005246005D0D999047641C761C0898844257
:103F8000F5DB04E0302052460D999047761CB8F1DD
:103F90000001A8F10108F5DC05E019F8010B524613
:103FA0000D999047761CBBF10001ABF1010BF4DCDD
:103FB0006D1C34E7092801000A68531C0B6010705F
:103FC00070470000000000000000002F000000000B
:103FD0000700070000147F147F1400242A7F2A1290
:103FE000006264081323003649552250000005037F
:103FF000000000001C224100000041221C000014AF
:10400000083E08140008083E0808000000A06000F0
:104010000008080808080000606000000020100880
:104020000402003E5149453E0000427F40000042EC
:1040300061514946002141454B31001814127F104F
:10404000002745454539003C4A494930000171097E
:10405000050300364949493600064949291E000032
:1040600036360000000056360000000814224100D9
:104070000014141414140000412214080002015109
:10408000090600324959513E007C1211127C007F12
:1040900049494936003E41414122007F4141221CAD
:1040A000007F49494941007F09090901003E414912
:1040B000497A007F0808087F0000417F4100002006
:1040C00040413F01007F08142241007F40404040B2
:1040D000007F020C027F007F0408107F003E4141F8
:1040E000413E007F09090906003E4151215E007FE3
:1040F000091929460046494949310001017F01015A
:10410000003F4040403F001F2040201F003F4038FC
:10411000403F00631408146300070870080700613B
:104120005149454300007F41410000552A552A5519
:10413000000041417F0000040201020400404040B1
:104140004040000001020400002054545478007FD5
:104150004844443800384444442000384444487FAC
:1041600000385454541800087E0901020018A4A411
:10417000A47C007F080404780000447D40000040D7
:1041800080847D00007F102844000000417F4000B3
:10419000007C04180478007C080404780038444447
:1041A000443800FC242424180018242418FC007C23
:1041B0000804040800485454542000043F4440209C
:1041C000003C4040207C001C2040201C003C403033
:1041D000403C004428102844001CA0A0A07C0044BF
:1041E00064544C441414141414140000000000000F
:1041F00000000000000000000000000000F80000C7
:104200000000000000333000000000100C06100C0D
:104210000600000000000000000040C07840C078A8
:104220004000043F04043F040400007088FC083090
:104230000000001820FF211E0000F008F000E01828
:10424000000000211C031E211E0000F008887000E1
:1042500000001E2123241927211010160E00000033
:1042600000000000000000000000000000E0180452
:104270000200000000071820400000020418E000BF
:1042800000000040201807000000404080F08040FF
:1042900040000202010F01020200000000F00000D5
:1042A00000000101011F01010100000000000000E9
:1042B000000080B07000000000000000000000005E
:1042C00000000001010101010101000000000000E7
:1042D000000000303000000000000000000080609E
:1042E0001804006018060100000000E01008081023
:1042F000E000000F102020100F00001010F8000048
:1043000000000020203F20200000007008080888DE
:1043100070000030282422213000003008888848AE
:1043200030000018202020110E000000C02010F8DE
:10433000000000070424243F240000F808888808AF
:1043400008000019212020110E0000E010888818B4
:104350000000000F112020110E0000380808C83896
:1043600008000000003F0000000000708808088876
:104370007000001C222121221C0000E010080810FF
:10438000E0000000312222110F00000000C0C00038
:10439000000000000030300000000000008000003D
:1043A000000000008060000000000000804020103D
:1043B0000800000102040810200040404040404036
:1043C0004000040404040404040000081020408099
:1043D00000000020100804020100007048080808CE
:1043E000F0000000003036010000C030C828E8109E
:1043F000E0000718272423140B000000C038E00059
:104400000000203C23020227382008F888888870A2
:104410000000203F202020110E00C03008080808AE
:104420003800071820202010080008F80808081095
:10443000E000203F202020100F0008F88888E808BE
:104440001000203F20202320180008F88888E80862
:104450001000203F200003000000C030080808388A
:10446000000007182020221E020008F8080000089B
:10447000F808203F210101213F20000808F8080822
:1044800000000020203F2020000000000808F8085D
:104490000800C08080807F00000008F888C02818CD
:1044A0000800203F20012638200008F808000000FE
:1044B0000000203F20202020300008F8F800F8F805
:1044C0000800203F003F003F200008F830C00008EF
:1044D000F808203F200007183F00E01008080810E7
:1044E000E0000F10202020100F0008F8080808082E
:1044F000F000203F210101010000E0100808081031
:10450000E0000F18242438504F0008F88888888865
:104510007000203F2000030C30200070880808083D
:1045200038000038202121221C00180808F808084B
:1045300018000000203F2000000008F808000008D4
:10454000F808001F202020201F000878880000C8DD
:104550003808000007380E010000F80800F80008CD
:10456000F800033C0700073C0300081868808068D7
:10457000180820302C03032C30200838C800C83815
:1045800008000000203F2000000010080808C8387C
:1045900008002038262120201800000000FE02021A
:1045A00002000000007F40404000000C30C00000CE
:1045B0000000000000010638C00000020202FE00F8
:1045C0000000004040407F000000000004020202A2
:1045D00004000000000000000000000000000000D7
:1045E00000008080808080808080000202040000C3
:1045F00000000000000000000000000080808080BB
:1046000000000019242222223F2008F800808000A8
:104610000000003F112020110E000000008080806B
:104620000000000E11202020110000000080808872
:10463000F800000E112020103F20000080808080B4
:104640000000001F222222221300008080F08888B0
:1046500088180020203F20200000000080808080FB
:104660008000006B94949493600008F80080808030
:104670000000203F210000203F200080989800008B
:1046800000000020203F20200000000000809898BB
:10469000000000C08080807F000008F8000080805B
:1046A0008000203F24022D302000000808F8000080
:1046B00000000020203F202000008080808080803B
:1046C0008000203F20003F20003F808000808080CD
:1046D0000000203F210000203F20000080808080DB
:1046E0000000001F202020201F008080008080000C
:1046F000000080FFA12020110E00000000808080BB
:104700008000000E112020A0FF808080800080802B
:10471000800020203F212000010000008080808058
:1047200080000033242424241900008080E080804D
:1047300000000000001F202000008080000000809A
:104740008000001F202020103F20808080000080FB
:10475000808000010E30080601008080008000800B
:1047600080800F300C030C300F00008080008080B0
:1047700080000020312E0E312000808080000080DB
:10478000808080818E70180601000080808080808B
:1047900080000021302C2221300000000000807CAD
:1047A000020200000000003F404000000000FF0047
:1047B000000000000000FF0000000002027C8000FA
:1047C00000000040403F000000000006010102021E
:1047D000040400000000000000000000FC47000886
:1047E0000000002064030000403D0008544A000817
:1047F0006403002034470000F03D00081184A24A01
:1048000004680D01020304060708090204060810E3
:10481000691402194242F07AFF0A111B3F20013944
:1048200005427F380908884828180FE80801313008
:104830000E2011090541817F010105091120100F8A
:104840008060F807404848E85F48484840403A01DF
:104850004C4008020B1222D20A0628090202C202A8
:104860000202FE820122025D4040407F0429014194
:10487000700AF8888C8A89888888F84BFF44013947
:10488000941C4044C40B1808401010FF101010A1D5
:10489000300F103C131014B840300E014080403FE0
:1048A00015FC0404FC1E1092BA9297042210150FF6
:1048B00004040F1809809F40201E20409F301808D4
:1048C0000C055555D5057F06155505140C194618C8
:1048D0000A8AA96B352525ABE9080C11180A106066
:1048E000028C02F21212FE021412F2021504047E6D
:1048F000014FFF48444340438216202020A0602FF0
:10490000FF60804020180F1C1008067B127F1C01DE
:10491000020441111640422410FF1A84A41A7F0495
:1049200012042010222212120AFE42270A122232F8
:104930004A424218081715D55557557D041CD51500
:1049400017D019FC198B29011A7F0C19101342CCAE
:10495000400B40A09E8282829EA02020100D3F909E
:104960008840432C102846418080260484C4B48C9F
:104970001FE40404FE42434F180B804428182720EC
:10498000404F4848032348402EFC848484FCD71CB5
:104990001010FF90111A3F09223F2B0106A5311478
:1049A000F801062BF012DC340202FE29D4161F1186
:1049B00011111F3921200F2020FF2020F8092A483B
:1049C000F8482A09F8380810301F080801FDA12B03
:1049D000FD0120390119253901111008808040207E
:1049E000100C031E030C102040A01114020CC01B5D
:1049F000F8088C1608FF08098A1702027F80403FDA
:104A000040091E925E20173846F15AE0761930218F
:104A100024080403599B111B010EE0100EE45C44B2
:104A2000C42010E82724E4342CE01C02017FC010CD
:104A30000A80601F09093F49897F55404042CC29BF
:104A40004261173F90482018073B07185101571A39
:044A5000AA01810036
:04000005080000ED02
:00000001FF
