:020000040800F2
:100000007847002099010008ED090008EF09000871
:10001000F1090008F3090008F509000800000000D4
:1000200000000000000000000000000001010008C6
:10003000F70900080000000045010008F909000860
:10004000B3010008B3010008B3010008B3010008C0
:10005000B3010008B3010008B3010008B3010008B0
:10006000B3010008B3010008B3010008B3010008A0
:10007000B3010008B3010008B3010008B301000890
:10008000B3010008B3010008B3010008B301000880
:10009000B3010008B3010008B3010008B301000870
:1000A000B3010008B3010008B3010008B301000860
:1000B000B3010008B3010008B3010008B301000850
:1000C000B3010008B3010008B3010008B301000840
:1000D000B3010008B3010008B3010008B301000830
:1000E000B3010008B3010008B3010008DFF80CD029
:1000F00001F0D6FC00480047750900087847002049
:10010000224B19680868B0E8F00F80F30988BFF344
:100110006F8F4FF0000080F311884EF00D0E704786
:100120000000000006480068006880F3088862B696
:1001300061B6BFF34F8FBFF36F8F00DF00BF00BF0B
:1001400008ED00E0EFF30980BFF36F8F0F4B1A68E3
:1001500020E9F00F106008B54FF0500080F31188CF
:10016000BFF34F8FBFF36F8F00F064FF4FF00000BD
:1001700080F31188BDE8084019680868B0E8F00FFE
:1001800080F30988BFF36F8F704700BF34000020F1
:10019000EFF3058070470000064880470648004797
:1001A000FEE7FEE7FEE7FEE7FEE7FEE7FEE7FEE727
:1001B000FEE7FEE75D020008ED0000080CB5002236
:1001C0004C4800920192016841F4803101604FF483
:1001D000A063016801F4003101910099491C00916C
:1001E000019911B900999942F3D10168890333D576
:1001F0000121019140490A6842F010020A600A6830
:1002000022F003020A600A6842F002020A604168B2
:10021000416041684160416841F4806141604168EA
:1002200021F47C114160416841F4E81141600168AA
:1002300041F08071016001688901FCD5416821F0BD
:1002400003014160416841F0020141604168C1F32E
:1002500081010229FAD10CBD01920CBD254810B5CF
:10026000016841F0010101604168244A1140416088
:100270000168234A11400160016821F48021016076
:10028000416821F4FE0141604FF41F018160FFF7D6
:1002900095FF1C494FF00060086010BD154A10B56D
:1002A0005068194B10F00C01184803D0042901D0F4
:1002B000082901D0036012E05168536801F47011FD
:1002C0004FF0020413F4803F04EB914102D05368D5
:1002D0009B0301D50E4B00E00B4B59430160516865
:1002E0000A4AC1F30311121D515C0268CA40026040
:1002F00010BD000000100240002002400000FFF886
:10030000FFFFF6FE08ED00E000127A00000000207A
:1003100000093D002849084328490860704730B566
:100320000F23C27801780125F2B1244A126801F145
:10033000E02102F4E062C2F5E062120AC2F10404B4
:10034000D3404278A24084781C401443220181F8B3
:100350000024007800F01F018D404009800000F16A
:10036000E020C0F8005130BD01F01F008540480971
:10037000800000F1E020C0F8805130BD104A1140EB
:1003800001430E48001F016070470C4A121D0029EE
:10039000116801D0014300E08143116070474FF0C4
:1003A000E0210428086903D020F0040008617047A8
:1003B00040F00400FAE700000000FA050CED00E050
:1003C00080FFFF1F8F4910B5884206D1012104200C
:1003D00000F049FA002104203BE08B49884206D115
:1003E0000121082000F03FFA0021082031E0874970
:1003F000884206D10121102000F035FA002110209A
:1004000027E08349884206D10121202000F02BFA01
:10041000002120201DE07F49884206D10121402093
:1004200000F021FA0021402013E07B49884206D1E8
:100430000121802000F017FA0021802009E077498F
:1004400088420AD184150121204600F00CFA0021CF
:100450002046BDE8104000F006BA10BD10B50121DD
:10046000084600F000FA0021BDE81040012000F02D
:10047000FAB9F0B5CC78002204F00F03E40601D5F8
:100480008C7823430C784FF00F0C14F0FF0F4FF0D3
:10049000010E1BD005680E880EFA02F42640A64213
:1004A00010D196000CFA06F725EA070703FA06F5BD
:1004B000CE783D43282E02D0482E02D002E044617F
:1004C00000E00461521C082AE5D305600A88FF2A6F
:1004D0001CD94468002202F108060EFA06F50E88BF
:1004E0002E40AE420ED196000CFA06F7BC4303FA3A
:1004F00006F7CE783C43282E00D14561CE78482EB1
:1005000000D10561521C082AE5D34460F0BD4FF6C6
:10051000FF710180022181700421C1707047024681
:10052000002092680A4200D001207047806880B2A3
:10053000704702460020D2680A4200D0012070476E
:10054000C06880B2704701617047416170470AB16D
:100550000161704741617047C160704741F480326A
:100560008261816182618169806970472C4B10B51D
:100570001A684FF68074224042EA0010084318605F
:1005800010BD2849C8617047F0B5254C002801DA34
:10059000E36900E06368450D2E0185B2C0F30157A1
:1005A000B540C0F30342032F05D0C6020AD5032687
:1005B0009640B34307E023F07062636823F07063F2
:1005C000636002E0AB4343F0706201B12A4300284C
:1005D00001DAE261F0BD6260F0BD10B58A0721F07A
:1005E00003040F49120F21440F238C6893409C434E
:1005F0008C608B68904003438B6010BD0949C1F843
:10060000DC00704700080140000C01400010014070
:100610000014014000180140001C0140002001406E
:100620000000014000002042A548016841F001019E
:1006300001604168A34A114041600168A24A11402B
:100640000160016821F480210160416821F4FE010C
:1006500041604FF41F018160704799490A6822F494
:1006600080320A600A6822F480220A60B0F5803F76
:1006700007D0B0F5802F03D1086840F4A0200860AF
:100680007047086840F48030F9E7034600205909B4
:100690008B4A01290AD002290AD0516A03F01F02AD
:1006A000012393400B4200D0012070471168F5E709
:1006B000116AF3E718B500204FF4A06400903120D0
:1006C000FFF7E3FF0099491C0091A14201D00028E7
:1006D000F5D03120FFF7D9FF002800D0012018BD48
:1006E000774A116821F0F80141EAC00010607047B4
:1006F000764908607047724B5A68084322F47C12AE
:100700001043586070477149086670476C4A5168D9
:1007100021F003010143516070476948406800F0CF
:100720000C007047664A516821F0F00101435160A6
:100730007047634A516821F4E0610143516070479A
:100740005F4A516821F4605141EAC000506070472F
:100750005B4A0029517A01D0014300E08143517284
:1007600070475A49C1F8D8007047554A516821F47A
:1007700040410143516070475149002281F82020D7
:1007800081F82020012802D0042802D1052081F818
:10079000200070474E490860704749490A6A024381
:1007A0000A6270474A4944390860704730B5444A84
:1007B0005168484B11F00C0103D0042901D00829DD
:1007C00001D0036012E05168536801F470114FF0DA
:1007D000020413F4803F04EB914102D053689B0361
:1007E00001D53D4B00E03B4B5943016051680F235D
:1007F00003EA1111394B5C5C0168E14041605468C7
:10080000072505EA14241C5D21FA04F48460546869
:1008100005EAD4241B5DD940C1605268032303EA72
:1008200092322E4B1B1F9A5CB1FBF2F1016130BD7D
:10083000234A0029516901D0014300E081435161FD
:1008400070471F4A0029916901D0014300E08143AC
:10085000916170471A4A0029D16901D0014300E033
:100860008143D1617047164A0029D16801D0014304
:1008700000E08143D1607047114A0029116901D01D
:10088000014300E08143116170471149403908601C
:1008900070470E49C86470470949C87170470848D5
:1008A000416A41F0807141627047054A014600206B
:1008B00092680A4200D0012070470149887270474F
:1008C000001002400000FFF8FFFFF6FE0000424269
:1008D0008004424200127A0000093D001800002006
:1008E00001B5009801E0401E00900028FBD108BD32
:1008F0002E4F2F4D2F4E7C140121384600F0B2F8B8
:10090000012803D16C61706800F0B2FB142000F084
:10091000DAFAF1E7264D4FF400544FF496766C6105
:10092000304600F0D0FA2C61304600F0CCFAF6E701
:100930001CB501F071F81F490220091D0402CDE920
:100940000001002322461CA11E4800F042F919496B
:1009500003200831CDE90001002322461AA11D48D9
:1009600000F037F91348006800F05EF9BDE81C405C
:1009700001F063B81CB54FF44070FFF7CBFC00F0FA
:1009800045F800F05FF80B490120CDE90001420273
:10099000002311A1144800F01CF9012802D04FF0E7
:1009A000FF301CBD00F01EFCFEE700000008014007
:1009B0000010014028000020546573745F54617377
:1009C0006B000000150900084B45595F5461736BBB
:1009D00000000000F10800084170705461736B431F
:1009E0007265617465000000310900087047FEE718
:1009F000FEE7FEE7FEE7704710B500F0DDFC0128DA
:100A000003D0BDE8104001F020B810BD38B5012179
:100A10001020FFF716FF4FF40054ADF800401020EF
:100A20008DF803000320064D8DF802006946284624
:100A3000FFF71FFD21462846FFF785FD38BD000062
:100A40000010014008B501210420FFF7FAFE012043
:100A5000ADF8000004208DF8030069460A48FFF74E
:100A600008FD08BD70B50C460546FFF758FD012886
:100A700001D0002070BD21462846FFF750FD012817
:100A8000F9D0012070BD00000008014000F108010C
:100A90004FF0FF32C0E90112C16001610021016025
:100AA000704700210161704742684A6093688B601B
:100AB00093685960916008610168491C0160704742
:100AC00030B50C68621C02D000F1080202E0026935
:100AD00004E01A4653681D68A542FAD953684B6072
:100AE00099608A60516008610168491C016030BDED
:100AF000D0E9013201699A60D0E901235A604A685D
:100B0000824201D182684A60002202610868401E68
:100B1000086070472DE9F041054600F07DFFFA4E70
:100B2000B068401CB0603068F84F10B1706930B3E5
:100B30002BE03560B068012827D1002404EB840045
:100B400007EB8000FFF7A2FF641C202CF6D3F048CF
:100B5000FFF79CFFEE481430FFF798FFEC48283071
:100B6000FFF794FFEA483C30FFF790FFE848503029
:100B7000FFF78CFFE64870631430B06305E030681F
:100B8000E96AC06A884200D83560706A0121401C59
:100B90007062E86A326981401143316100EB800084
:100BA00007EB8000291DFFF77FFF00F046FF70690B
:100BB00000280CD03068E96AC06A884207D2D5495B
:100BC0004FF080500860BFF34F8FBFF36F8FBDE8C9
:100BD000F0812DE9FF5F8346DDE90E8799461646D1
:100BE0008A46900000F026FE05001AD04C2000F046
:100BF00021FE040012D025630021CDE90241CDE998
:100C000000874B4632465146584600F05BFD204671
:100C1000FFF780FF012004B0BDE8F09F284600F0F8
:100C200053FE4FF0FF30F6E770B5044600F0F4FED7
:100C3000B54D04B92C68201DFFF75AFF58B9E06A7A
:100C4000B24A00EB800152F8211021B90121814004
:100C5000286988432861A06A18B104F11800FFF7D9
:100C600047FF686A401C68622868844208D1A84827
:100C7000211D3C30FFF718FF6868401C686007E0E2
:100C8000A868401EA860204600F06DFD00F055FDEC
:100C900000F0D3FE686900280BD02868844208D190
:100CA000286B9C494FF080500860BFF34F8FBFF313
:100CB0006F8F70BD2DE9F041934F0026386B38B12E
:100CC000B869401CB861F86900B1012630467EE77A
:100CD000FD686D1CFD6009D1786B786BB96B796329
:100CE000B863386A401C386200F027FDB86ADFF844
:100CF0001C82854209D3786B006880B1786BC0682C
:100D0000C468606885420DD2B8623868C06A00EB7A
:100D1000800158F821000128D5D90126D3E74FF0EA
:100D2000FF30F1E7201DFFF7E3FEA06A18B104F1E0
:100D30001800FFF7DDFEE06A01213A6981401143A6
:100D4000396100EB800108EB8100211DFFF7ACFE4B
:100D5000E06A3968C96A8842CDD30126CBE72DE91C
:100D6000F047694D00242746286B00F055FE286B9C
:100D7000401E2863286BE0BBA8686549283101261E
:100D8000B8B3DFF888918846D8F80010E9B1D8F8F0
:100D90000C00C46804F11800FFF7AAFE201DFFF73D
:100DA000A7FEE06A2A6906FA00F11143296100EB07
:100DB000800109EB8100211DFFF776FEE06A2968BA
:100DC000C96A8842E0D3EE61DEE70CB100F0B5FC01
:100DD000AC693CB1FFF76EFF00B1EE61641EF9D162
:100DE0000020A861E86920B14A4901273807086056
:100DF00000E003E0BFF34F8FBFF36F8F00F01DFEE5
:100E00003846BDE8F0872DE9F0413F4E0F460446D5
:100E1000F5683068001DFFF76BFE38B9306890F850
:100E20002C1001208840316981433161601C08D158
:100E30003FB13168BDE8F04135485030091DFFF73A
:100E400033BE30682C44AC424460316805D2B06B8C
:100E5000BDE8F041091DFFF733BE706B091DFFF7B8
:100E60002FFEB06A844200D2B462B0E62648016B1D
:100E7000491C0163704770B5234A05460E4600239E
:100E8000106BFFF7F3FFD2682C68A119944202D9C6
:100E90008C4202D804E08C4201D8914200D901234F
:100EA00029601BB1881A0021FFF7ADFFFFF757FF3C
:100EB000002807D117494FF080500860BFF34F8FCB
:100EC000BFF36F8F70BD10B502000BD00E48006BE2
:100ED000FFF7CCFF00211046FFF795FFFFF73FFF1C
:100EE000002807D10B494FF080500860BFF34F8FA7
:100EF000BFF36F8F10BD70B5034E05463068854255
:100F00000AD1002070BD00003400002094000020B1
:100F10001403002004ED00E000F07EFD6C6900F099
:100F20008CFD706B844202D0B06B844201D10220F0
:100F3000E8E7FE48844204D1A86A0028F7D10320DC
:100F4000E0E7FA481438844202D00CB10120D9E716
:100F50000420D7E710B5044600F05EFD0CB9F44854
:100F60000468E46A00F069FD204610BD10B504462F
:100F700000F07FFD5020EFF3118180F31188BFF363
:100F80004F8FBFF36F8F0CB9E9480468E06A81F3B3
:100F9000118810BD2DE9F04100260D460446202998
:100FA00000D31F2500F038FDE14F04B93C68E06A2A
:100FB000A8423BD03968854206D98C4207D03968AF
:100FC000C96AA94202D902E08C4200D101268046BA
:100FD000E562A069002802DBC5F12000A061D54DC3
:100FE00008EB8800616905EB8000814215D1201D66
:100FF000FFF77EFD012120B93A6901FA08F082432A
:101000003A61E06A3A6981401143396100EB80003E
:1010100005EB8000211DFFF747FD3EB1C6494FF0AB
:1010200080500860BFF34F8FBFF36F8FBDE8F04172
:1010300000F003BDBE4A106B10B10120D0617047B3
:101040000020D0611069BB49B0FA80F0C0F11F00E8
:1010500000EB800001EB800000F108034168496863
:101060004160994201D149684160C8681060704789
:1010700070B5044600F0D0FCAD4D04B92C68201DBD
:10108000FFF736FD58B9E06AAA4A00EB800152F832
:10109000211021B901218140286988432861A06A73
:1010A00018B104F11800FFF723FD211D9F48FFF739
:1010B000FBFC00F0C2FC686928B100F0ADFC00F058
:1010C0003CFB00F0BAFC286884420AD1686948B148
:1010D000286B99494FF080500860BFF34F8FBFF3E2
:1010E0006F8F0FE79148A9680068884202D10020FD
:1010F000286007E7BDE870409CE770B504002BD07E
:101100008B4D2868844227D000F086FC204600F0F2
:1011100034FBE8B1201DFFF7EBFCE06A01212A69EE
:10112000814011432961834900EB800001EB80007D
:10113000211DFFF7B9FCE06A2968C96A884207D314
:101140007D494FF080500860BFF34F8FBFF36F8F22
:10115000BDE8704000F071BCD4E62DE9F0410446D2
:10116000002600F086FC5020EFF3118580F31188F3
:10117000BFF34F8FBFF36F8F204600F0FEFAF0B140
:101180006B4F386B20B1694804F11801283814E01E
:10119000E06A3968C96A884200D30126201DFFF73A
:1011A000A7FCE06A01213A69814011433961614934
:1011B00000EB800001EB8000211DFFF775FC85F33B
:1011C0001188304603E55B4E4FF080545A4D00F0D5
:1011D000E2FA30680128FAD92C60BFF34F8FBFF3D1
:1011E0006F8FF4E71CB5524800242C30CDE9004045
:1011F0002346802251A15348FFF7EBFC012811D16F
:10120000502080F31188BFF34F8FBFF36F8F484892
:101210004FF0FF31816201214161C460BDE81C4093
:1012200000F0C3BB1CBD502080F31188BFF34F8F6B
:10123000BFF36F8F3E490020486100F0ECBB3C4893
:10124000C068704710B500F014FC3948C06810BD84
:1012500037488068704708B93548006834307047AF
:10126000024610B532480C46016810461831FFF7A7
:1012700027FC2046BDE810400121C4E510B52C4BE9
:1012800014460246186B41F00040196888611968DD
:1012900010461831FFF708FC2046BDE81040012138
:1012A000B1E52DE9F041C068C46804F118000746B3
:1012B000FFF71EFC1E4D286B012660B11B48394606
:1012C0002838FFF7F1FBE06A2968C96A884212D919
:1012D0000120EE617BE4201DFFF70AFCE06A2A6929
:1012E00006FA00F111432961124900EB800001EB7D
:1012F0008000211DE5E7002069E470B50C4D2A6BE4
:1013000041F000410160C468FFF7F2FB201DFFF7C8
:10131000EFFBE06A01262A6906FA00F11143296110
:10132000044900EB800001EB80000DE06403002025
:10133000340000209400002004ED00E049444C45B6
:1013400000000000C7110008211DFFF7ADFBE06A97
:101350002968C96A884202D90120EE61D2E50020DD
:10136000D0E5FB490A6A0260C9684160704770B500
:101370000D46044600F050FBF549CA682868431C36
:101380000FD02368096A8B4202D0616891420AD962
:101390006168511A814206D2401A28602046FFF740
:1013A000E0FF002400E0012400F047FB2046A9E50F
:1013B000E7490120C8617047E548416919B1006BF0
:1013C00018B1002070470120704702207047E049A3
:1013D00008680A688069D26A0968C2F120028A61D5
:1013E000704770B50C46064600F016FBD84D2868CD
:1013F000406C80B92968012081F848005CB1012166
:101400002046FFF700FDD3494FF080500860BFF33E
:101410004F8FBFF36F8F00F010FB00F0FDFA2868CC
:10142000446C002034B116B12968486402E02A688F
:10143000611E5164296881F8480000F0FEFA2046D8
:1014400060E52DE9F0411E4615468846074600F046
:10145000E3FABF4C206890F84800022814D02068B6
:10146000416CB94341642168012081F848005EB1B4
:1014700001213046FFF7C7FCB6494FF080500860A5
:10148000BFF34F8FBFF36F8F00F0D7FA00F0C4FAAD
:1014900015B12068406C2860206890F84800012849
:1014A0000DD02068416C21EA0801416401252168C2
:1014B000002081F8480000F0C0FA284607E4002523
:1014C000F5E72DE9F0411F4690460D4604460126FA
:1014D00000F0A2FA0FB1606C386094F84800022165
:1014E00084F84810B8F1050F0ED2DFE808F00D03BC
:1014F000060C0A00616C294301E0616C491C6164BF
:1015000002E0022803D06564012802D020E0002612
:101510001EE0201DFFF7ECFA8D4DE06A01212A69DB
:101520008140114329618C4900EB800001EB800070
:10153000211DFFF7B9FAE06A2968C96A884207D90C
:1015400084494FF080500860BFF34F8FBFF36F8F17
:1015500000F073FA304688E42DE9F0471F469246C2
:101560000D4604464FF00108DDF8209000F081FAA6
:101570005020EFF3118680F31188BFF34F8FBFF334
:101580006F8F0FB1606C386094F84800022184F8C6
:101590004810BAF1050F0ED2DFE80AF00D03060C71
:1015A0000A00616C294301E0616C491C616402E03E
:1015B000022803D06564012803D027E04FF000081B
:1015C00024E0634D286B012778B104F118016348CA
:1015D000FFF76AFAE06A2968C96A884216D9B9F140
:1015E000000F12D0C9F8007010E0201DFFF780FA3C
:1015F000E06A2A6907FA00F111432961564900EBB4
:10160000800001EB8000211DE2E7EF6186F3118885
:101610004046BDE8F0872DE9F0418846044600F0D9
:1016200028FA5020EFF3118780F31188BFF34F8F12
:10163000BFF36F8F94F84810022084F84800606C64
:10164000401C6064012924D1414D286B012678B1EA
:1016500004F118014148FFF727FAE06A2968C96ACE
:10166000884216D9B8F1000F12D0C8F8006010E017
:10167000201DFFF73DFAE06A2A6906FA00F11143DE
:101680002961354900EB800001EB8000211DE2E774
:10169000EE6187F3118895E510B558B1044600F066
:1016A000BBF994F84800022807D0002400F0C5F9DF
:1016B000204610BD26480468F1E7002084F8480061
:1016C0000124F3E72DE9F0479A46DDE909648146F4
:1016D0006FF00303206B03EB82021044089D20F09F
:1016E0000707002023180A5C83F834200A5C12B133
:1016F000401C1028F6D34FF0000884F84380202DBA
:1017000000D31F25201DE562FFF7CBF904F1180077
:10171000FFF7C7F92461C5F120006462A061C4F835
:10172000448084F8488052464946384600F020F903
:101730002060002E00D034606BE70548416B0968DB
:1017400071B1416BC968C96849688162704700001E
:101750003400002004ED00E0940000203C03002051
:101760004FF0FF31F1E710B50446006B00F0ACF824
:101770002046BDE8104000F0A7B81A4B426900218E
:101780009A4206D1806AA3F12802904201D000B9A2
:1017900001210846DAE770B5124E134D143E1CE0E5
:1017A000FFF764FB306820B10024FFF7D8FAA4B932
:1017B00001E00124F9E700F02FF9F068C468201D6A
:1017C000FFF796F9A868401EA8606868401E686028
:1017D00000F033F92046FFF7C6FF68680028DFD124
:1017E0007FE40000640300203400002030B55A4933
:1017F00000E011460A688242FBD34B685C188442C1
:1018000003D1406818444860084643681C18944255
:1018100009D1514C103C2468A24209D052681A44A4
:1018200042600A6812680260814200D0086030BDE0
:101830000460F9E72DE9F04105460026FFF716FBA5
:10184000454F103F386808B900F065F8F868054260
:1018500035D1A5B30835680704D005F00700C0F1FD
:10186000080005445DB37868854228D83A4908469F
:10187000046801E0214604466068A84202D220685C
:101880000028F7D13868844219D00E6820680860B3
:1018900060680836411B102904D9601941606560F1
:1018A000FFF7A4FF61687868401A7860BA689042D0
:1018B00000D2B860F86801430020C4E90001FFF7D6
:1018C0004EFA3046BDE8F08170B5002819D0224D9F
:1018D000A0F10804103D6068E968084211D0226850
:1018E000002A0ED188436060FFF7C0FA606869681B
:1018F000084468602046FFF779FFBDE87040FFF7B5
:101900002EBA70BD1448103840687047124810381D
:1019100080687047704711484FF48041420706D0F5
:10192000C01D0E4920F00700411AC1F580410A4A46
:1019300000230144C2E900030839103A21F00701ED
:1019400011604B600B600B1AC0E9001393604FF0FD
:1019500000405360D0607047800000207803002072
:10196000502080F31188BFF34F8FBFF36F8FFEE7D6
:1019700010B5031F4FF080741C601B1F21F0010184
:101980001960191F414B0B60143940380A6010BDB3
:101990003F484FF47A710068B0FBF1F14FF0E0205E
:1019A000491E41610721016170471CB5394908781A
:1019B0000190FF20087008788DF800009DF8000065
:1019C000354A00F0500010700720906007E09068E2
:1019D000401E90609DF8000040008DF800009DF8CA
:1019E00000000006F3D4107A000200F4E06090607A
:1019F000019808702948016841F47001016001688C
:101A000041F070410160FFF7C3FF00205060FEF716
:101A100089FB00201CBD7047502080F31188BFF364
:101A20004F8FBFF36F8F1C494868401C48600128E6
:101A300002D11A481C380068704717494868401E90
:101A4000486001D180F31188704710B5502080F3B1
:101A50001188BFF34F8FBFF36F8FFFF72BF920B1C2
:101A60000E494FF080501C390860002080F3118827
:101A700010BD10B5FEF78CFB102803D300F1E02059
:101A800090F8F00305481438006810BD611900088B
:101A90000000002000E400E08800002020ED00E0CD
:101AA000064C074D06E0E06840F0010394E80700AB
:101AB00098471034AC42F6D3FEF71CFBE41A00083A
:101AC000041B000802E008C8121F08C1002AFAD14E
:101AD00070477047002001E001C1121F002AFBD1AE
:101AE00070470000041B0008000000209400000064
:101AF000C41A0008981B000894000020E446000067
:101B0000D41A000800A24A040000000000000000EF
:101B10000102030406070809020406080000000089
:101B20000102030401020304060708090000000083
:101B300000000000000000000000000000000000A5
:101B40000000000000000000000000000000000095
:101B50000000000000000000000000000000000085
:101B60000000000000000000000000000000000075
:101B70000000000000000000000000000000000065
:101B80000000000000000000000000000000000055
:081B9000AAAAAAAA00000000A5
:04000005080000ED02
:00000001FF
