:020000040800F2
:10000000082F02207902000877C1010879AF0108A2
:1000100073C1010841A0010825CD010800000000BE
:10002000000000000000000000000000C101000806
:10003000FDA00108000000001502000835CB0108F2
:10004000930200089302000893020008930200083C
:10005000930200089302000893020008930200082C
:10006000930200089302000893020008930200081C
:10007000930200089302000893020008930200080C
:1000800093020008930200089302000893020008FC
:1000900093020008930200089302000893020008EC
:1000A00093020008930200089302000893020008DC
:1000B00093020008930200089302000893020008CC
:1000C00093020008930200089302000893020008BC
:1000D00093020008930200089302000893020008AC
:1000E000930200089302000893020008930200089C
:1000F000930200089302000893020008930200088C
:1001000093020008D5C30108930200089302000877
:10011000930200089302000893020008930200086B
:10012000930200089302000893020008C1A001088E
:10013000930200089302000893020008930200084B
:10014000930200089302000893020008930200083B
:10015000930200089302000893020008930200082B
:10016000930200089302000893020008930200081B
:10017000930200089302000893020008930200080B
:1001800093020008930200089302000893020008FB
:1001900093020008930200089302000893020008EB
:1001A000C5BD0108930200086DA00108DFF80CD05E
:1001B00000F008F9004800472DE10108082F02204F
:1001C0002A4B19680868B0E8F04F80F30988BFF33C
:1001D0006F8F4FF0000080F311887047000000001F
:1001E00006480068006880F3088862B661B6BFF30D
:1001F0004F8FBFF36F8F00DF00BF00BF08ED00E03F
:10020000DFF80C00016841F470010160704700BF25
:1002100088ED00E0EFF30980BFF36F8F134B1A688E
:100220001EF0100F08BF20ED108A20E9F04F10607B
:1002300008B44FF0500080F31188BFF34F8FBFF325
:100240006F8F1FF08FF94FF0000080F3118808BC0A
:1002500019680868B0E8F04F1EF0100F08BFB0EC46
:10026000108A80F30988BFF36F8F70475401002014
:10027000EFF30580704700000648804706480047B6
:10028000FEE7FEE7FEE7FEE7FEE7FEE7FEE7FEE746
:10029000FEE7FEE745CB0108AD0100082DE9F05F60
:1002A0000546002092469B468846064681464024E5
:1002B0001BE0284641464746224600F072F8534666
:1002C0005A46C01A914110D311461846224600F0F2
:1002D00059F82D1A67EB01084F46224601200021EC
:1002E00000F050F817EB00094E41201EA4F1010464
:1002F000DFDC484631462A464346BDE8F09F10B54C
:10030000441A0346944209D28418114403E011F8B8
:10031000013D04F8013D521EF9D210BD40EA01042E
:10032000A40703D009E010C9121F10C3042AFAD28F
:1003300003E011F8014B03F8014B521EF9D210BD36
:10034000D2B201E000F8012B491EFBD27047002217
:10035000F6E710B513460A4604461946FFF7F0FFC4
:10036000204610BD421C10F8011B0029FBD1801A49
:100370007047034611F8012B00F8012B002AF9D130
:1003800018467047202A04DB203A00FA02F10020C8
:1003900070479140C2F1200320FA03F319439040C3
:1003A0007047202A04DB203A21FA02F0002170472E
:1003B00021FA02F3D040C2F12002914008431946CD
:1003C00070470000064C074D06E0E06840F001036E
:1003D00094E8070098471034AC42F6D3FFF7EAFEE2
:1003E000243E0208443E020870B58D1810F8014BF7
:1003F00014F0030201D110F8012B231106D110F8DB
:10040000013B03E010F8016B01F8016B521EF9D1BA
:10041000ABB110F8012B04F00C048A1A0C2C03D099
:10042000A2EB84129B1C08E010F8014BA2EB042203
:10043000F8E712F8014B01F8014B5B1EF9D5A94210
:10044000D4D3002070BD000070B5456882B004466A
:10045000014628460DF0E6FD68B123680F2B59D000
:100460000BDD282B45D0B3F5107F3CD0112B49D0A4
:1004700020460EF095FA02B070BD0B2B20D00E2B4B
:10048000F6D1E3681A6859680D2A53D0202A31D171
:10049000002928464FF480717DDD0DF0AFFE28461F
:1004A00003F0F0FA02AB846A43F8040D184603F037
:1004B00039FCA207DFD52846012110F0C9F8DAE798
:1004C000284603F0DFFA02AD03466830019303F0DB
:1004D000BBF855F8040D03216C3003F0DBF8284617
:1004E00003F020FCC4E7324B214628461B6898479E
:1004F000C1E7E368002BBBD128464FF480710DF0B3
:1005000035FDB5E72B4B1B68002BB4D021462846A0
:100510009847B0E7284603F0B5FA02AB43F8040D5C
:10052000426E1468184603F0FDFB002CA3D0284649
:10053000A047A0E70029DDDD4FF4807128460DF0CB
:100540005DFE284603F09EFA02AC866A44F8040D6C
:10055000204603F0E7FBB10703D50121284610F040
:1005600077F84FF4807128460DF000FD284603F01F
:1005700089FA034620461E8E9C6A019303F0D2FB43
:10058000304607F0D9F8A3077FF575AF284602215A
:1005900010F05EF86FE70DF0E9FC284603F072FA00
:1005A00002AB846A43F8040D068E1846E6E700BFE6
:1005B00064020020980C02202DE9F04FB0F90A6087
:1005C000B0F90C708569B0F90E80B0F91090B0F9EF
:1005D00008A087B08B4616441F4404464C3505F0EE
:1005E00019F8DFF8CCC0CDF800B04FF0000E42464D
:1005F0003946304603954B46CDF808C0CDF804E0A7
:100600000EF0D0F8804628B907F0E0FB404607B06E
:10061000BDE8F08F03F036FA244F059051461022C2
:100620003E1D0DF099FF0DF118090FCE59F804ED9C
:100630000EF134050FC50FCE0FC596E80F0085E803
:100640000F007B6BCEF86430484603F06BFB7B6B8E
:1006500040465B68984707F0B9FB656804F0DAFF2D
:10066000404603F00FFA846E049004A8059403F04A
:1006700059FB2946484608F0DDFF0028C4D0059BF9
:100680009C4209D0404603F0FDF9059A8266034674
:1006900004A8049303F046FB40460FF005FC07F066
:1006A00095FB404607B0BDE8F08F00BF6402002014
:1006B00049040008F0B5954A8168436852F8216002
:1006C00089B00446122B3FD8DFE803F0AE3E3E3E31
:1006D0003E0A963E3E3E3E3E3E3E3E3E3E3E410051
:1006E000F569002D40F0B280371F57F8040F06F06F
:1006F00081FF04F110000FC85B1B521B29442844E2
:10070000013504F09DFC022DEFD132696169E36986
:100710000192A2692069F76800970B445B100231CF
:10072000521B284404F062FBE3696169B2690192DB
:10073000A269206974690094194449100131023B8F
:10074000521B284404F052FB002009B0F0BD0068A1
:1007500003F098F9856E0490002D00F0CF80A36817
:10076000B0F95C70002B00F0C780032B14BF00238E
:10077000022300EB8303406D1C6C06F053FF204600
:1007800006F038FF08AC06A804F0E6FDB6F81CE059
:10079000BDF81810BDF81C20BDF81A0054F8106DF3
:1007A000BDF81E307144CEEB02020230023BADF8C0
:1007B0001810ADF81C20B6F95E10B6F96020ADF83F
:1007C0001A0006A8ADF81E3006F040FA204603F0E5
:1007D000A9FA022006F098FF284603F053F908AC66
:1007E00006A944F80C0D3A4604F0D2F8204603F06E
:1007F00099FA002009B0F0BD006803F043F90490B5
:10080000206811F07DFBA8B9049B5D6F05B9DD6E12
:1008100004A803F087FA0023284621681A4603F04B
:10082000B3FF002009B0F0BD006810F089FA002085
:1008300009B0F0BDA368002B64D1049A136F002B9C
:1008400014BF6C23682313445D68E1E7B368039326
:1008500073680293374600F1140157F804090EC972
:1008600001902069009508F0B9F8002557F8040FA9
:1008700006F0C0FEF369A26921696069D21A1944C1
:10088000284404F087FBF369A2692169E069D21A60
:100890001944401B04F07EFBF369E2696169206939
:1008A000D21A1944284404F013FCF369E26961691F
:1008B000A069D21A401B1944013504F009FC022D2D
:1008C000D4D1B06806F096FEF16920696569E369E4
:1008D00042185B1A013A2944023004F051FCF169D4
:1008E000A2696569E369501A5B1A01302944023A2A
:1008F00004F046FCF56908E701233AE704A803F091
:1009000011FA21E7049BDD6E82E700BFA8330208DD
:100910002DE9F0430F4685B0064604F07BFE112F0B
:1009200049D0132F40D0304603F0ACF804AC034656
:10093000C06B44F80C3D03F09BFA8146204603F05F
:10094000F1F9A7F14103192B98BF2037B9F1000F36
:100950002CDD00250DF10C08304603F093F82946F4
:100960000346C06B039303F097FA0446404603F036
:10097000D9F9204684B103F085F80346029302A812
:1009800053B11C78A4F14103192B98BF2034E4B271
:1009900003F0C8F9BC4247D00135A945DCD107F0C6
:1009A00015FA05B0BDE8F083002E58D107F00EFA15
:1009B00005B0BDE8F083002EF8D004F02BFE3046E1
:1009C00003F060F80DF11008B0F9344048F8040D58
:1009D000404603F0A7F907F0F9F904B1013C04F02F
:1009E00019FE304603F04EF80390C06B03F040FA56
:1009F00000B10138039B8442B3F93420A8BF0446F8
:100A0000A24228D09C86404603F08CF930460FF075
:100A10004BFA304604210FF01BFE07F0D7F907F020
:100A2000D5F905B0BDE8F083002EBFD004F0F2FD8B
:100A3000304603F027F80390C06B03F019FA00B1B9
:100A40000138039B8542B3F93420A8BF0546AA426A
:100A500001D09D86D7E7404603F064F9DDE704F056
:100A6000D9FD304603F00EF80DF11008B0F934400E
:100A700048F8040D404603F055F907F0A7F904F0D3
:100A8000C9FD304602F0FEFF0390C06B03F0F0F9A1
:100A9000013400B10138039BA042B3F93420A8BF50
:100AA00020468242D7D09886ADE700BFF8B1F1B1B9
:100AB00070B5044682B00D4604F0ACFD204602F04D
:100AC000E1FF02ABC66B43F8040D184603F02AF9A8
:100AD0002846FFF747FC2946421C304603F046F9FA
:100AE00020460FF0E1F907F071F902B070BD7047D0
:100AF00070B5456882B00446284602F0C3FF02ABD9
:100B0000D0F8886043F8080D184603F00BF9214629
:100B100028460DF087FA58B32368112B5DD01CDCF2
:100B20000E2B27D00F2B64D00B2B1ED1284602F0A2
:100B3000A9FF0190C06B03F06BF9019B02ADD3F8E4
:100B400088000DF079FF55F8043DD3F8940002F0C9
:100B500051FD284603F0E6F807E0262B24D0B3F534
:100B6000107F00F09C80212B54D020460DF018FF00
:100B700002B070BDE3685A68002AF6DD1968A1F179
:100B80000903192B00F2988001227E489A401040F8
:100B90000028EAD1120226D4002B40F08D800EF0FE
:100BA000AFFA8642E1D114E0E1680A2900F08B80B7
:100BB0000B2900F08C800129D7D130460AF084FD42
:100BC0000028D2DB30460AF07FFD0646002D40F0BB
:100BD0009A8028460FF0C8FFC7E7002EC5D1E3680A
:100BE0001B7A002BC1D0002DBFD0284600F086FA1A
:100BF000BBE7284602F046FF02AB43F8040DD0F8ED
:100C000084201668184603F08DF8002EADD02846D3
:100C1000B047AAE7E3685A68002AA6DD1B680D2BD7
:100C2000A3D130460AF050FD002862DB30460AF0BE
:100C30004BFD0646002DCCD004F0ECFC284602F01B
:100C400021FF0190C06B03F013F900B10138019A44
:100C50008642B2F934103346A8BF03468B4201AE38
:100C600000F08C809386304603F05CF828460FF045
:100C70001BF9042128460FF0EBFC07F0A7F804F05D
:100C8000C9FC284602F0FEFE0190D0F8880000283A
:100C90006AD1304603F046F807F098F899E7E36820
:100CA00063B31B7A28461BB101210FF0D1FC5FE72B
:100CB00002210FF0CDFC5BE7002D3FF459AF284631
:100CC000FFF726FE54E728460FF0C2FC4DE7002D43
:100CD0003FF44BAF04F09EFC284602F0D3FE019097
:100CE000D0F8880080BB01A803F01CF807F06EF86C
:100CF0003BE7002D3FF46DAF01AEC0E7284603216E
:100D00000FF0A6FC34E704F085FC284602F0BAFE9A
:100D10000190C06B03F0ACF800B30138019BB04206
:100D2000B3F93420A8BF3046824219D0988601A872
:100D300002F0F8FF28460FF0B7F8042128460FF01C
:100D400087FC07F043F844E70DF076FE019B002294
:100D50002846C3F888200FF0A7F8C4E70020DDE795
:100D600001A802F0DFFFECE70DF066FE019B002218
:100D7000C3F8882028460FF097F88AE7304602F03B
:100D8000D1FF7AE7020004032DE9F04FB0F90A70B1
:100D9000B0F90CB08569B0F90E60B0F91080B0F808
:100DA0001290B0F9084087B08A4617449B446C35CE
:100DB00004F030FC374BCDF800A04FF0000A32466B
:100DC0000293594638460395CDF804A04FF0FF33FF
:100DD0000DF0E8FC064628B906F0F8FF304607B0EB
:100DE000BDE8F08F02F04EFE2B4F049021461022FA
:100DF0003D460DF0B1FB0FCDDDF810E00EF14C04D7
:100E00008EF88C900FC40FCD0FC40FCD0FC495E892
:100E10000300BB6B84E80300CEF8843030468EF8C4
:100E200090A0AEF8368002F02DFEB0F93830059073
:100E300023B9C06C04F048FB03460598C26AB0F9B8
:100E40008040126802EB44041C4410F04FFC05463D
:100E500005A802F067FF22462946304610F026F822
:100E600004A802F05FFF02F0CFFF0446304602F014
:100E700009FE034604A8DC63049302F053FFBB6B36
:100E800030465B68984706F0A1FF304607B0BDE8E2
:100E9000F08F00BFF10A00089C0200202DE9F0410C
:100EA000044688B0006802F0EDFD034608A8D3F8B8
:100EB000886040F8103D5F8E02F034FF206811F02A
:100EC0001FF826B9FB0740F1A480894D00E0894D49
:100ED0006368122B00F29980DFE813F0020197009B
:100EE000D90097009700130097009700970097008C
:100EF000970097009700970097009700970097003A
:100F0000A200AB6803936B6802932B680193AE6AEF
:100F100004F110000FC8009607F060FD2F1F002697
:100F200057F8040F06F066FBAB6AA2692169606995
:100F3000D21A1944304404F02DF8AB6AA269216931
:100F4000E069D21A1944801B04F024F8AB6AE26904
:100F500061692069D21A1944304404F0B9F8AB6AC7
:100F6000E2696169A069D21A801B1944013604F054
:100F7000AFF8022ED4D1A86A022819DDA86806F0BD
:100F800039FBA96A20696669E36942185B1A013A6C
:100F90003144023004F0F4F8A96AA269E369666991
:100FA000501A01305B1A023A314404F0E9F8A86A99
:100FB0002A696169E36901922669A269EF6800976D
:100FC0000B44121A5B103044023103F00FFFE36947
:100FD0006169AE69A86AA269019626696F6900977E
:100FE00019444910121A0131023B304403F0FEFE4D
:100FF000686A06F0FFFAE2696169A369501A181A73
:101000000130043A043104F063F8002008B0BDE870
:10101000F081394BA3F12C05002808BF1D4657E786
:10102000206802F02FFD034608A8B3F9808040F83D
:101030000C3DDF6CB3F9826002F074FEA08AA369F4
:10104000216903441FFA88F2033B11449B1AA28BC7
:1010500000F1020E9B1A0231023A0220ADF818107C
:10106000ADF81AE0ADF81C30ADF81E2006F04CFBD0
:10107000384606F0D7FA286A06F0BCFA206A3246EB
:1010800006A903F085FC002008B0BDE8F08104F15A
:1010900014010EC95C1AA4F108067610E86906F17D
:1010A000FF38651CA2EB6505C8EB040406F0A2FA44
:1010B000B8F1000F4FEA6404A7DBAF1B01374544CA
:1010C0003F1B26442A4639192046013403F062FFAB
:1010D000A64205F1FF35F5D1002008B0BDE8F0814A
:1010E00020680FF02DFE002008B0BDE8F08100BFA1
:1010F0008404002058040020DC0400202DE9F04F77
:1011000007469BB004F086FA384602F0BBFC0D900F
:1011100038460EF093FA0D9B0690DD6B93F8902005
:10112000B3F9364093F88C800B922846B3F934A07B
:1011300002F09EFE0D9A064692E803000FAB83E88C
:1011400003000A93936D1393D36D1493136E159349
:10115000536E1693136F1793536F106D516D189351
:10116000D36C119012910793916FD2F8943005933C
:101170000DA81991B2F88EB0B2F9829002F0D2FDAA
:1011800038460EF049F902F07DFC02461AA8B2F981
:10119000001040F8382DB2F902200991089202F0AF
:1011A000C1FD0A9B089A099918465242494205F026
:1011B0004DFD18F0020F17BFBDF83E30BDF94230AB
:1011C0001B1B1BB23846ADF83E300EF025F90194DA
:1011D00001460224069800900294BDF93E30BDF904
:1011E0003C2000200AF0FEF918F0010F044679D1E6
:1011F0004FF000085EB14146284602F04DFE08F16E
:1012000001080146204609F0C5FD4645F3D10026F8
:1012100011AD55F826203146204601360AF094FCDF
:10122000032EF6D1002614AD55F82620314620466F
:1012300001360AF0E7FE032EF6D1002617AD55F869
:1012400026203146204601360AF060FD032EF6D1F5
:10125000059B4BBB594620460AF01CFD07992046CA
:101260000AF096FC494620460AF0B2FE20460FF0EE
:101270007BFC394620460AF029FD514620460AF0FB
:10128000C1FD012138460FF0E3F9384602F0FAFBC0
:1012900003460DA8C3F888400D9302F043FD06F005
:1012A00095FD1BB0BDE8F08F184602F0EBFB0688F9
:1012B0000E9005464FF0000886B105EBD80308F004
:1012C00007029B7843FA02F2414602F001022046EF
:1012D00008F101080AF07AFCB045EED10EA802F040
:1012E00021FDB7E70B990AF057FD012120460AF0CE
:1012F000F5FB7DE700B970472DE9F043054683B063
:101300000C4604F087F9284602F0BCFB0346009027
:10131000C06CD3F8887004F0D7F8804602A850F863
:10132000083DDC6402F0FEFC284602F0ABFBB0F99D
:101330003830019023B9C06C04F0C6F80346019818
:10134000C26AB0F98060126802EB46061E4410F0D3
:10135000CDF9814601A802F0E5FC2846324649460F
:101360000FF0A4FD28460EF09FFD27B906F02EFDD4
:1013700003B0BDE8F083204604F0A6F8804510D005
:1013800004F048F9284602F07DFB0190D0F888006F
:1013900080B901A802F0C6FC06F018FD2846FFF748
:1013A000ADFE214638460AF0F3FB06F00FFD03B010
:1013B000BDE8F0830DF040FB019B0022C3F88820BC
:1013C00028460EF071FDE4E730B583B00C4602F01C
:1013D00059FB02AD214645F8040DC06B02F05CFDDF
:1013E0000446284602F09EFC20460CB102F04AFB5F
:1013F00003B030BD2DE9F04F44688BB00546204660
:1014000010F07EFD2946064620460CF00BFE002813
:1014100038D02B680F2B60D037DC0B2B4AD00E2B2B
:1014200055D1002E53D0EB685A68002A4FDDD3F80F
:101430000080A8F10903192B06D80121C24A01FA3C
:1014400003F31A40002A42D1E4B104F0E3F8204645
:1014500002F018FB0AAE034646F8180D876D93F8A4
:1014600054A0D3F83490DD6C304602F05BFC002FC2
:1014700000F0E18041462046B84720460EF014FDBA
:1014800006F0A4FC0BB0BDE8F08F40F213129342BB
:1014900028D0B3F5107F1AD1EB68002B00F09880AC
:1014A0001A7A002A51D0002C40D1204601210FF099
:1014B000CFF80CE0204602F0E5FA0AAC034644F807
:1014C000043D343002F0C0F8204602F02BFC2846E0
:1014D0000DF066FA0BB0BDE8F08F2046012116F042
:1014E00061FCCFE720460FF01BFA204602F0CAFA53
:1014F0000AAE46F8040D90F8563083F0040380F8E5
:101500005630304602F00EFC0021204616F04AFC10
:10151000204602F0B7FA00210346D0F88400099370
:101520000FF094F9304602F0FDFBD0E71E6804F09E
:1015300071F8204602F0A6FA0790406B50B907A850
:1015400002F0F0FB06F042FCAFE7204602210FF06C
:101550007FF8BCE702F096FA079B0690986E06F0BB
:1015600061F8804620460EF069F80746069803F0B9
:101570006FFF079A136E03F00303012B814600F0FF
:10158000E781022B40F0DD813B1A013303EBD3737B
:10159000A6EB6306069807F08DFE002E0746C0F204
:1015A000F781B14519DA204602F06CFA0890406BD9
:1015B000002840F0D38108A802F0B4FB06A802F08E
:1015C000B1FB404606F02EF820460EF06DFCB6E763
:1015D000204603210FF03CF879E702463146069891
:1015E00007F0E4FD0646204602F04CFA0890406BF6
:1015F0000028E0D002F046FA099007F05BFE089957
:10160000B1F9387091F854E0CA6C26EAE673BEF17D
:10161000000F0CBF3E467E1EB342A8BF3346984221
:10162000A8BF1846824200D0C86400230B6509A8F1
:1016300002F078FBBFE7A8F10803162B00F2E68062
:10164000DFE813F09F00E400E400E400E400E400BD
:10165000E400E400BB00840075004700E400E400FF
:10166000E400E400E400E400E400E400E400380006
:101670001700204602F006FA03460AA85D6B40F800
:10168000083DDF6C02F04EFB002D3FF4F6AE28461D
:1016900002F0F8F939460646099006F067FA054661
:1016A0003046FEF75FFE8542C0F0DF8109A802F0F8
:1016B00039FBE2E6204602F0E5F9BAF1010F0490A9
:1016C00040F08581002380F85430304602F02AFB38
:1016D000D3E6B9F1000F3FF4D0AE484602F0D2F99C
:1016E00029460646099006F041FA0644304606F0BF
:1016F000E7F9002305468DF82230ADF8203006F0DA
:10170000FFF9013D0746ADB2284606F0F9F98742D8
:10171000CCD1294608A806F0C1F908A93A463046B6
:10172000FEF7EDFD052120460EF092FFBEE72046B4
:1017300002F0A8F90890406B002840F0A68108A8A4
:1017400002F0F0FA99E600BF13000403B9F1000FAC
:101750003FF493AE484602F095F9294606460990B3
:1017600006F004FA0644304606F0AAF900230546BE
:101770008DF82230ADF8203006F0C2F90135074669
:10178000C1E7002D3FF479AE204602F07BF90890C6
:10179000406B002840F0968108A802F0C3FA20466A
:1017A00002F070F9034608A85D6BDF6C089302F045
:1017B000B9FA002D3FF461AE69E7204602F062F904
:1017C0000890406B0028BAD002F05CF9099007F04D
:1017D00071FD0899B1F9386091F85470CA6C6B1EAC
:1017E00023EAE373002F0CBF3546751EAB42A8BF3A
:1017F0002B469842A8BF184682424FF0000318BFFC
:10180000C8640B6509A802F08DFA98E7B8F11F0FBC
:101810007FF733AEBAF1000F40F00581204602F0A9
:1018200031F9B0F938300590002B814607DD406B67
:10183000002840F06D8107469F4280F265810DF1DE
:1018400028091FFA88F31E46019359F8143DDB6CF2
:101850000393484602F066FA304606F051F9834693
:10186000204602F00FF90690406B002840F093816B
:1018700006460AA80BEB060350F8102D568F0133CD
:101880009E1B02F04FFA002E40F38281204602F0A8
:10189000F9F80AAFB0F83A8047F8080D06F11003DE
:1018A000D0F834A09844384602F03CFA41465046FD
:1018B00002F0FAF8029000283FF4DFADBAF1000F11
:1018C00000F0588109AE204602F0DCF8029B089037
:1018D000A0F83A804363384602F024FA204602F02A
:1018E000D1F803464846D3F83480059302F01AFA3B
:1018F000404602F0C7F803990990804606F036F991
:1019000080444046FEF72EFD4146421C08EB0B008A
:10191000FEF7F5FC0199404606F0C0F8304602F0AB
:1019200001FA052120460EF093FE204602F0AAF8A7
:101930000890406B002840F0F980384602F0F2F938
:101940009BE5D36A526E1B6801321344F61A21E6F6
:10195000536E3F1A0133FB1AF61A1BE602F092F897
:10196000099007F0A7FC0899B1F9383091F8546054
:10197000CA6C002E18BF013B27EAE777BB42A8BF1D
:101980003B469842A8BF184682427FF44DAE4CE6D3
:10199000204602F077F80890406B00283FF40BAE29
:1019A00002F070F8099007F085FC0899B1F9383019
:1019B00091F85460CA6C002E18BF013B03EAE37330
:1019C0009842A8BF184682427FF42EAE2DE601232E
:1019D00080F85430204602F055F80890406BF0B182
:1019E00002F050F8099007F065FC0899B1F9383019
:1019F00091F85470CA6C002F18BF013B25EAE575B9
:101A0000AB42A8BF2B469842A8BF184682424FF06F
:101A1000000318BFC8640B6509A802F083F908A881
:101A200002F080F951E6204602F02CF80AAF466B2E
:101A300047F8080D03463846D3F84C9002F072F987
:101A4000002E3FF4EBAE304602F01CF84946074644
:101A5000099006F08BF806463846FEF783FC86426E
:101A600020D309A802F05EF9D8E63544284606F0EE
:101A700037F829182846FEF77CFC09A802F052F92D
:101A8000052120460EF0E4FDF7E401F0FBFF09908C
:101A900007F010FC08996B1CB1F9386091F854708C
:101AA000CA6C9DE63E44304606F01AF831183046BE
:101AB000FEF75FFC09A802F035F9052120460EF07B
:101AC000C7FDABE601F0DEFF099007F0F3FB0899D4
:101AD000B1F9386091F85470CA6C6B1E23EAE37355
:101AE000002F0CBF3546751EAB42A8BF2B4698424F
:101AF000A8BF184682424FF0000318BFC8640B65A8
:101B000009A802F00FF947E605A802F00BF9B4E4C2
:101B100001F0B8FF0AAE46F8040D07F0CBFB07460C
:101B2000304602F0FFF8B9F9383085E601F0AAFF37
:101B3000099007F0BFFB0899B1F938E091F854C05B
:101B4000CA6C6B1C23EAE373BCF1000F0CBF754633
:101B5000AEF10105AB42A8BF2B469842A8BF18467C
:101B600090424FF0000318BFC8640B65304602F086
:101B7000D9F8E2E601F086FF0AAE0D4B46F8040DF7
:101B800051461B6842469847304602F0CBF89AE629
:101B900009AE08AFA2E601F075FF0AAF47F80C0DD9
:101BA000FEF7E0FB0646384602F0BCF861E600BFEF
:101BB000B80300202DE9F04F89B08046139C129E97
:101BC000424D894692469B4644F48054602703F078
:101BD00021FD009601945B465246494640460397D4
:101BE00002950CF0DFFD064628B906F0EFF8304606
:101BF00009B0BDE8F08F01F045FF354D159905900E
:101C000010220CF0A9FC0FCD059F07F160040FC452
:101C10000FCD0FC42B682360169B013318BF01231F
:101C200087F88830169B002BC8BFBDF958304FF09D
:101C30000102CCBF9C18082387F855204FF0000202
:101C40003B877A877A6305A8D8BF092402F06AF82F
:101C5000304601F017FF0DF120080346428F48F887
:101C6000080D5D6B1444404602F05CF8214628469E
:101C700001F01AFF0746F8B17DB1304601F002FFCE
:101C8000034640465C875F63069302F04BF806F01C
:101C90009DF8304609B0BDE8F08F01F0F3FE0DF17C
:101CA00020090C4B49F8040D29461B682246984729
:101CB000484602F037F8E0E730460CF0BDFE06F08B
:101CC00085F83E46304609B0BDE8F08FF5130008B0
:101CD00008050020B8030020014B9868704700BF3A
:101CE0000805002010B5044682B068B103F092FCEC
:101CF000204601F0C7FE02AB846C43F8040D184681
:101D000002F010F806F062F8204602B010BD00BFE5
:101D100000B9704770B5044682B016460D4603F010
:101D200079FC204601F0AEFE0346019008B1022D79
:101D300006D901A801F0F6FF06F048F802B070BD20
:101D400005F11E01204643F821600EF0ADF8F0E7E2
:101D5000F0B5044683B00D4603F05CFC1CB906F0F8
:101D600035F803B0F0BD204601F08CFE0090406BCA
:101D7000F8B101F087FE019007F09CFA009AB2F9E1
:101D8000386092F85470D16C25EAE573002F0CBFCF
:101D90003546751E9D42A8BF1D46A842A8BF2846CD
:101DA00081424FF0000318BFD064136501A801F011
:101DB000B9FF684601F0B6FF20460EF075F806F050
:101DC00005F803B0F0BD00BF2DE9F04782B006462C
:101DD000894614461D469DF82C8003F01BFC26B94D
:101DE00005F0F4FF02B0BDE8F087304601F04AFE8E
:101DF00002AF034647F8043D4548464993F888A09A
:101E0000C3F8489000229DF828E098654FF001093A
:101E1000DC631D6483F844E083F85680D965DA6496
:101E2000384683F8549001F07DFFBAF1000F31D0AD
:101E3000002D65DB092D48460CDD374A82FB051372
:101E4000ED17C5EBA305092D00F10100F6DCB9F192
:101E5000FF3F41D0002C4CDB092CD8BF01210DDD08
:101E6000012529462C4A82FB04E3E417C4EBA304B2
:101E7000092C01F10101F6DC013524D00A9B3BBBA2
:101E800018F0010F18BF01308142B8BF014630463B
:101E900000F046F8304617F0DFFB304601F0F2FD67
:101EA000019000F0FDF81D4B1B7883421AD0384694
:101EB00001F038FF30460DF0F7FF05F087FF02B064
:101EC000BDE8F08702210A9A4B1E9A42D6D1013111
:101ED00001310130D4E702200A9A431E9A4208BF1A
:101EE0000130B7E7019BD96C3046013100F0F6F8BC
:101EF000DDE76442092CE5DD4FF0FF350221B1E753
:101F00006D42092DE7DD4FF0FF39022095E700BF54
:101F1000792701085996010867666666B00E0220A7
:101F200000B970472DE9F04F054685B00C4603F027
:101F300071FB284601F0A6FDB0F938300090A342AD
:101F40003CD0468F02DD406B002839D1684601F055
:101F5000E9FE284601F096FD04AF438F47F8080DCF
:101F6000A61BD0F8349001361E44384601F0DAFE44
:101F70003146484601F098FDE846824668B1B9F11D
:101F8000000F28D0284601F07DFD034638465E87C5
:101F9000C3F834A0029301F0C5FE284601F072FD9B
:101FA000034628461C8700930DF07EFF404601F053
:101FB000B9FE05F00BFF05B0BDE8F08FE846F5E788
:101FC00001F060FD019007F075F9844212DB01A871
:101FD00001F0A8FEBAE701F055FD0DF1100B094B19
:101FE0004BF8040D49461B6832469847584601F0A5
:101FF00099FEC7E72146019805F0B8FD019B002234
:102000001A54E4E7B803002000B9704770B50446DD
:1020100082B016460D4603F0FDFA204601F032FD6F
:10202000019008B1022D06D901A801F07BFE05F050
:10203000CDFE02B070BD00EB85012046CE660DF0EE
:1020400033FFF1E700B9704730B5044683B00D4661
:1020500003F0E0FA204601F015FDC36B016C826CC1
:102060000190AB42B8BF2B469942A8BF19468A429D
:1020700012D0C36D81640BB12046984720460DF005
:1020800013FF01A801F04EFE204605210EF0E0FAF4
:1020900005F09CFE03B030BD01A801F043FEF7E758
:1020A00070B5436B82B01BB91C46204602B070BDB0
:1020B0000446184601F0E6FC02ADE16C45F8040D5B
:1020C000064605F053FD304405F0FAFC0446284668
:1020D00001F028FE204602B070BD00BF70B582B08E
:1020E0000C4601F0CFFC0090406BF8B101F0CAFC47
:1020F000019007F0DFF8009AB2F9385092F8546076
:10210000D16C24EAE473002E0CBF2C466C1E9C425A
:10211000A8BF1C46A042A8BF204681424FF0000342
:1021200018BFD064136501A801F0FCFD684601F0FA
:10213000F9FD02B070BD00BF2DE9F047466886B0DA
:102140000546304601F09EFCC36D0090D0F88840F3
:10215000D0F88070D0F86880B0F87C90002B63D005
:10216000D3F800A0684601F0DDFD14B909E0246849
:102170003CB16368284698470028F8D006B0BDE80F
:10218000F0872B68172B00F0A4801DDC0F2B00F0CC
:102190008C807CDC0B2B00F0BE800D2B0AD119F05B
:1021A000080F07D1EB68DB6823B11B7A13B1304607
:1021B0000EF0DAFC304629460BF034FF0028DDD063
:1021C00028460CF0EDFBD9E7262B74D02EDC1E2B15
:1021D00000F0AD80202BEDD1EC68002CEAD0314628
:1021E00060680FF077FE002800F0BE80304601F0F6
:1021F00049FCB0F87C300190190740F12A8101A810
:1022000001F090FD314660680FF052FE0028D1D0F9
:10221000304601F037FC03466268019001A8C3F81C
:10222000802001F07FFDC5E79A469BE72A2B65D009
:10223000B3F5107FBED13046D5F80C8001F022FCFA
:1022400006ACB0F87C7044F8140D204601F06AFD2D
:10225000EB68002B92D098F80830002B00F0A98092
:10226000390740F1B58030460CF004FA07F4887362
:10227000B3F5887F82D107F080039BB2002B7FF4F7
:102280007DAF4146304605220EF0E6FB76E7112B86
:1022900022D0142B8ED1304601A900F04BFC02ABAA
:1022A00003CBEB681860596068E7BAF1000F81D082
:1022B0003046D0477EE7EB68022B7FF45FAF06A97C
:1022C000272241F8142DA868039604930FF086FF87
:1022D00054E7C5F80C8051E73046EC6801F0D2FBBA
:1022E00001902389012B05D1B0F87C3043F4807331
:1022F000A0F87C3001A801F015FD5BE7304601F045
:10230000C1FBEB680090002B66D0C0F884306846B3
:1023100001F008FD32E7304601F0B4FB03467030AF
:10232000009301F091F9684601F0FCFC42E7EC688B
:10233000012C55D0002E3FF421AF03F06BF930464D
:1023400001F0A0FBB0F87C3001901C0706D523F00B
:102350000803A0F87C3030460DF0A6FD01A801F07E
:10236000E1FC05F033FD09E7304601F08BFBB0F8E6
:102370007C3001901A0706D523F00803A0F87C30C2
:1023800030460DF091FD01A801F0CCFC31462068EB
:102390000FF08EFD00283FF40DAF304601F072FBC8
:1023A00003462268019001A8C3F8802001F0BAFC1E
:1023B00000E7304601F066FBB0F87C200190034650
:1023C00022F480722046A3F87C2001F0ABFCD5E615
:1023D00030460EF0C9FB46E7D0F88430EB6096E754
:1023E00038460EF081F818B338460EF0BDFB38467B
:1023F0000DF008FCA8B926B9002F7FF4BFAEEF603E
:10240000BCE603F007F9304601F03CFBB0F87C3045
:1024100001901A0725D501A801F084FC05F0D6FC2F
:10242000EAE7214638460BF0E9FE002EE4D0E8E763
:1024300040460EF005FC0746304601F023FB0346FC
:102440006846C3F88070009301F06CFC002ED3D076
:10245000D7E743F00803A0F87C3030460DF024FDA8
:10246000CDE643F00803A0F87C3030460DF01CFDAB
:10247000D1E700BF2DE9F04F0F46B0F90C10B0F9CD
:102480000AB08569B0F90E60B0F910A0B0F81280FA
:102490004D4C8FB001EB0309B0F908300493436849
:1024A00005939344603503F0B5F84FF4805E3246EF
:1024B000009749465846039553460294CDF804E0E8
:1024C0000CF070F9064628B905F080FC30460FB0D4
:1024D000BDE8F08F01F0D6FADFF8F4A00499069079
:1024E000302255460CF038F80DF1380B0FCD5BF863
:1024F000207D07F134040FC40FCD0FC495E803000D
:10250000189B84E8030000257B66DAF82830FB6519
:10251000C7F88050FD66C7F88850A7F87C805846F9
:1025200001F000FC09A9304600F004FBBDF92A10B7
:10253000BDF92800BDF92C20BDF92E30234C0395A0
:102540005B1A121A41F2827501320133029400962D
:1025500001950CF027F9DAF8283004465B6830461C
:102560009847304601F08EFA034658469C6606931B
:1025700001F0D8FB30460CF07FFB03F04BF83046FF
:1025800001F080FA036F079007A8089301F0CAFBD7
:10259000059908A807F04EF838B905F017FC05F0C2
:1025A00015FC30460FB0BDE8F08F304601F06AFAF6
:1025B000089A0267034607A8079301F0B3FB304669
:1025C0000DF072FCE9E700BF39210008CD2E0008AC
:1025D000D80200202DE9F041044690B0006800F0D8
:1025E000CDF9B04B6668A3F12C05002808BF1D4645
:1025F0001C2E00F2F880DFE816F02200F600F6004C
:10260000F600F6003500F600F600F600F600F600DB
:102610005100F600F600FB00F600F600F6000F0190
:10262000F600F60049014B014D014F01F600F6009E
:10263000F6001D006E69304610B0BDE8F0812068DC
:1026400001F020FA10ABB0F85A2043F82C0D42F0FC
:102650000C02A0F85A20184601F064FB20680EF026
:102660006FFBE8E72B690193B4F910E0B4F914703B
:10267000B4F91860B4F91C40EB6800933246704618
:1026800039462346ADF82060ADF81CE0ADF81E7069
:10269000ADF82240002602F0A9FBCCE71C232068FD
:1026A0000893079001F0EEF9036D059007A898478D
:1026B000064605A801F036FB012E40F32681AB68E3
:1026C00002936B6801932B686269A169206900938A
:1026D000334606F079F82769A3693744C6EB030847
:1026E000286804F087FF42463946606902F052FCD0
:1026F000686804F07FFF606942460130394602F0A5
:1027000049FC6B6A022B00F3F3802A6A964218DABE
:1027100063692069012E03F1020740F3248102441A
:1027200006EB0308013A30444346394602F028FDDF
:10273000A069821BEB69C01A39464346013002F09A
:102740001FFD012ED4BF66696369E7692868CCBFA5
:10275000F6180236013F04F04DFF3A463146206933
:1027600002F0B6FC3A463146A06902F0B1FCE769D6
:10277000686804F03FFF2069023F3A460130314665
:1027800002F0A6FCA0693A460138314602F0A0FCEE
:10279000EB69022B40F38280AB6AE769A868022BE1
:1027A000CCBFFF1A023F04F025FFEA69022A00F3BA
:1027B00096802B6A022B00F38880286804F01AFFA9
:1027C000A2692169E06902F0E5FB686804F012FF84
:1027D000A2692169E069013A0131013802F0DAFBAE
:1027E000AE6A022E60DC0026304610B0BDE8F081F3
:1027F00004F114010EC9A8682569ADF81E10ADF8E2
:102800002020ADF82230ADF81C5004F0F3FE07A8EC
:1028100002F0E2FC00260EE7298B2269A3696669B3
:10282000E5692068ADF81E605B1A0A44ADF82030F7
:10283000ADF81C20ADF8225001F024F9036F05908B
:10284000FBB1022004F060FF059AB2F87C30C3F3BC
:10285000C0030E3302EB8303986804F0CBFE059BA4
:10286000586B04F0DFFE059B186F01F00BF9059B18
:102870000690B3F95A2007A902F08AF806A801F0D9
:1028800051FA05A801F04EFA0026D4E6AE6AD2E667
:10289000EE69D0E62E6ACEE66E6ACCE62B6A022B93
:1028A0008BDD79E76C050020A269E7692169A868DA
:1028B0008C1C951E04F09EFEB91B2A462046013151
:1028C000BB1E02F05DFC0026B5E6A269E869101A9D
:1028D0003B4631460130023A02F052FC6DE7206976
:1028E0000244013A02303B46314602F049FC60E7BF
:1028F000A86804F07FFE61696B6A0B444246384663
:10290000013B023102F03CFC1BE7286804F072FE38
:102910002169EA6960690A44013A02F03BFBA26955
:10292000E9696069511A013102F034FB6769206975
:102930000137394602F05AFB3946A06902F056FBCE
:10294000686804F057FE20693946013002F04EFBFA
:10295000A0693946013802F049FB2769A3690237AB
:10296000A3F10208BCE60244013A02303B46394674
:1029700002F006FCA069B846821EDBE610B50446EC
:1029800082B080B102F046FE204601F07BF802AB37
:10299000B0F87C4043F8040D1846C4F3C00401F0BD
:1029A000C1F905F013FA204602B010BD2DE9F0413F
:1029B000044684B00E4602F02DFE24B905F006FA56
:1029C00004B0BDE8F081204601F05CF8458EC36D8F
:1029D000039005F02005ADB29F6845B1B0F95450A1
:1029E0002DB9406B02F072FD039B851C00E003468D
:1029F0005E6303A801F096F93B68012120469847E1
:102A00003B6806460321204698473B6880460021E4
:102A1000204698470746204600F01AFA43463246B9
:102A200029462046009700F099F920460DF03CFA1F
:102A300005F0CCF904B0BDE8F08100BF00B97047E3
:102A400030B5044683B00D4602F0E4FD204601F0A7
:102A500019F8036F00906846019301F063F9294665
:102A600001A806F0E7FD18B905F0B0F903B030BDD4
:102A7000204601F007F8019A026703466846009372
:102A800001F050F920460DF00FFA05F09FF903B060
:102A900030BD00BF2DE9F04385B020B9054628467A
:102AA00005B0BDE8F08304460E4602F0B3FD2046B3
:102AB00000F0E8FFB0F954500390B5422AD0418E9F
:102AC00001F0200189B219B16DB303462F4601E030
:102AD00003460F46DA6DA3F8546096680121336807
:102AE000204698473368804603212046984733683C
:102AF00000218146204698470646204600F0A8F966
:102B0000204600964B464246394600F027F92046BB
:102B10000DF0CAF903A801F005F905F057F92846A8
:102B200005B0BDE8F083406B02F0D0FC039B871C2E
:102B3000D0E700BF2DE9F04F89B007460D4600F001
:102B4000A1FFC36D05909C68012123683846984712
:102B5000236803218046384698472368022183462C
:102B60003846984723680021824638469847814670
:102B700005980EF0BBFD064605980EF0BFFD034616
:102B80000598448E04F02004A4B2B4B1B0F95420E6
:102B9000B0F95840002A4ED091B2C06E0C44A4B295
:102BA00080B10391029201930CF066FD019B029AA1
:102BB00003990FFA80FE80B205E021462246C06EDE
:102BC0000028EED186461FFA89FC013ECBEB060BAE
:102BD0006444013B0CF1FF3C8C44CAEB03030FFA45
:102BE0008BFB0FFA88F804446B812A80A5F802E079
:102BF000A5F812C0A5F808B0A5F810B0A5F8048093
:102C0000A5F80C80A5F80E90EC8005A801F08AF8D4
:102C100008AAB5F9103042F8043D3846B5F90C3031
:102C2000069306A900F04CF8069A079BAA812B820E
:102C300009B0BDE8F08F406B019302F047FC023011
:102C400081B20C4402B2A4B20598019BB7E700BF61
:102C500008B5438E03F020039BB24BB10246B0F996
:102C6000540000B108BD506B02F030FC023008BDCA
:102C7000184608BD70B58AB00C46064600F002FF43
:102C80000AABC26D43F8280D1846956801F04AF862
:102C90000196032C05D8DFE804F00F0C0902172376
:102CA00002936B6801A898470AB070BD1523029380
:102CB000F7E716230293F4E718230293F1E700BF26
:102CC0002DE9F04383B088460446914600F0DAFED1
:102CD000034602A8DA6D40F8083D9568B3F9007024
:102CE000B3F9026001F01EF82B68204600219847D6
:102CF000054620460CF0F6F960B3044607E001A84B
:102D000001F010F820460CF079FB044610B3204681
:102D100000F0B8FEB0F9023001909B1B9D42EED14D
:102D2000836A1B060BD5B0F90030D9F80020DB1BF5
:102D3000934203F1FF33E2DCC9F80030DFE7B0F97A
:102D40000430D8F80020DB1B9342A4BF0133C8F83D
:102D50000030D4E703B0BDE8F08300BF2DE9F04FA9
:102D600083B00E469B460546144600F08BFE0DF1DF
:102D70000808C26D48F8080DD2F80890FFF768FF00
:102D80000746404600F0CEFFD9F800300121284622
:102D90009847D9F800300321824628469847D9F849
:102DA00000308046002128469847B742814644D0EB
:102DB00028460CF097F9BE1B0546002844D00C9B12
:102DC0000027C8EB0B0BC3EB0909C4EB0A0AB84692
:102DD0000AE0B4F5007F10D001A800F0A3FF284658
:102DE0000CF00CFB054678B3284600F04BFE846AD5
:102DF000019004F42074802CEBD1BEB9836A1A06CA
:102E000009D49B05E8D507FB06A14A4628460DF0E4
:102E1000C5FB0137E0E708FB16B14A4628460DF02E
:102E2000BDFB019B08F101089B6AEAE72846324690
:102E300031460DF07DFC0198E0E7A245B8D1D845B8
:102E4000B6D10C9B9842B3D103B0BDE8F08F00BF60
:102E500070B586B0064600F015FE034606A89C6EC7
:102E600040F8183DDD6E00F05DFF84B96DB130466D
:102E700001A9FFF75FFEBDF90A20BDF90630BDF9D3
:102E800008102846D21A0DF04BFB06B070BD304634
:102E900001A9FFF74FFEBDF90A20BDF90810204631
:102EA0000DF03EFBBDF90A00BDF90E20BDF90C3056
:102EB000BDF90810121A591A2046013201310DF0DD
:102EC000F5FF002DD7D106B070BD00BF2DE9F0434E
:102ED000456887B0044628460CF09EFA074600F085
:102EE000D1FD034606A85E6E40F8143DD3F8488035
:102EF000D3F8809000F016FF23680E3B232B3FD8B9
:102F0000DFE803F035463E3E3E3E12123E123E3EA4
:102F10003E3E3E3E18243E3E2B3E3E3E3E3E3E3E24
:102F20003E3E3E3E3E3E3E3020460BF039FD07B071
:102F3000BDE8F083E368002BF9D0B9F1000F3BD076
:102F40004D4539D048460DF00FFEF0E72146384692
:102F50000BF068F807B0BDE8F083C4F80C8007B048
:102F6000BDE8F0830023E36007B0BDE8F083E368C9
:102F70005A68002A04DD1B68092B1DD00A2B1FD0BC
:102F8000002ED1D067602046B04707B0BDE8F0837F
:102F90006FF07043984504D0404607F0E9FB01F01C
:102FA00031F9002EC3D094E80F0002AC84E80F0082
:102FB00020460395B047BAE728460DF041FEB6E734
:102FC00028460DF085FEB2E738B5204B204C1D6831
:102FD00002F020FB284607F0CBFB04F0F7FE1D4B68
:102FE0001D6802F017FB284607F0FCFB04F0EEFE1C
:102FF00002F010FB236801221A7604F0E7FE02F0CB
:1030000009FB236800259D8504F0E0FE02F002FB29
:1030100023685D8504F0DAFE02F0FCFA284607F02A
:1030200013FC04F0D3FE0C4B1D6802F0F3FA236886
:1030300005B1DD6104F0CAFE02F0ECFA236800225B
:103040009A76BDE8384004F0C1BE00BF40020020BF
:10305000440200203C02002038020020014B83E89B
:1030600003007047DC0A0220014B83E8030070472D
:10307000E40A0220014B83E803007047EC0A0220B7
:10308000704700BF704700BF2DE9F04F4F4E3368C7
:10309000DA69B3F92250D469B4F80CB083458BB027
:1030A0007DD8E18981427AD3216808914FF0FF31C0
:1030B000CBEB000B0791BBF1FF3F6AD0177EB3F952
:1030C0002A80A27CB3F9249094F810A017FB02F395
:1030D0004046069307F0B8FB3368069A08990990B2
:1030E00002FB0B109A6BDB6904900592A27C0392A1
:1030F0004FF0010BCDF808B0DA7E01929B7E009371
:1031000028463B465246494606F0E2FC0798013005
:103110001CD048F0020007F097FB2C4A0798126871
:103120000899069B03FB0013916BD26905910493E8
:10313000A37C0393CDF808B0D37E0193937E0093D4
:1031400052463B464946284606F0C2FC33681F4FAC
:10315000DB695A7E1B7E9A4214D9B8F1020F11D056
:1031600088F0040007F070FB3B68DB69187ED97EAD
:103170009A7E5B7E00FB01910AFB02524B4428467B
:1031800006F0B6FE9DF8240007F05EFB3368B3F945
:103190002250627C15445D840BB0BDE8F08FA168BD
:1031A0000029F6D00F88B842F3D3B1F802E0864583
:1031B000EFD34968C01B80B26768089701EB8007AE
:1031C00031F920B0B7F90210079174E744020020EA
:1031D000044B1B68DB69DB6909B11A7C0A60587C07
:1031E000704700BF4402002002230B80704700BFDD
:1031F000C3699A898A4202D8DA898A4211D29868C8
:1032000018B10388994201D20020704742888A424F
:10321000FAD3C91A436833F82100C043C0F3C03061
:1032200070470120704700BF2DE9F04F3E4D2B68DD
:10323000DA69B3F92A60D36989B043B11A88904238
:1032400002D35988814205D29B68002BF6D109B080
:10325000BDE8F08FD3F80480DFF8CC90841A08EB37
:10326000C407304697F802B007F0EEFA82462868A5
:1032700018F83420D0F81CE0D0F838C09EF8183088
:10328000B0F92410B0F92200CDF814C006934FF025
:10329000010C7B680493CDF80CB0CDF808C09EF803
:1032A0001BC0CDF804C09EF81AE0069BCDF800E0E4
:1032B00006F00EFC2B68DA69537E92F818B05B4575
:1032C00023D9022E069320D0D17E079102F048F830
:1032D000064602F00FF804F08DF9D9F8002018F82E
:1032E00034C0D469B2F9220094F81BE00799B2F90E
:1032F0002440069B0CFB0E0201FB034301FB0B4128
:1033000006F0F6FD304604F075F9504607F09CFAD9
:103310002B687978D8695A8C807E00FB01225A8408
:1033200009B0BDE8F08F00BF44020020114B70B41B
:103330001B68DD69EB6943B11A88904202D35C884F
:10334000844205D29B68002BF6D1184670BC7047AA
:103350005E68AC7E821A06EBC2035B7813FB04F056
:103360000029F3D016F8323014FB03F30B6070BC65
:10337000704700BF4402002001230B80704700BF4C
:10338000C06950B103888B4202D843888B4203D274
:1033900080680028F6D17047012070472DE9F0477A
:1033A000234E3368002B3FDD224D234F2C68D7F886
:1033B0000090C3EB431804EB880808F10C080C34A8
:1033C0004FF0000AA4F10803742218464946FCF79E
:1033D00096FF221F2063A06344F80CAC6263E46094
:1033E0007C34A045EED10024A04603E092B13268BF
:1033F000904514DA17F040FC2B681A59904203EB01
:10340000040108F1010804F17C04EFD104313960B2
:10341000BDE8F087086004313960BDE8F0871946DF
:1034200004313960BDE8F087024B034F1968EDE7BE
:10343000AC030020FC0C022044020020F8B5194F18
:10344000194B1A4E384640F80C3F06F0DFF8346846
:10345000C4EB4414A400204600F04EF9144B38602D
:1034600022461B68002198474FF0FF33736017F026
:103470000DFC3368002B11DD0024254603E072B1FA
:1034800033689D420ADA17F0F7FB3B681A599042FD
:10349000234405F1010504F17C04F0D1F8BD186066
:1034A000F8BD00BFFC0C0220CD7B0108AC0300205E
:1034B000B803002009B9084670472DE9F0410E46CF
:1034C000054602F0A7F802F0A5F830460FF080FAA2
:1034D000044604F07BFC24B3174FFA697B6B01327E
:1034E000FA6113F83420013203F8342003EBC403EB
:1034F000D3F8048008F10800C5B1104B32462946C4
:103500001B689847D8F800107A6B0B4D12F83130D1
:10351000012B03D9E86908B10138E861013B02F8E1
:10352000313004F053FC2046BDE8F081044B3246B4
:1035300029461B689847E5E7EC0D0220B4030020FC
:10354000B803002000B9704710B5044602F062F8D5
:1035500020460FF03DFA044604F038FC204610BD2A
:1035600070B5054602F056F825B9002404F02EFC8B
:10357000204670BD02F04EF828460FF029FA0446A6
:1035800004F024FC002CF0D0144E1549F269736B42
:103590000132F26113F83420013203F8342003EBD6
:1035A000C4032A465D680B6805F1080000219847AE
:1035B0002968726B12F83130012B01D9F06930B9EA
:1035C000013B02F8313004F001FC204670BD0138A7
:1035D000013BF06102F83130F5E700BFEC0D02204D
:1035E000B8030020024B21F0030183E80300704779
:1035F000F40A022000B9704770B50D4C054602F080
:1036000009F8636BEE003344596848680EF006FF12
:10361000626B6368616A1644013300206360716005
:1036200002F835006562BDE8704004F0CFBB00BF12
:10363000EC0D022028B1034AD36B036003B158603C
:10364000D0637047EC0D0220F8B5054601F0E2FFAB
:103650002C68B4B10E4E01F0DDFF736BE7003B4404
:10366000596848680EF0DAFE716B7368726A0F442D
:103670000133002073607A6001F83400746204F052
:10368000A5FB00232B60BDE8F84004F09FBB00BF02
:10369000EC0D022000292BDD2DE9F0470025154F08
:1036A0008A46041FA94601F0B5FF54F8046F01359E
:1036B000B6B101F0AFFF7B6B4FEAC60843445968CF
:1036C00048680EF0ABFE796B7B687A6A88440133F8
:1036D0007B60C8F8042001F836907E6204F076FB27
:1036E000C4F8009004F072FBAA45DCD1BDE8F08775
:1036F000704700BFEC0D0220F8B5894E96F82830CF
:103700000446002B2FD00334356CF26B24F00304F5
:103710000434A54238BF254662B152F8043C9D42AC
:10372000144604D114E054F8043C9D4210D024689F
:10373000002CF8D1F368B46B1C4454F8041C611AD3
:103740000B68002B65D14B689D426CDD002408E0BE
:1037500023680BB161685960616801B10B60A242D6
:1037600053D02046F8BD6F4B9A685868012186F8FF
:1037700028100AB982089A605A253562102720223B
:10378000402519683764B264356580274FF480722C
:103790004FF40075B7653266B5664FF480674FF435
:1037A00000624FF48055A1F114033767B267C6F881
:1037B00080504FF400574FF480424FF400450344CB
:1037C000C6F88870C6F89020C6F898504FF4803735
:1037D0004FF400324FF48025C6F8A070C6F8A82038
:1037E000C6F8B050022201254FF40027B16373637D
:1037F0003261F060C6F8B8705D60756275600EF099
:103800000DFE11F07DFF35637DE72368F3632046ED
:10381000F8BD002015F004F854F8041C611A0B6878
:10382000002B93D18FE7D6F8B8703D4A581B041D82
:10383000BB420C4472D2D2F8B070BB426CD2D2F808
:10384000A870BB4266D2D2F8A070BB4260D2D2F858
:1038500098709F425AD9D2F89070BB4254D2D2F895
:103860008870BB424ED2D2F88070BB4248D2926F71
:10387000934243D2376F2A4ABB423DD2976EBB4236
:1038800038D2176EBB4233D2976DBB422ED2176D22
:10389000BB4229D2976CBB4224D2126C93420CD209
:1038A000F2687369521B2B44F260736110B944F8DB
:1038B000045C56E70EF0B2FDF9E700223768D1F854
:1038C00008E0FB1A3360CB68BEF1000F01D0CEF8E0
:1038D000043013B1C3F800E0E2E706EBC202C2F81D
:1038E00044E0DDE70122E9E70222E7E70322E5E71A
:1038F0000422E3E70522E1E70622DFE70722DDE70E
:103900000822DBE70922D9E70A22D7E70B22D5E70D
:103910000C22D3E70D22D1E70E22CFE70F22CDE70D
:10392000EC0D0220F40A0220F8B54A4C94F8283035
:10393000002B3DD0D4F8BC30464A3BBBD2F8B43063
:1039400023BBD2F8AC300BBBD2F8A430F3B9D2F819
:103950009C30DBB9D2F89430C3B9D2F88C30ABB913
:10396000D2F8843093B9D36F83B9536F73B9E36ED0
:1039700063B9536E53B9D36D43B9536D33B9D36C37
:1039800023B9536C13B96FF00B00F8BD9B68002B83
:10399000F9D0002201E09B6843B159689B689142CD
:1039A000104684BF0A461046002BF4D10C38F8BDEF
:1039B000294B9A685868012184F828100AB98208AE
:1039C0009A601968A1635A26102220252662226473
:1039D000A564402780264FF480724FF40075A1F152
:1039E00014032765A6652266A5664FF480674FF429
:1039F00000664FF480524FF4005503442767A667D2
:103A0000C4F88020C4F888504FF480474FF4004633
:103A10004FF480324FF40035C4F89070C4F89860C9
:103A2000C4F8A020C4F8A850022201254FF4802732
:103A30004FF4002663632261E060C4F8B070C4F8FC
:103A4000B8605D60656265600EF0E8FC11F058FEDC
:103A500025636FE7EC0D0220F40A022030B1044B1D
:103A60005B6B03EBC000436858680C38704700BFBD
:103A7000EC0D0220024A936901339361704700BF45
:103A8000EC0D0220074AD169536B0131D16113F863
:103A90003020013203F8302003EBC00358680830AF
:103AA000704700BFEC0D022009B9002070472DE9D6
:103AB000F8430F46064601F0ADFD38460EF088FF8C
:103AC000054604F083F9002D65D0002E5AD0334C02
:103AD000636B4FEAC60843445B6859680C398F42F0
:103AE000A8BF0F4601F096FD636BE26913F835003D
:103AF0002B49013003F8350003EBC5000232D0F842
:103B00000490E26113F83620013203F83620434472
:103B10003A465F680B6809F1080007F10801984709
:103B2000D9F80010636B13F83120012A01D9E0693C
:103B300070BB013A03F83120396813F83120012AAB
:103B400002D9E069154F00BB013A03F8312001F0BA
:103B500061FD636B43440027596848680EF05EFCC2
:103B6000606B6268616A00EB080301326260596051
:103B700000F83670666204F029F904F027F9284647
:103B8000BDE8F8832846BDE8F8830138F861DBE733
:103B90000138E061CDE70020BDE8F883EC0D02209C
:103BA000B4030020F8B5584C01F034FD94F82830E7
:103BB000002B57D0D4F8BC30534A9BBBD2F8B4305A
:103BC00083BBD2F8AC306BBBD2F8A43053BBD2F875
:103BD0009C303BBBD2F8943023BBD2F88C300BBB6B
:103BE000D2F88430F3B9D36FE3B9536FD3B9E36E2E
:103BF000C3B9536EB3B9D36DA3B9536D93B9D36C35
:103C000083B9536C73B96FF00B034049DA1781FB2A
:103C10000313C2EB6313246A04FB03F404F0D6F825
:103C20002046F8BD9B68002BF5D0002201E09B6880
:103C300043B159689B689142104684BF0A461046BA
:103C4000002BF4D10C38B0F5800F0346DDD8226A82
:103C50002E4B02FB00F0A3FB00235C0904F0B6F836
:103C60002046F8BD2A4B9A685868012184F828102C
:103C70000AB982089A601968A1635A261022202581
:103C800026622264A564402780264FF480724FF498
:103C90000075A1F114032765A6652266A5664FF499
:103CA00080674FF400664FF480524FF40055034490
:103CB0002767A667C4F88020C4F888504FF480476F
:103CC0004FF400464FF480324FF40035C4F8907042
:103CD000C4F89860C4F8A020C4F8A85002220125B6
:103CE0004FF480274FF4002663632261E060C4F83C
:103CF000B070C4F8B8605D60656265600EF08EFB00
:103D000011F0FEFC256355E7EC0D02201F85EB51F9
:103D1000F40A0220024A9369013B9361704700BF95
:103D2000EC0D022030B403680A4A53F8085C0446DC
:103D3000506B10F83530012B03D9D16909B1013925
:103D4000D161013B00F8353000221046226030BCC2
:103D5000704700BFEC0D0220034B5B6B03EBC00010
:103D600040680830704700BFEC0D0220A0B32DE979
:103D7000F041044682B008467ABB15462046FFF75C
:103D800081FE02AE078846F8080DD0F80480304660
:103D9000FFF7C8FF791C40468900FFF785FE804683
:103DA00060B3FFF76FFE02AB43F8040D40F82750F5
:103DB0001846FFF7B7FF2046FFF764FE0288009021
:103DC00003460132C0F8048030461A80FFF7AAFF8C
:103DD000002002B0BDE8F08170471146FFF76AFB92
:103DE00005460028CAD12046FFF74CFE02AB43F837
:103DF000080D1846FFF796FF0120EAE72846FFF76F
:103E0000F9FB0120E5E700BF0820FFF7A9BB00BFD1
:103E100000B9704730B583B00546FFF733FE009018
:103E2000406838B96846FFF77DFF2846FFF7E2FB98
:103E300003B030BDFFF726FE009B01901B885BB1ED
:103E4000002400E0019800EB8400FFF7FDFB009BDD
:103E50001B880134A342F5DC01A8FFF763FF00983B
:103E60000430FFF7F1FB009B00221A80DAE700BF65
:103E700010B582B018B90446204602B010BDFFF755
:103E800001FE02AB048843F8040D1846FFF74AFF11
:103E9000204602B010BD00BF10B582B018B904466C
:103EA000204602B010BD0C46FFF7ECFD03880090E1
:103EB0009C4206D300246846FFF734FF204602B038
:103EC00010BD406808B90446F5E7FFF7DBFD02AB1B
:103ED00050F8244043F8040D1846FFF723FFEAE7A3
:103EE00010B582B008B30C46FFF7CCFD03880090F4
:103EF0009C4206D300246846FFF714FF204602B018
:103F000010BD40680028F5D0FFF7BCFD02AB50F8AB
:103F1000244043F8040D1846FFF704FF002CE9D0B5
:103F20002046FFF7AFFD0446E5E70446204602B011
:103F300010BD00BF2DE9F04784B020B90024204611
:103F400004B0BDE8F0870D461F461646FFF79AFD00
:103F5000044604A8B4F8008040F80C4DD4F804904E
:103F6000FFF7E0FEA845E9D9B9F1000FE6D04846D1
:103F7000FFF788FD0DF1100850F8254048F8080DAE
:103F800040464FEA850AFFF7CDFE24BB3846FFF7CF
:103F9000E7FA04460028D1D04846FFF773FD814672
:103FA0005044CDF80890FFF74FFB49F825404046B4
:103FB000FFF7B8FE002EC2D02046FFF763FD04AD28
:103FC000084B45F8040D3A4631461B689847284689
:103FD000FFF7A8FEB3E72046FFF740FDB842D5D172
:103FE000E8E700BFB4030020B0F1004F2DE9F04135
:103FF00075D000287EDB00240C1BE4B200210AB13E
:10400000013CE4B284B33F4F99B3651E9442DFF89C
:10401000F8E04FF0310CEDB219D057F8256090FB65
:10402000F6F1C9B20A291FD806FB11000DB90131FA
:10403000C9B20A2901F1300149D01C68661C1E6012
:1040400021708DB12C46651E9442EDB2E5D1196800
:104050004E1C1E609EF800600E7057F8256090FBA5
:10406000F6F1C9B20A29DFD91B6800221A70BDE82F
:10407000F081651E9442DFF890C04FF03108EDB238
:1040800017D057F8256090FBF6F1C9B20A2901F163
:10409000300EE9D806FB1100196811D04C1C1C60C9
:1040A00081F800E0002DDFD02C46651E9442EDB271
:1040B000E7D119684E1C1E609CF800600E70E0E7A6
:1040C0004E1C25461E602C4681F80080EDE71968DD
:1040D00025464E1C1E602C4681F800C0B3E71D68C3
:1040E0004C1E681C2D211860E4B229706FF000404E
:1040F000012184E71D682D266C1C1C6040420124B0
:104100002E7079E7740A0208B00E022000280ADD3A
:104110000B6810B42B225C1C0C601A700B68002218
:104120001A705DF8044B70472DE9F04114460646BD
:10413000884601F06FFA204601F01EF9E8B9A700A1
:104140001B4D3B1905EB8303DA68B24206D11B69AC
:10415000434503D1BDE8F04103F038BE3B1905EB00
:1041600083035869D0B93C4405EB8404E660C4F885
:104170001080BDE8F04103F029BE0D4B04EB840430
:1041800003EB840463689A685968C2EB0802711AE9
:1041900003F08AFABDE8F04103F018BE5B689A6844
:1041A0005968C2EB0802711A02F08AFEDBE700BF11
:1041B000680D0220C3B2CAB29A1A92B230B415B2D4
:1041C000002DBCBF524215B2C0F30723C1F3072232
:1041D0009B1A9BB2090C1AB2C1EB1041002A89B29A
:1041E0000CB2BCBF5B421AB2002CBCBF49420CB23D
:1041F00002FB02F205FB0520A1B201FB010030BC6D
:10420000704700BF2DE9F041002182B0084601F05F
:1042100073F901F0FFF9042006F016FB174B1B6938
:10422000DD6C1C6DA5F57F57A4F57F5605F57F5510
:1042300004F57F5480463F3F3F353F3E3F3468465C
:10424000ADF80070ADF80450ADF80260ADF806406E
:104250000DF05CFA48B123462A463146384605F04F
:1042600047FE0DF0E7F80028F5D1404606F0ECFADD
:1042700003F0ACFD02B0BDE8F08100BF34020020C5
:104280002DE9F04182B016461C4607460D4601F066
:10429000C1F9042006F0D8FA134B1B69DA6C1B6DC8
:1042A0008046174416441D441C446846ADF800700F
:1042B000ADF80460ADF80250ADF806400DF026FAF6
:1042C00048B1234632462946384605F011FE0DF026
:1042D000B1F80028F5D1404606F0B6FA03F076FDB5
:1042E00002B0BDE8F08100BF340200202DE9F041AA
:1042F00082B0B0F90070B0F90260B0F90450B0F9C2
:10430000064001F087F9042006F09EFA134B1B6962
:10431000DA6C1B6D8046174415441E441C446846E5
:10432000ADF80070ADF80450ADF80260ADF806408D
:104330000DF0ECF948B123462A463146384605F0DF
:10434000D7FD0DF077F80028F5D1404606F07CFA4D
:1043500003F03CFD02B0BDE8F08100BF3402002054
:104360002DE9F047044682B00D461646002B38D0A2
:104370009A46009626680B9B0A9A51462046B047FB
:10438000074618B9384602B0BDE8F0870AF024FEA7
:10439000618A8046384609F031FF38460CF020FE2D
:1043A000013D40460CF01CFE002DC8BF4FF0000937
:1043B00004DC1AE00CF014FE013D16D054F81C6F1A
:1043C000CDF80090002320461A464146B0470646E5
:1043D0000028EFD138460AF02FFB304602B0BDE886
:1043E000F0870AF007FE8246C3E740461D210CF025
:1043F000DDFABAF1FF3FC5D001F00CF90AF080FEFA
:1044000060B9BA4502D038460CF01AFC03F0DEFC65
:10441000384602B0BDE8F0870028F4D0FFF79CFCD6
:1044200080698742F8D1F1E780B582B000AF78604B
:10443000054B1B68002B03D0034B1B68786898471B
:1044400000BF0837BD4680BDAC0E0220012B12DC38
:10445000F8B506461C2017460C461D46FFF74CF9DA
:10446000B8B154B104610023836085618782C6605E
:1044700003604360F8BD00207047074B53F82520C8
:104480000AB9F0E71A461368002BFBD113690361E0
:10449000E9E70020F8BD00BFD00E0220012B3BDC75
:1044A0002DE9F84381461C2090460F461E46FFF733
:1044B00023F9054600287FD0414A002F31D0002340
:1044C000DFF804E152F8264003609EF8001007610F
:1044D0008E428661A0F81480C0F80C90436083601F
:1044E00002DB731C8EF80030002C5DD021464C6836
:1044F000002CFBD1D9F80000CB681B6883422CDD6F
:1045000009680029F8D148B92E4B16361A68284692
:1045100042F82650BDE8F883002070472846BDE8E1
:10452000F88352F82610002930D0084600E01846DB
:104530000368002BFBD1DFF890E000692B60286155
:104540009EF80000AE618642A5F81480C5F80C9074
:104550006B60AB60CBDB0C46C3E70AD04B6843B360
:104560001D606B608D4214BF0B4600234D602B60B5
:10457000C9E7B8F1010FF1D104E0D9680C688442B1
:104580001946EBDB0B68002BF7D1E7E7DFF838E0E3
:1045900001609EF8003086619E42A0F81480C0F849
:1045A0000C9041608160D6DA42F82650D9F80000BC
:1045B000A9E742F82650D5E70020BDE8F88300BF00
:1045C000D00E022044020020C80E0220FFF732B8AD
:1045D00000283CD070B48469012C03DD0123184607
:1045E00070BC70471E4B1F4D1A789442A4BF621CCA
:1045F0001A7055F824300BB92FE013465A68002A78
:10460000FBD1C268116802E01B68002BE6D0DA68B3
:1046100012689142F8DB0DD05A68DAB1106042603E
:10462000984214BF1A46002258600023026070BCF2
:1046300018467047828A012AEED104E0D3681E68CA
:10464000B1421346E8DC1A68002AF7D1E4E70123F7
:104650001846704745F82400E2E745F82400BEE715
:10466000C80E0220D00E022000284DD02DE9F041C6
:10467000DFF89CE0254F9EF80060BC4602E028462B
:10468000002D27D084690568012CF8DCB44257F866
:104690002430A4BF661CF6B20BB932E013465A6848
:1046A000002AFBD1C268116802E01B68002BE6D02B
:1046B000DA6812688A42F8DC10D05A68A2B1106039
:1046C0004260984214BF1A46002258600260284691
:1046D000002DD7D18EF80060BDE8F081828A012AD2
:1046E0000BD05A68002AEAD147F82400E9E7D368DA
:1046F000D3F8008088451346DFDB1A68002AF6D11C
:10470000DBE74CF82400BAE7704700BFD00E022068
:10471000C80E02200F4A816952F8213098420AD00F
:1047200042680AB103681360036803B15A6000234A
:10473000036043607047036842F821302BB10022C8
:104740005A604268002AEED1F0E74268002AEAD1B6
:10475000EDE700BFD00E02200020704701280EDCDC
:10476000084B53F8200058B1C3681B681BB908E018
:10477000C3681B6823B100680028F9D17047002086
:1047800070477047D00E022000B970472DE9F04104
:1047900082B01E4615460C460746FFF773F902AB7A
:1047A000026843F8040D1846D2F80080FFF7BAFA01
:1047B00033462A4621463846C04702B0BDE8F0815C
:1047C0002DE9F843074616F05BFA074416F058FA4D
:1047D0003E1A002EDFF86090DFF8608022DD00F0E6
:1047E000A1FCD9F800309E42A8BF1E4600F012FF7F
:1047F000D8F80040FFF73EF9B4B1254603F0E6FAD9
:10480000013DFBD1304616F031FA00F003FF013CC8
:10481000FBD1FFF77FFA03F0D9FA16F031FA3E1A0E
:10482000002EDCDCBDE8F883304616F01FFAFFF7F7
:1048300071FA03F0CBFAF0E750020020000D0220DD
:104840002DE9F04F474E83B0044600F0E3FE00F040
:10485000A9FD33680746B3F9229000F011FE3268D3
:10486000938C1FFA80FACAEB03031BB2938421785E
:1048700000294DD0BFB2B04647F6FF71204604F084
:10488000EFFC01468346204604F0A8FC31688B8D7E
:1048900003F00303012B5AD0022B5CD085B24FF0FA
:1048A000000E4A8CB1F92430ADF80230CEEB020292
:1048B00092B210B2013B05F1FF3E964448843B445E
:1048C0006A465946ADF800002046ADF80630ADF80E
:1048D00004E003F00BFD3368BDF802209A845946CA
:1048E000204603F043F9225C0A2A04EB00031BD0A4
:1048F0000D2A19D0BDF80000D8F8002005445584D1
:10490000197819B159785C1C0029B5D1B2F9243055
:10491000918D9A4421F00303A2F824A0938503F01B
:1049200055FA03B0BDE8F08F3268918D01F00301B4
:10493000013901298ABF118CA2F82290518419787B
:104940000A29DED1918C394491841978D9E71FFA6C
:1049500080FE7546A5E700EBD072C2F34F0E85B21C
:104960009FE700BF4402002070B50E46154604467E
:1049700000F050FE054B1B685E849D8414B12046F8
:10498000FFF75EFFBDE8704003F020BA440200204C
:1049900020B3F0B50C4683B00546164600F03AFE4B
:1049A000D4B120460CF0B4FA074638B168463A460E
:1049B000214604F0CFFC68460CF0AAFA32462146A4
:1049C00047F6FF73284603F0EBFC38460CF0A0FADC
:1049D00003F0FCF903B0F0BD2746EFE7704700BFD6
:1049E00008B100F001B870472DE9F04F89468BB04F
:1049F0001546044603921F4600F00CFEB9F900303C
:104A0000B9F90410B9F906000193CE1A0291B9F967
:104A100002B0059000F0C6FC15F00C0806F1010686
:104A2000049076D11FFA80FA48460CF071FA0246DB
:104A30000490A8B1019800210B4660F30F01029881
:104A400060F30F0305986BF31F4160F31F4306915A
:104A500006A84946079304F07DFC06A80CF058FA16
:104A6000039B03F003080AF1FF33039343461FFA45
:104A70008BF5B0461E4615E0022E34D01EB9B9F8AB
:104A80000030ADF820302046594608AA03F02EFC2D
:104A900020463A46414604F039FE04445544237802
:104AA000ADB273B33A464146204604F099FE039BEB
:104AB000BDF80420ADF820200146EB18BDF8082011
:104AC000ADF8225083462046ADF82420ADF82630BC
:104AD00004F084FB012ECFD1B9F804300133181A49
:104AE000ADF82000CFE7B9F90010B9F904305B1A2E
:104AF000181A013000EBD07001EB6000ADF8200017
:104B0000C1E704980CF004FA03F060F90BB0BDE8BB
:104B1000F08FA24600F07EFD3A4631465046002511
:104B200004F0F4FD40B182443A4631465046013526
:104B300004F0ECFD0028F6D103F048F9B8F1080FB5
:104B400008D0B8F10C0F0FD0B8F1040F02D0BDF8A7
:104B500010A069E7BDF810A0059B15FB0AF501330D
:104B60005D1B0FFA85FB5FE7059B0499CBEB030305
:104B7000013305FB113505EBD5750BEB65050FFA18
:104B800085FB1FFA81FA4FE770B582B00A460146ED
:104B9000684604F02BFD00F03DFD284BBDF80040B9
:104BA0001B68BDF80410B3F84C60B3F85050BDF862
:104BB0000220BDF80630344431442A442B44684670
:104BC000ADF80040ADF80410ADF80220ADF80630A5
:104BD0000CF09CFD68B3BDF90040BDF904309C4267
:104BE0000EDC2046BDF9021005F022F92046BDF981
:104BF000061005F01DF9BDF9043002349C42F0DDC9
:104C0000BDF90240BDF906309C420EDC2146BDF9DB
:104C1000000005F00DF92146BDF9040005F008F982
:104C2000BDF9063002349C42F0DD0CF003FC002894
:104C3000D1D103F0CBF802B070BD00BF4402002018
:104C40002DE9F04F91B081461E460F46904600F088
:104C5000E1FC654B1C68E56C246DA019E11905EBBE
:104C6000090305EB0802044608900EA8029301927E
:104C70000791ADF83830ADF83C20ADF83A10ADF8FA
:104C80003E400CF043FD002800F09180019B029A09
:104C90009DF868409DF86C70C2EB030B1A9AC2F342
:104CA00007201B9AC2F307261A9AC2F307411B9AE0
:104CB0000BEBDB735B10C2F3074E1A9A0BFB043548
:104CC0003C1B120E06940BFB0034301A03900BFBB6
:104CD00001300BFB02330D931B9B0A95C1EB0E01B8
:104CE000C2EB13630B940C90049105935E4600F0A5
:104CF00037FB1A9B1B9A099093426AD0002E52D020
:104D0000029D019A95425CDC0AAF024697E8800753
:104D10004FF0010B06E00BF1010B019B0135AB429B
:104D200022462FDB9AFBF6F399FBF6F41B0697FB62
:104D3000F6F143EA044398FBF6F441EA04240599AA
:104D40001C43039B8A4404999844029B8944069916
:104D5000AB4210460F44E0DA9442DCD005F042FD4D
:104D6000BBF1010FCBEB0500089B079905F1FF3262
:104D700022D005F0BDF8019B0135AB424FF0010B8D
:104D80002246CFDA204605F02DFDBBF1010F1AD0E7
:104D9000019A089B0799CBEB0200013005F0A8F8B7
:104DA000099805F01FFD0CF045FB00289FD103F08A
:104DB0000DF811B0BDE8F08F1A46681E05F06EF8C8
:104DC000ABE705F00FFD089A0799019805F066F822
:104DD000E6E7184605F006FD089B019A0799029838
:104DE00005F086F8DCE700BF440200202DE9F04F13
:104DF00091B081461E460F46904600F00BFC644B76
:104E00001C68E56C246DA019E11905EB090305EB9D
:104E10000802044601900EA8079308920291ADF88B
:104E20003830ADF83C20ADF83A10ADF83E400CF00B
:104E30006DFC002800F09180019B029A9DF868406B
:104E40009DF86C70C2EB030B1A9AC2F307201B9AF1
:104E5000C2F307261A9AC2F307411B9A0BEBDB73C6
:104E60005B10C2F3074E1A9A0BFB04353C1B120E63
:104E700006940BFB0034301A03900BFB01300BFB44
:104E800002330D931B9B0A95C1EB0E01C2EB13631A
:104E90000B940C90049105935E4600F061FA1A9B06
:104EA0001B9A0990934269D0002E52D0029D019A1C
:104EB00095425BDC0AAF024697E880074FF0010B92
:104EC00006E00BF1010B019B0135AB4222462FDBC3
:104ED0009AFBF6F399FBF6F41B0697FBF6F143EA0F
:104EE000044398FBF6F441EA042405991C43039B10
:104EF0008A4404999844029B89440699AB4210461F
:104F00000F44E0DA9442DCD005F06CFCBBF1010FF9
:104F1000CBEB050105F1FF33089A079822D004F086
:104F2000E7FF019B0135AB424FF0010B2246CFDA80
:104F3000204605F057FCBBF1010F19D0019B089AE0
:104F40000798CBEB0301013104F0D2FF099805F07B
:104F500049FC0CF06FFA00289FD102F037FF11B026
:104F6000BDE8F08F691E04F039FFACE705F03AFCAC
:104F7000089A0199079804F031FFE7E7184605F011
:104F800031FC019B089A0299079804F0B1FFDDE714
:104F900044020020F0B5144F83B006460D46144677
:104FA00000F038FB3B68196DDA6C0E4433B21544DF
:104FB00014446846ADF80050ADF80440ADF8023036
:104FC000ADF806300CF0A2FB50B13B685B6E224698
:104FD0001B683146284698470CF02CFA0028F4D17B
:104FE00002F0F4FE03B0F0BD4402002070B5134E91
:104FF00082B005460C4600F00DFB3368DA6C1B6D81
:1050000015441C442AB223B26846ADF80420ADF81A
:105010000020ADF80630ADF802300CF077FB48B157
:1050200033685B6E21465B68284698470CF002FAAD
:105030000028F5D102F0CAFE02B070BD4402002083
:105040002DE9F04782B0044689469246984600F022
:10505000E1FA1E4B1F683E7EFD6C3F6D013EB6B20D
:105060002C44B9445544B844A11B7219C6EB09033A
:1050700068464644ADF80010ADF80420ADF80230A3
:10508000ADF806600CF042FBD8B109F1010708F158
:10509000FF362A464946204604F0A0FE2A464146ED
:1050A000204604F09BFE32463946204604F0F6FEC8
:1050B00032463946284604F0F1FE0CF0BBF90028D0
:1050C000E7D102F083FE02B0BDE8F0874402002081
:1050D00070B582B0064614460D4600F09BFA104BA0
:1050E0001A68D36C126D1E4433B2154414446846DA
:1050F000ADF80250ADF80640ADF80030ADF8043020
:105100000CF004FB40B122462946304604F0C6FEAE
:105110000CF090F90028F6D102F058FE02B070BDF4
:10512000440200202DE9F041124F134EDFF84C806D
:1051300000253C681CB1A047041C18BF012409F0DD
:10514000AFFD3368002818BF01244BB1984738B130
:10515000D8F8003013B1012498473CB10125E8E7A5
:10516000D8F80030002BF7D1002CF7D12846BDE845
:10517000F08100BFF40E0220F80E0220F00E022093
:10518000F0B583B0074616461C460D4600F042FABD
:10519000104B1B68DA6C1B6D174416441D441C44ED
:1051A0006846ADF80070ADF80460ADF80250ADF897
:1051B00006400CF0ABFA48B1234632462946384641
:1051C00004F096FE0CF036F90028F5D102F0FEFD51
:1051D00003B0F0BD44020020F0B583B0B0F9007018
:1051E000B0F90260B0F90450B0F9064000F012FACC
:1051F000104B1B68DA6C1B6D174415441E441C448D
:105200006846ADF80070ADF80450ADF80260ADF836
:1052100006400CF07BFA48B123462A463146384610
:1052200004F066FE0CF006F90028F5D102F0CEFD80
:1052300003B0F0BD44020020002850D0C388013BD9
:1052400010B5848880681F2B47D8DFE803F0162349
:1052500046314646463C4646464646464640464613
:105260004646464646464646464646464610A310ED
:1052700002FB031150F8210010BD02FB04F200EB09
:10528000D104C843A35C00F0070023FA00F000F04B
:10529000010010BD02FB04F200EB91046FEA410033
:1052A000A35C00F0060023FA00F000F0030010BD3C
:1052B00002FB04F200EB5104CB07A05C4CBF00F0F2
:1052C0000F00000910BD02FB0404605C10BD6310F8
:1052D00002FB031130F8110010BD002010BD704713
:1052E000034B53F82000C36808219B6A184700BF8E
:1052F000D00E022010B500F08DF904F039FE05F053
:105300004BF8044602F062FD204610BD10B504467D
:1053100000F080F9054B1B68DB6900215B682046C3
:105320009847044602F052FD204610BD440200207A
:1053300038B504460D4600F06DF9064B1B68DB6975
:1053400029465B6820469847044602F03FFD204608
:1053500038BD00BF4402002008B109F015BE7047F7
:1053600010B500F057F904F00BFE05F015F80446EF
:1053700002F02CFD204610BD01289ABF024B53F8C5
:1053800020000020704700BF280C022010B500F05C
:1053900041F9034B1B681C7C02F018FD204610BD30
:1053A0004402002010B500F035F9044B1B68DB699E
:1053B0005C7E02F00BFD204610BD00BF44020020C1
:1053C00038B504460D4600F025F984B194F8203034
:1053D000AB7094F822302B7194F82130EB70294691
:1053E000A36820469847BDE8384002F0EFBC024B66
:1053F0001B68DC69EAE700BF4402002070B5044680
:105400000E46154600F006F920462A46314604F0BD
:105410005FFE044610B1002333602B6002F0D6FC1F
:10542000204670BD38B505460C4600F0F3F8064A34
:10543000064BB2F90020B3F900302A602360BDE8C2
:10544000384002F0C3BC00BFB20E0220B40E0220EE
:1054500010B5044603F02EFF01462046BDE810407B
:1054600003F0BCBE15F00CBC044834233521612286
:10547000017002718370C370704700BF2C0200205E
:1054800010B500F0C7F80F4B1A68938D03F00C03AA
:10549000082B08D00C2B06D0042B0BD0002402F0D4
:1054A00095FC204610BDD3691C7E640802F08EFC7A
:1054B000204610BDD3691C7E013C02F087FC2046CB
:1054C00010BD00BF44020020407E7047027EC07EB7
:1054D00002FB00F0704700BF024B53F820301B69FD
:1054E00018687047D00E0220024B53F820301B6919
:1054F00058687047D00E022038B505460C4600F0BB
:1055000089F8044B1B685D849C8402F05FFC0020DA
:1055100038BD00BF4402002090B583B000AF344ACC
:10552000334B1B6823F001031360324B01221A60D6
:1055300000BF304B1B68002BFBD12F4B2F4A1A604A
:105540002D4B1B682E4A934200D0FEE702F08EFEE0
:105550002C4B2E221A7015F097FB2B4811F0C4FD2E
:1055600014F0A8FB786004F02DFE0346002B0CBF5E
:1055700001230023DCB204F06BFE0346002B0CBFBA
:1055800001230023DBB22343DBB2002B09D004F05C
:105590002FFE044604F072FE03461946204605F02D
:1055A0004DF90021002002F08FF80AF05DFBFDF7B5
:1055B000F5FE164B1B68002B12D00DE0134B1B6839
:1055C0001B68002B03D0114B1B681B6898470F4BBF
:1055D0001B685B680D4A13600C4B1B68002BEDD1F8
:1055E0000B4B01221A707B6818460C37BD4690BDE4
:1055F000002000E00830024000300240C2A507F45D
:10560000CDB5E8B5B00E0220080B0220800B0220B9
:10561000C00E02202DE9F041234D6B6823B115F037
:105620002BFBAB68984204D015F07EFB15F024FBF1
:10563000A8606B680133012B6B6001D0BDE8F0817D
:105640001A4F3B68002B29DD0024264606E042B3B2
:105650003B6801369E4204F17C041FDA15F00CFB16
:105660002B681A5990422344F1D17B68B342E5D0AC
:10567000002B10DB2A68C3EB431302EB8308FFF710
:105680006BF82B68C8F878001C44094BA06F0434F1
:105690001C60FEF7E9FF7E60BDE8F081002426462D
:1056A000E3E71860E1E700BFFC0C0220AC03002038
:1056B0004402002010B582B028B9134B1B681C6E41
:1056C00014B902B010BD0446FFF7A4FF2046FEF750
:1056D000D9F902AB446943F8080D1846FEF722FBDE
:1056E0001CB902F073FB02B010BD2046FEF7CAF9E8
:1056F00002AC826844F8040D936898472046FEF790
:1057000011FB02F063FBEEE74402002000B9704792
:10571000014A114600F002B801F0FFFF2DE9F04701
:1057200084B00C4615460646FFF774FF002001F0D2
:105730006DFFDFF8E480D8F80030814630461F6EF8
:10574000FEF7A0F903680090986901F027FF314B3C
:105750009C42009B04BFB3F90440B3F906501A8978
:105760005B89ADF80840013A013B22442B44824654
:10577000ADF80C20ADF80E30ADF80A5008F01EFF61
:105780006846FEF7CFFA02A80BF0C0FF48BB5046B0
:1057900001F004FFFFF73EFF002F38D0D8F80030AB
:1057A0001B6E8BBB09F0ECF83846FEF76BF904ACC6
:1057B000D8F8003044F80C0D1F660068FEF708FFAB
:1057C0002046FEF7AFFA05F0EBF804F0FDFF02F01B
:1057D000FDFA484601F01AFF02F0F8FA04B0BDE8FD
:1057E000F0872A462146304600F0A6FC0BF022FE48
:1057F0000028CCD02A462146304600F09DFC0BF014
:1058000019FE0028EDD1C2E701F0BAFECAE701F0A7
:10581000B7FEDCE701F0FFFF440200202DE9F04372
:1058200085B00646904699460F46FFF7F3FE1C4AA0
:105830001C4B1268507C53F8204001E02468FCB1F6
:10584000E3681A68042AF9D1DB6A012120469847E7
:105850000546D8B12469A3689847013018D00C9B3D
:105860000294009301954B4642463946304600F07B
:10587000E9FA044602F0AAFA204605B0BDE8F08332
:10588000FEF76CFF044648B1C368DDE70446F1E764
:105890000C9B054C43F001030C93E0E72046ECE73A
:1058A00044020020D00E02202C0A020800B97047E2
:1058B00010B582B00446FFF7ADFE104B1B681B6E9F
:1058C0009C4217D02046FEF7DDF84369019063B98A
:1058D0000068FEF77BFE01A8FEF724FA2046FDF7DC
:1058E00089FE02F073FA02B010BD184602F054FAB5
:1058F0000198EDE701F044FEE4E700BF4402002018
:105900002DE9F04F87B0064692461C468946FFF7C0
:1059100081FE564B1A68564B577CDB57012B384695
:1059200040F3978004F054FC0546384604F096FC9A
:105930000746002E00F08A8005A904A8FFF772FD33
:10594000049A059BB6F900C0B6F90200B6F904E066
:10595000B6F9061015441F44013D2CEAEC73013FD3
:1059600020EAE072029303927545D4BFC3EB0503AE
:10597000C3EB0E038F42D4BFC2EB0702C2EB01029E
:105980001D4617460135013704B97C42002D4FDD15
:10599000002F4DDD109B00932A4623460399029861
:1059A000FFF73CFF8046002848D000F099F8874276
:1059B000064604D02D4B1B68986C002851D14046F8
:1059C00000F09CF9DFF8ACB03D4600240EE0AD1BC2
:1059D000ACB95046C847DBF800303444FF2003B16F
:1059E00098474046FFF792FEA74212DDAE42EEDD39
:1059F0002946404600F062F9AD1B002CE9D0039B1C
:105A0000029940461A1900F0AFF94046FFF752FEDE
:105A1000DFE74046FFF74AFF002000F06FF9B7428A
:105A200006D0124B1B68986C10B133210CF018FC97
:105A300002F0CCF9002007B0BDE8F08F5046C8470F
:105A400002F0C4F9012007B0BDE8F08F039602967A
:105A50009AE704F067FB0546384604F08DFB0746DD
:105A600067E732210CF0FCFBA9E700BF44020020ED
:105A7000CC0E0220300D022030B5044683B098B120
:105A8000FFF7C8FD2046FDF7FDFF036802AD1B6967
:105A900045F8040D9B68984705F0A2F8044628468F
:105AA000FEF740F902F092F9204603B030BD00BF86
:105AB000A0B110B5044682B0FFF7ACFD2046FDF75B
:105AC000E1FF02AB00F1180443F8040D1846FEF79D
:105AD00029F902F07BF9204602B010BD704700BFE3
